:100000000C9487040C94A4040C94A4040C94A404ED
:100010000C94A4040C94A4040C94A4040C94A404C0
:100020000C94A4040C94A4040C94A4040C94A404B0
:100030000C94A4040C94A6040C94A4040C94A4049E
:100040000C94A4040C94A4040C94A4040C94A40490
:100050000C94A4040C94A4040C94A4045265636549
:1000600069766564206120636F6D6D616E642074D4
:1000700065726D696E61746F722E0D0A00436F6D4B
:100080006D616E642070726F636573732073706549
:100090006564206572726F72210D0A00506172737F
:1000A000652062756666657220636F6E7461696E45
:1000B0007320272573272E0D0A00256320203C2D51
:1000C0002D20636F7069656420746F2072656365AD
:1000D000697665206275666665722E2020526563BA
:1000E000656976656420636F756E74206973202579
:1000F000642E0D0A00526563656976656420636845
:1001000061726163746572206E756D6265722061E3
:10011000626F7665206C696D69742E0D0A006A6FD6
:10012000686E7065636B2C62783130302C736E3082
:1001300030312C302E302E310D0A000068656C7085
:10014000202D2D205072696E742074686520636FB5
:100150006D6D616E642068656C702E0D0A006375AC
:10016000726F75743F202D2D205175657279207442
:100170006865206F75747075742063757272656E32
:100180007420696E2075412E0D0A202020204172B6
:1001900067756D656E743A204E6F6E650D0A20208E
:1001A000202052657475726E3A20696E74656765B9
:1001B000722063757272656E7420696E2075410DD0
:1001C0000A00246375726F6666202D2D20536574B6
:1001D000207468652063757272656E74206F666640
:1001E0007365742076616C75652E0D0A20202020C1
:1001F000417267756D656E743A2031362D6269748F
:10020000207369676E656420696E74656765722E18
:100210000D0A2020202052657475726E3A204E6FB0
:100220006E650D0A0024637572736C70202D2D208D
:10023000536574207468652063757272656E7420EE
:10024000736C6F70652076616C75652E0D0A2020C9
:100250002020417267756D656E743A2031362D62CB
:10026000697420756E7369676E656420696E746564
:100270006765720D0A2020202052657475726E3AEF
:10028000204E6F6E650D0A00766F6C743F202D2D29
:10029000205175657279207468652063616C6962AC
:1002A000726174656420766F6C74616765206D653A
:1002B00061737572656D656E742E0D0A20202020A5
:1002C000417267756D656E743A204E6F6E650D0AEA
:1002D0002020202052657475726E3A20566F6C741F
:1002E00061676520696E206D696C6C69766F6C74EE
:1002F000730D0A002461646376616C3F202D2D200C
:100300005175657279207468652072617720414467
:100310004320636F756E74732E0D0A2020202041D8
:100320007267756D656E743A204E6F6E650D0A20AA
:1003300020202052657475726E3A2031362D626924
:100340007420756E7369676E656420686578206EC9
:10035000756D6265720D0A006C6F677265673F208C
:100360002D2D20517565727920746865206C6F673A
:1003700067657220656E61626C652072656769737E
:100380007465722E0D0A20202020417267756D65FC
:100390006E743A204E6F6E650D0A20202020526543
:1003A0007475726E3A2031362D62697420756E73E1
:1003B00069676E656420686578206E756D62657228
:1003C0000D0A006C6F67726567202D2D20536574D0
:1003D00020746865206C6F6767657220656E616266
:1003E0006C652072656769737465722E0D0A202032
:1003F0002020417267756D656E743A2031362D622A
:10040000697420756E7369676E656420686578200D
:100410006E756D6265720D0A20202020526574751C
:10042000726E3A204E6F6E650D0A006C6F676C65D8
:1004300076656C202D2D2053657420746865206CC2
:100440006F67676572207365766572697479206C71
:100450006576656C2E0D0A20202020417267756D2F
:10046000656E743A20302D330D0A2020202052650D
:100470007475726E3A204E6F6E650D0A002A4944FB
:100480004E3F202D2D205072696E7420696E73745A
:1004900072756D656E74206964656E7469666965F0
:1004A000722E0D0A20202020417267756D656E74D2
:1004B0003A204E6F6E650D0A20202020526574751B
:1004C000726E3A204964656E746966696361746925
:1004D0006F6E20737472696E670D0A0041726775E2
:1004E0006D656E742073697A652069732025642EAA
:1004F0000D0A00546865207061727365206275662C
:10050000666572206973206C6F636B65642E0D0ADB
:100510000054686520636F6D6D616E6420636F6E5B
:100520007461696E7320612073706163652E0D0ABA
:100530000054686520636F6D6D616E642773206180
:100540007267756D656E7420697320272573272E79
:100550000D0A00436F6D6D616E642027257327209F
:100560007265636F676E697A65642E0D0A00417269
:1005700067756D656E7420746F2027257327206959
:1005800073206F7574206F662072616E67652E0D23
:100590000A00417267756D656E7420746F2027259F
:1005A00073272069732077697468696E206C696DA0
:1005B0006974732E0D0A0049676E6F72696E672049
:1005C000617267756D656E7420666F7220636F6D02
:1005D0006D616E6420272573272E0D0A00556E72FB
:1005E00065636F676E697A656420636F6D6D616EB8
:1005F000643A20272573272E0D0A00457865637518
:1006000074696E6720636F6D6D616E6420776974C5
:1006100068206E6F20617267756D656E742E0D0AAD
:1006200000457865637574696E6720636F6D6D61F1
:100630006E642077697468206865782061726775D8
:100640006D656E742E0D0A005468652061726775C1
:100650006D656E742076616C7565206973202575F3
:100660002E0D0A00457865637574696E6720636FA7
:100670006D6D616E64207769746820756E7369674B
:100680006E656420696E7420617267756D656E7445
:100690002E0D0A00457865637574696E6720636F77
:1006A0006D6D616E642077697468207369676E652B
:1006B0006420696E7420617267756D656E742E0DAD
:1006C0000A004E6F2068616E646C657220737065FD
:1006D00063696669656420666F72202573206172A4
:1006E00067756D656E742E0D0A004C6F6767696ED5
:1006F000672073657420746F206C6576656C2025A7
:10070000690D0A004C6F67206C6576656C20257555
:10071000206973206E6F74207265636F676E697AEB
:1007200065642E0D0A004C6F6767657220656E6107
:10073000626C652072656769737465722073657495
:1007400020746F2025752E0D0A0025750D0A004EA8
:100750006F77206C6F6767696E6720737973746554
:100760006D2025730D0A00496E697469616C697AA0
:10077000696E67204144430D0A004A544147206492
:10078000697361626C65640D0A005377697463680C
:10079000656420746F20414443206368616E6E6518
:1007A0006C2025690D0A00307825780D0A00496E05
:1007B000697469616C697A696E67207274630D0A85
:1007C0000045787065637465642031306D732C204A
:1007D000676F742025696D730D0A002C01C8000035
:1007E00000C8000100C8000000C800FA002C010089
:1007F0000064006E00780082008C009600A000AAC1
:1008000000B400BE00C8000000496E697469616CE4
:10081000697A696E6720736F756E640D0A00436FA5
:100820006D706172652076616C7565206973202535
:10083000690D0A00506C6179656420666F7220252D
:1008400069206D730D0A0057726F74652025692049
:10085000746F20616464726573732025690D0A00EA
:10086000526561642025692066726F6D2061646441
:10087000726573732025690D0A0057726974696E79
:10088000672063757272656E7420736C6F7065207B
:1008900076616C7565206F662025750D0A005772AC
:1008A0006974696E672063757272656E74206F6615
:1008B000667365742076616C7565206F66202569A6
:1008C0000D0A0043757272656E7420736C6F7065EB
:1008D0002076616C75652069732025752070412F25
:1008E000636F756E740D0A0043757272656E7420C5
:1008F0006F66667365742076616C75652069732018
:1009000025692070410D0A00256C690D0A0011242B
:100910001FBECFEFD4E0DEBFCDBF12E0A0E0B1E05C
:10092000E2EAF7E202C005900D92AC34B107D9F7C4
:1009300012E0ACE4B2E001C01D92A139B107E1F7C9
:100940000E94380E0C94CF130C9400001F920F924B
:100950000FB60F9211242F933F934F935F936F9392
:100960007F938F939F93AF93BF93CF93DF93EF9337
:10097000FF93E0910001F09101010488F589E02DD9
:100980008091C6008083E0910001F0910101A4896B
:10099000B5898C918D3009F052C08CE590E09F9321
:1009A0008F931F92C5E9D1E0DF93CF930E9428096E
:1009B000E0910001F09101010F900F900F900F90C6
:1009C0000F9084A5882309F477C085A5813049F468
:1009D0008DE790E09F938F9383E08F93DF93CF9386
:1009E00058C00488F589E02D108280910001909113
:1009F0000101BC0146960E949510E0910001F09122
:100A0000010121E025A7CF0146969F938F938CE9A2
:100A100090E09F938F931F92DF93CF930E942809BA
:100A200080910001909101010E94DF058DB79EB772
:100A300007960FB6F8949EBF0FBE8DBF3DC084A52C
:100A40008F5F84A71F928F938C911F928F938AEB55
:100A500090E09F938F931F92C5E9D1E0DF93CF93EE
:100A60000E942809E0910001F09101018DB79EB725
:100A700009960FB6F8949EBF0FBE8DBF84A5833133
:100A8000B0F085EF90E09F938F9383E08F93DF9397
:100A9000CF930E94280980910001909101010E944A
:100AA000DF050F900F900F900F900F9005C0848975
:100AB00095890196958B848BFF91EF91DF91CF9172
:100AC000BF91AF919F918F917F916F915F914F9166
:100AD0003F912F910F900FBE0F901F9018958EE1B0
:100AE00091E09F938F930E94EF070F900F900895CE
:100AF000CF93DF93EC0109C088858F938F818F930B
:100B00000E94EF0729960F900F908D819E81892B6F
:100B100099F7DF91CF91089584E091E00C947805E6
:100B2000CF93DF93FC0184E1EF01982F19929A95FE
:100B3000E9F7E48BF58BDF015696ED0119928A9562
:100B4000E9F7B3A7A2A714A615A6DF91CF91089540
:100B50000F931F93CF93DF938B01DC019A96EC9157
:100B60009A979B96FC91EF0109900020E9F7219755
:100B7000CE1BDF0BCE0199279F938F938CED94E0D2
:100B80009F938F9381E08F938CE991E09F938F9354
:100B90000E942809EDB7FEB737960FB6F894FEBF4E
:100BA0000FBEEDBFD80114968C918C1710F080E029
:100BB00001C08FEFDF91CF911F910F910895CF93D7
:100BC000DF93FC0184E1EF0119928A95E9F7E48B48
:100BD000F58B14A6DF91CF910895BF92CF92DF924B
:100BE000EF92FF920F931F93CF93DF938C016B01D2
:100BF000EA01DC011296FC9012971396EC9065ECDA
:100C000071E08F2D9E2D0E948C10009769F48BEF60
:100C100095E09F938F9381E08F938CE991E09F9370
:100C20008F930E94280963C06AEC71E08F2D9E2D7E
:100C30000E948C10009741F581E296E09F938F937C
:100C4000BB24B394BF928CE9E82E81E0F82EFF928A
:100C5000EF920E942809C6010E941B0A888399838B
:100C60009F938F9388E496E09F938F93BF92FF9218
:100C7000EF920E942809EDB7FEB73C960FB6F894A4
:100C8000FEBF0FBEEDBF38C060ED71E08F2D9E2D11
:100C90000E948C10009791F484E696E09F938F93C6
:100CA00081E08F938CE991E09F938F930E942809B4
:100CB000C6010E944E0A9983888319C067ED71E0CE
:100CC0008F2D9E2D0E948C10009731F584E996E0BF
:100CD0009F938F9381E08F938CE991E09F938F9303
:100CE0000E942809C6010E94500A9B838A830F90A4
:100CF0000F900F900F900F90D8011596ED91FC91E9
:100D00001697CE01DF91CF911F910F91FF90EF9039
:100D1000DF90CF90BF900994EF92FF9282EC96E023
:100D20009F938F9383E08F938CE991E09F938F93B0
:100D30000E942809EDB7FEB737960FB6F894FEBFAC
:100D40000FBEEDBFDF91CF911F910F91FF90EF90FC
:100D5000DF90CF90BF900895BF92CF92DF92EF9235
:100D6000FF920F931F93CF93DF93EC018B01BDA4F0
:100D700081E0B81206C183EF94E09F938F93BF92F6
:100D80002CE9C22E21E0D22EDF92CF920E942809B8
:100D90007E0196E1E90EF11C60E270E0C7010E945D
:100DA00081109BA78AA70F900F900F900F900F9024
:100DB000892BA9F181E195E09F938F93BF92DF92F8
:100DC000CF920E942809EAA5FBA510828AA59BA5BF
:100DD00001969BA78AA70F900F900F900F900F90EE
:100DE00003C03196FBA7EAA7EAA5FBA58081803264
:100DF000C1F3FF93EF9381E395E09F938F9381E09D
:100E00008F938CE991E09F938F930E942809EDB70F
:100E1000FEB737960FB6F894FEBF0FBEEDBFC70101
:100E20000E945B0A91C0F801D080C1806D2D7C2D9D
:100E3000C7010E948C10009709F084C0CF92DF9206
:100E400083E595E09F938F93DD24D394DF929CE913
:100E5000E92E91E0F92EFF92EF920E94280965ECAD
:100E600071E0F801828193810E948C109C018DB702
:100E70009EB707960FB6F8949EBF0FBE8DBF232B6B
:100E8000D9F1B801CE010E94A805F8012181908115
:100E90008823A9F02F939F938EE695E09F938F93DD
:100EA00083E08F93FF92EF920E9428098DB79EB73F
:100EB00007960FB6F8949EBF0FBE8DBF41C02F930B
:100EC0009F9382E995E09F938F93DF92FF92EF9239
:100ED0000E94280940910201509103016AA57BA557
:100EE000C8010E94ED05EDB7FEB737960FB6F8942E
:100EF000FEBF0FBEEDBF24C08AA59BA5892BB9F00C
:100F0000F80181818F9380818F9387EB95E09F9388
:100F10008F9382E08F93FF92EF920E9428098DB702
:100F20009EB707960FB6F8949EBF0FBE8DBF409137
:100F300002015091030160E070E0C8010E94ED05DC
:100F40001DA61FC0075F1F4FF80185819681892B61
:100F500009F069CFFF92EF928DED95E09F938F930B
:100F600083E08F938CE991E09F938F930E942809EF
:100F70001DA68DB79EB707960FB6F8949EBF0FBEFD
:100F80008DBFDF91CF911F910F91FF90EF90DF9078
:100F9000CF90BF9008958091C00087FFFCCF8091D3
:100FA000C60008959091C00095FFFCCF8093C600C5
:100FB00008950F931F93CF93DF93EC0100E010E0AF
:100FC0008991882339F00F5F1F4F0E94D20706399D
:100FD0001105B1F7DF91CF911F910F910895CF9334
:100FE000DF93CDB7DEB7C659D1090FB6F894DEBF8F
:100FF0000FBECDBFFE01E556FF4F419151919F01BC
:1010000066E970E0CE0101960E94D410CE010196EF
:101010000E94D90780E0CA56DF4F0FB6F894DEBFB2
:101020000FBECDBFDF91CF910895CF93DF93CDB7A2
:10103000DEB7C659D1090FB6F894DEBF0FBECDBFDB
:10104000FE01E556FF4F61917191AF01CE0101960E
:101050000E940011CE0101960E94D90780E0CA5675
:10106000DF4F0FB6F894DEBF0FBECDBFDF91CF913B
:1010700008951F93CF93DF93EC01FE011491812F0C
:101080000E94D20721961111F8CFDF91CF911F91C5
:10109000089582E08093C0001092C50087E6809397
:1010A000C400E1ECF0E088E1808380818068808387
:1010B000808180838081808386E08093C200089550
:1010C0001092C5008CE08093C4000895E0918201E5
:1010D000F09183018FEF9FEF9183808381E0828382
:1010E0000895E0918201F091830181818F93808145
:1010F0008F938AE497E09F938F930E94EF070F905E
:101100000F900F900F900895E0918201F09183016C
:101110001182108208959F938F9380E292E09F93B3
:101120008F930E9415080F900F900F900F900895C5
:101130007F928F929F92AF92BF92CF92DF92EF9267
:10114000FF920F931F93CF93DF93CDB7DEB7E29754
:101150000FB6F894DEBF0FBECDBF5C01762E6A01DC
:10116000E0908201F09083010EE511E088248394E1
:10117000912C53C0C5010E948C10009709F04BC000
:10118000C401F801028002C0880F991F0A94E2F797
:10119000F7012081318182239323892BE1F1F1E052
:1011A0007F1661F07F1638F082E0781651F093E0F8
:1011B000791212C00BC083E292E00CC087E292E089
:1011C00009C00E94AF0C8BE292E004C00E94B30CF5
:1011D0008FE292E00E948B08F80181818F938081D9
:1011E0008F9383E392E09F938F931F9282E38F9379
:1011F0008E010F5F1F4F1F930F930E94A410C80111
:101200000E948B08C6010E948B080FB6F894DEBFBF
:101210000FBECDBF09C00D5F1F4FF8016081718106
:10122000FB0180818111A6CFE2960FB6F894DEBF54
:101230000FBECDBFDF91CF911F910F91FF90EF9027
:10124000DF90CF90BF90AF909F908F907F90089548
:101250001F93CF93DF93CDB7DEB7E2970FB6F89425
:10126000DEBF0FBECDBF1AADE0918201F0918301C8
:1012700080819181892BB1F08281181798F0CE017D
:10128000CD969C014BAD5CAD62E370E0CE01019662
:101290000E94D410AE014F5F5F4F612F88AD99ADB2
:1012A0000E949808E2960FB6F894DEBF0FBECDBF3D
:1012B000DF91CF911F910895EF92FF920F931F93AB
:1012C000CF93DF937C010EE511E033C0BE01C7016F
:1012D0000E948C10009759F5E0918201F0918301F2
:1012E00021E030E0D80112960C9002C0220F331F8B
:1012F0000A94E2F780819181822B932B91838083E2
:10130000DF93CF938FE497E09F938F9381E08F9348
:101310008EE891E09F938F930E9428098DB79EB726
:1013200007960FB6F8949EBF0FBE8DBF08C00D5F25
:101330001F4FD801CD91DC9188818111C7CFDF91FA
:10134000CF911F910F91FF90EF900895FC012081A4
:101350008181E0918201F0918301208381838F93C9
:101360002F9386E297E09F938F9381E08F938EE88F
:1013700091E09F938F930E9428098DB79EB707969F
:101380000FB6F8949EBF0FBE8DBF0895E091820105
:10139000F091830182831F928F938AEE96E09F9350
:1013A0008F9381E08F938EE891E09F938F930E94BB
:1013B00028098DB79EB707960FB6F8949EBF0FBE4B
:1013C0008DBF0895FC01808191818130910551F09C
:1013D00038F08230910541F08330910551F406C018
:1013E00080E005C081E003C082E001C083E00C948E
:1013F000C6099F938F9384E097E09F938F9383E038
:101400008F938EE891E09F938F930E9428098DB768
:101410009EB707960FB6F8949EBF0FBE8DBF089576
:1014200080538A3038F08750803120F080528031EC
:1014300008F080E00895EF92FF920F931F93CF93EF
:10144000DF93FC0101900020E9F73197E81BF90BCD
:10145000C82FD92F00E010E0EE2EE80E14C08991BD
:101460000E94100A482F50E02F2D30E02150310902
:10147000220F331F220F331F02C0440F551F2A951E
:10148000E2F7040F151FFE2CFC1A49F7C801DF9183
:10149000CF911F910F91FF90EF9008950C945B10E6
:1014A0000C945B10282F80E091E002C0990F8F5FB1
:1014B0009217E0F30895CF93DF93EC0104C090E01E
:1014C0000E947910899388818111F9CFDF91CF91A2
:1014D000089580E88093610083E08093610010921A
:1014E000700088E08093B60088EC8093B30010927F
:1014F0006E0081E0809381008093B0008091B600FF
:101500009091B60081709470892BC1F78AE090E0C9
:1015100040E355E7FA013197F1F70197D9F74FEF1B
:1015200051E0F89446BB47BB1092850010928400AE
:101530001092B20087B38823E9F310928100789467
:1015400086B3811115C08091840090918500392F58
:1015500020E0B901680F711DCB018B3678E1970748
:1015600024F080916600815006C0883E97413CF48B
:10157000809166008F5F8093660080E001C081E00B
:1015800050938100882369F20895E1E6F0E080E855
:101590008083108208951F93CF93DF9387E697E0AF
:1015A0009F938F9311E01F93C4EAD1E0DF93CF9311
:1015B0000E94280985B7806885BF85B7806885BF88
:1015C0000F900F900F900F900F9005B607FE0EC072
:1015D0008AE797E09F938F931F93DF93CF930E94A7
:1015E00028090F900F900F900F900F9080E4809338
:1015F0007C0080917C008F7D80937C0080917C00BA
:10160000816080937C0086E880937A0080917A00E4
:101610008F7D80937A0080917A00806480937A0035
:1016200080917A0084FFFCCFDF91CF911F910895C4
:10163000ECE7F0E09081907E90839081982B9083EE
:101640001F928F938AE897E09F938F9381E08F9307
:1016500084EA91E09F938F930E9428098DB79EB7EB
:1016600007960FB6F8949EBF0FBE8DBF0895809168
:101670007A00806880937A0080917A0080648093F9
:101680007A0080917A0084FFFCCF2091780030911D
:101690007900932F80E0AC01420F511DCA010895DB
:1016A0000E94370B9F938F9387EA97E09F938F93C6
:1016B0000E94EF070F900F900F900F9008958EEA01
:1016C00097E09F938F9381E08F938EEA91E09F93B1
:1016D0008F930E94280988E08093B6008091B00023
:1016E000877B8093B0008091B0008B7F8093B000A7
:1016F0008091B00083608093B0000F900F900F90A6
:101700000F900F908091B6009091B6008170947008
:10171000892BC1F787E28093890080E1809388005C
:1017200080E00CC00E94110C0E94200C1092B200AC
:101730000E94170CB19BFECF8091B200982F995058
:10174000933080F71F928F9381EC97E09F938F9354
:1017500081E08F938EEA91E09F938F930E942809F6
:101760008DB79EB707960FB6F8949EBF0FBE8DBF7C
:1017700008958091B2000895CF93DF93A091B200B5
:1017800020E030E0EFEFF0E016C0B091B2006B2F38
:1017900070E04A2F50E0BA1728F0641B750B260F33
:1017A000371F08C0EF01C41BD50BAE01460F571FF2
:1017B000240F351FAB2F2817390738F3C901DF91E4
:1017C000CF91089589E098E09F938F9381E08F9364
:1017D00088EA91E09F938F930E942809E1E8F0E066
:1017E00080818A7F808380818260808380818F7EF8
:1017F0008083808188608083E0E8F0E080818F775B
:10180000808380818064808380818C7F808310923C
:101810008900109288000F900F900F900F900F90FA
:101820000895E1E8F0E08081887F80830895E1E811
:10183000F0E080818A7F8083808182608083089548
:10184000109285001092840086B3827086BB089542
:10185000AF92BF92CF92DF92FF920F931F93CF93DD
:10186000DF9300D0CDB7DEB78C015B010E94110C75
:101870000E94200C259AC8010A9787319E44E0F403
:10188000B801660F771F80E090E00E94C10F9B01B6
:10189000AC0160E074E284E799E40E942D0F20E03F
:1018A00030E040E05FE30E94C90E0E94950F6B019B
:1018B00081E0C81AD10803C0CC24CA94DC2CDF9282
:1018C000CF928EE198E09F938F93FF24F394FF9241
:1018D00008EA11E01F930F930E942809D092890013
:1018E000C09288000E94170CC5010E94BC0B89831E
:1018F0009A830E94110C9A819F9389818F9384E32C
:1019000098E09F938F93FF921F930F930E94280953
:101910000FB6F894DEBF0FBECDBF0F900F90DF91D2
:10192000CF911F910F91FF90DF90CF90BF90AF901C
:101930000895CF93DF93EC0105C064E670E00E9448
:10194000280C2296FE0125913491C9010097A9F730
:10195000DF91CF91089589EE97E00C94990C81EE78
:1019600097E00C94990C8BED97E00C94990CF894FB
:10197000F999FECF92BD81BD60BDFA9AF99A78942B
:101980009F938F931F926F9387E498E09F938F9319
:1019900081E08F9382EB91E09F938F930E942809BF
:1019A0008DB79EB709960FB6F8949EBF0FBE8DBF38
:1019B0000895F894F999FECF92BD81BDF89A789474
:1019C00020B59F938F931F922F9380E698E09F936B
:1019D0008F9381E08F9382EB91E09F938F930E948E
:1019E000280980B52DB73EB7275F3F4F0FB6F89453
:1019F0003EBF0FBE2DBF0895249A08952C9A0895D6
:101A00002C9808952C990C94000D0C94FE0C0895BC
:101A10001F93CF93DF931F92CDB7DEB7192F9F93FC
:101A20008F932AE738E03F932F9391E09F9321EC27
:101A300031E03F932F9389830E9428098981682F81
:101A400084E690E00E94B70C0FB6F894DEBF0FBE9C
:101A5000CDBF612F85E690E00F90DF91CF911F9170
:101A60000C94B70CFC01808191810C94080D1F939C
:101A7000CF93DF931F92CDB7DEB7192F9F938F932C
:101A80002EE938E03F932F9391E09F9321EC31E0D2
:101A90003F932F9389830E9428098981682F86E6C6
:101AA00090E00E94B70C0FB6F894DEBF0FBECDBF1A
:101AB000612F87E690E00F90DF91CF911F910C94FA
:101AC000B70CFC01828193810C94370D1F93CF9347
:101AD000DF93EC0184E690E00E94D90C182F85E694
:101AE00090E00E94D90C382F20E0210F311D39835E
:101AF000288386E690E00E94D90C182F87E690E0B4
:101B00000E94D90C382F20E0210F311D3B832A83FE
:101B1000DF91CF911F9108951F93CF93DF93809111
:101B20008C0190918D010E94660DE0918A01F091E7
:101B30008B011082118212821382E0918C01F0914C
:101B40008D0181818F9380818F9383EC98E09F93A7
:101B50008F9311E01F93C9EBD1E0DF93CF930E94E5
:101B60002809E0918C01F0918D0183818F9382810E
:101B70008F9388EE98E09F938F931F93DF93CF937B
:101B80000E9428098DB79EB70E960FB6F8949EBF97
:101B90000FBE8DBFDF91CF911F9108950F931F93BB
:101BA000CF93DF938C01862F0E94520A41E050E0D0
:101BB000082E02C0440F551F0A94E2F790E020E07F
:101BC00030E009C0EE0FFF1FE00FF11F608171814F
:101BD000260F371F9F5FE92FF0E0E417F50794F316
:101BE00002C0369527958A95E2F7E0918C01F09135
:101BF0008D01A081B181C0918A01D0918B010E9499
:101C00004F10605472448F40910902811381222742
:101C100017FD2095322F600F711F821F931F2AE03E
:101C200095958795779567952A95D1F768837983F8
:101C30008A839B83DF91CF911F910F910895E0914B
:101C40008A01F0918B0183818F9382818F938181AF
:101C50008F9380818F9388E099E09F938F930E9468
:101C6000EF070F900F900F900F900F900F90089527
:101C700078940E94C50A0E9449080E9460080E9448
:101C800066080E9484088EE891E00E945C0985E95C
:101C900091E00E945C098CE991E00E945C0984EA71
:101CA00091E00E945C0988EA91E00E945C098EEA5A
:101CB00091E00E945C0982EB91E00E945C0989EB53
:101CC00091E00E945C0981EC91E00E945C090E9415
:101CD000CB0A84E00E94180B0E94E20B0E945F0B6B
:101CE00080910001909101010E9490050E94FC0CDE
:101CF0000E948C0D10927A0210927B0210927C024C
:101D000010927D020E94AB0CD12C0AE712E0C0E0D9
:101D1000D0E0C12CEE24EA94F12C01C0CB2C64E07D
:101D200071E080910001909101010E94AC060E9437
:101D3000B90BB82E482F50E02C2D30E08C1528F030
:101D4000421B530BC40FD51F08C0C701821B930B46
:101D50009C01240F351FC20FD31FC83E93E0D90743
:101D6000E8F2E4E0DE1203C0D12C0AE712E00E94A0
:101D7000370BF801819391938F0164E08AE792E039
:101D80000E94CE0DD3940E94020DC0E0D0E0C6CFD9
:101D90005058BB27AA270ED048C139D130F03ED1C8
:101DA00020F031F49F3F11F41EF42EC10EF4E095A3
:101DB000E7FB24C1E92F4AD180F3BA176207730702
:101DC0008407950718F071F49EF562C10EF4E09552
:101DD0000B2EBA2FA02D0B01B90190010C01CA01E5
:101DE000A0011124FF27591B99F0593F50F4503E90
:101DF00068F11A16F040A22F232F342F4427585F82
:101E0000F3CF469537952795A795F0405395C9F799
:101E10007EF41F16BA0B620B730B840BBAF0915051
:101E2000A1F0FF0FBB1F661F771F881FC2F70EC0F0
:101E3000BA0F621F731F841F48F4879577956795C3
:101E4000B795F7959E3F08F0B3CF9395880F08F0AC
:101E50009927EE0F9795879508950CD0E6C0DED0B0
:101E600040F0D5D030F021F45F3F19F0C7C05111D8
:101E700010C1CAC0EBD098F39923C9F35523B1F32D
:101E8000951B550BBB27AA2762177307840738F0E9
:101E90009F5F5F4F220F331F441FAA1FA9F333D048
:101EA0000E2E3AF0E0E830D091505040E695001CFC
:101EB000CAF729D0FE2F27D0660F771F881FBB1FB8
:101EC000261737074807AB07B0E809F0BB0B802D92
:101ED000BF01FF2793585F4F2AF09E3F510568F0DE
:101EE0008DC0D7C05F3FECF3983EDCF386957795C5
:101EF0006795B795F7959F5FC9F7880F911D9695E0
:101F0000879597F90895E1E0660F771F881FBB1F3B
:101F1000621773078407BA0720F0621B730B840BE8
:101F2000BA0BEE1F88F7E095089598D088F09F5778
:101F300090F0B92F9927B751A0F0D1F0660F771F15
:101F4000881F991F1AF0BA95C9F712C0B13081F0F5
:101F50009FD0B1E008959CC0672F782F8827B85F85
:101F600039F0B93FCCF3869577956795B395D9F756
:101F70003EF490958095709561957F4F8F4F9F4F60
:101F80000895E89409C097FB3EF49095809570956C
:101F900061957F4F8F4F9F4F9923A9F0F92F96E9B5
:101FA000BB279395F695879577956795B795F1112A
:101FB000F8CFFAF4BB0F11F460FF1BC06F5F7F4FC7
:101FC0008F4F9F4F16C0882311F096E911C07723D9
:101FD00021F09EE8872F762F05C0662371F096E8E2
:101FE000862F70E060E02AF09A95660F771F881FB1
:101FF000DAF7880F9695879597F9089597F99F676F
:1020000080E870E060E008959FEF80EC0895002480
:102010000A941616170618060906089500240A944D
:1020200012161306140605060895092E0394000CD3
:1020300011F4882352F0BB0F40F4BF2B11F460FF62
:1020400004C06F5F7F4F8F4F9F4F089557FD90588B
:10205000440F551F59F05F3F71F04795880F97FB6C
:10206000991F61F09F3F79F0879508951216130626
:102070001406551FF2CF4695F1DF08C01616170655
:102080001806991FF1CF869571056105089408958A
:10209000E894BB2766277727CB0197F90895A29F7D
:1020A000B001B39FC001A39F01D0B29F700D811DED
:1020B0001124911D0895FC0188279927E894219106
:1020C0002032E9F3293010F02E30C8F32B3241F0E2
:1020D0002D3239F4689404C00E949C10820F911D27
:1020E000219120532A30C0F31EF4909581959F4F83
:1020F00008959111089581548A5108F4805E855A9B
:102100000895FC018191861721F08823D9F799273A
:1021100008953197CF010895FB01DC018D91019065
:1021200080190110D9F3990B0895FB01DC0101908E
:102130000D920020E1F708957AE0979F902D879FF8
:10214000802D910D11240895AEE0B0E0EAEAF0E1AF
:102150000C94A6130D891E898F89988D26E02C83F7
:102160001A83098397FF02C080E090E801979E835D
:102170008D83CE014B96AC01698D7A8DCE0101968F
:102180000E941C114D815E8157FD0AC02F81388548
:10219000421753070CF49A01F801E20FF31F108263
:1021A0002E96E4E00C94C213AEE0B0E0EAEDF0E16C
:1021B0000C94A6138C01CA014EE04C831A83098348
:1021C00077FF02C060E070E8615071097E836D8323
:1021D000A901BC01CE0101960E941C114D815E81B6
:1021E00057FD0AC02F813885421753070CF49A0116
:1021F000F801E20FF31F10822E96E4E00C94C21354
:10220000AEE0B0E0E6E0F1E10C94A6138C0186E0CC
:102210008C831A8309838FEF9FE79E838D83CE0182
:1022200001960E941C11EF81F885E00FF11F1082CA
:102230002E96E4E00C94C213ACE0B0E0E2E2F1E1EF
:102240000C9498137C016B018A01FC0117821682A1
:10225000838181FFC6C188248394912C8C0E9D1E9E
:10226000F7019381F60193FD859193FF81916F01B1
:10227000882309F4B2C1853239F493FD859193FF27
:1022800081916F01853229F4B70190E00E940E130D
:10229000E7CF512C312C20E02032A8F48B3261F0B2
:1022A00028F4803251F0833271F40BC08D3239F052
:1022B000803349F4216028C02260246025C0286052
:1022C00023C0206121C027FD27C0382F30533A306A
:1022D00078F426FF06C0FAE05F9E300D1124532EDD
:1022E00013C08AE0389E300D1124332E20620CC0BA
:1022F0008E3221F426FD71C1206406C08C3611F4A3
:10230000206802C0883641F4F60193FD859193FF61
:1023100081916F018111C0CF982F9554933018F09F
:102320009052933028F40C5F1F4FFFE3F9830DC0E8
:10233000833631F0833771F0833509F05EC023C0F6
:10234000F801808189830E5F1F4F44244394512CF0
:10235000540115C03801F2E06F0E711CF801A08025
:10236000B18026FF03C0652D70E002C06FEF7FEFE4
:10237000C5012C870E9403132C0183012C856FE774
:10238000262E222218C03801F2E06F0E711CF801CF
:10239000A080B18026FF03C0652D70E002C06FEF02
:1023A0007FEFC5012C870E94F8122C012C8550E884
:1023B000252E222A830123FC1CC006C0B70180E21F
:1023C00090E00E940E133A94832D90E0481659062F
:1023D000A8F30FC0F50127FC859127FE81915F01CD
:1023E000B70190E00E940E1331103A94F1E04F1AB9
:1023F00051084114510471F7EDC0843611F089364B
:1024000041F5F80127FF07C06081718182819381C6
:102410000C5F1F4F08C060817181882777FD809510
:10242000982F0E5F1F4F4FE6B42EB22297FF09C0C0
:1024300090958095709561957F4F8F4F9F4FF0E8F5
:10244000BF2A2AE030E0A4010E943A13A82EA8185F
:1024500043C0853731F43FEEB32EB2222AE030E09C
:1024600024C099EFB92EB2228F36B9F020F4883506
:1024700009F0B3C00DC0803721F0883709F0ADC036
:1024800002C020E1B22AB4FE0BC084E0B82A08C022
:1024900024FF09C0E6E0BE2A06C028E030E005C0FF
:1024A00020E130E002C020E132E0F801B7FE07C0D1
:1024B00060817181828193810C5F1F4F06C06081B2
:1024C000718180E090E00E5F1F4FA4010E943A13DB
:1024D000A82EA818FFE7BF22B6FE0BC02B2D2E7F1B
:1024E000A51450F4B4FE0AC0B2FC08C02B2D2E7EF9
:1024F00005C07A2C2B2D03C07A2C01C0752C24FF2B
:102500000DC0FE01EA0DF11D8081803311F4297E9A
:1025100009C022FF06C07394739404C0822F86788A
:1025200009F0739423FD14C020FF0FC05A2C7314BC
:1025300060F4530C5718732C08C0B70180E290E088
:102540002C870E940E1373942C857314B0F304C06F
:10255000731410F4371801C0312C24FF12C0B701D6
:1025600080E390E02C870E940E132C8522FF1EC072
:1025700021FF03C088E590E002C088E790E0B70142
:102580000CC0822F867891F021FD02C080E201C04C
:102590008BE227FD8DE2B70190E00E940E1306C08A
:1025A000B70180E390E00E940E135A94A514C0F383
:1025B000AA94F401EA0DF11DB701808190E00E9418
:1025C0000E13A110F5CF06C0B70180E290E00E9483
:1025D0000E133A943110F8CF43CEF701268137819C
:1025E00002C02FEF3FEFC9012C96E2E10C94B41327
:1025F000FC010590615070400110D8F780959095CE
:102600008E0F9F1F0895FC016150704001900110D2
:10261000D8F7809590958E0F9F1F08950F931F9365
:10262000CF93DF938C01EB018B8181FD03C00FEF12
:102630001FEF1AC082FF0DC02E813F818C819D81CA
:102640002817390764F4E881F9810193F983E88355
:1026500006C0E885F985802F0995892B41F78E8181
:102660009F8101969F838E83C801DF91CF911F9137
:102670000F910895FA01AA27283051F1203181F1F4
:10268000E8946F936E7F6E5F7F4F8F4F9F4FAF4F7A
:10269000B1E03ED0B4E03CD0670F781F891F9A1F8D
:1026A000A11D680F791F8A1F911DA11D6A0F711D41
:1026B000811D911DA11D20D009F468943F912AE04D
:1026C000269F11243019305D3193DEF6CF01089535
:1026D000462F4770405D4193B3E00FD0C9F7F6CF66
:1026E000462F4F70405D4A3318F0495D31FD40522E
:1026F000419302D0A9F7EACFB4E0A69597958795C4
:1027000077956795BA95C9F70097610571050895A2
:102710009B01AC010A2E069457954795379527954E
:10272000BA95C9F7620F731F841F951FA01D0895E6
:102730002F923F924F925F926F927F928F929F92D1
:10274000AF92BF92CF92DF92EF92FF920F931F93BF
:10275000CF93DF93CDB7DEB7CA1BDB0B0FB6F89470
:10276000DEBF0FBECDBF09942A88398848885F84B0
:102770006E847D848C849B84AA84B984C884DF8021
:10278000EE80FD800C811B81AA81B981CE0FD11D05
:102790000FB6F894DEBF0FBECDBFED010895F894DB
:0227A000FFCF69
:1027A2004C028202DE01C501006F057D04E401D006
:1027B2000101E2092B04EB01D00104A609C303F2D3
:1027C20001C5010071085803FA01C50100500BF45C
:1027D200020302D00105320D25020B02D701056169
:1027E2000DC2011302C501001F0E5E011B02C501CD
:1027F200008C053C01380238020000003B018E01CA
:10280200009C0101950102A4010339020442020560
:10281200A80106AE0107B20108C10109B9010A38CF
:10282200020086028601010000008D0289026C6F9F
:10283200676765720072786368617200636F6D6DBD
:10284200616E640061646300736F756E640072741C
:102852006300656570726F6D0063757272656E7488
:102862000063616C006E6F6E6500686578313600DA
:1028720075696E7431360073696E743136002A6977
:10288200646E3F006C6F676C6576006C6F67726593
:1028920067006C6F677265673F00246164637661ED
:1028A2006C3F0024637572736C7000246375726FE1
:1028B2006666006375726F75743F0068656C7000C0
:1028C2002573005B525D005B495D005B575D005BF9
:1028D200455D00282573292000766D656173757248
:0C28E200650066756E6374696F6E7300AC
:00000001FF
