:100000000C94D4040C94F1040C94F1040C94F104B9
:100010000C94F1040C94F1040C94F1040C94F1048C
:100020000C94F1040C94F1040C94F1040C94F1047C
:100030000C94F1040C94F3040C94F1040C94F1046A
:100040000C94F1040C94F1040C94F1040C94F1045C
:100050000C94F1040C94F1040C94F1045265636562
:1000600069766564206120636F6D6D616E642074D4
:1000700065726D696E61746F722E0D0A00436F6D4B
:100080006D616E642070726F636573732073706549
:100090006564206572726F72210D0A00506172737F
:1000A000652062756666657220636F6E7461696E45
:1000B0007320272573272E0D0A00256320203C2D51
:1000C0002D20636F7069656420746F2072656365AD
:1000D000697665206275666665722E2020526563BA
:1000E000656976656420636F756E74206973202579
:1000F000642E0D0A00526563656976656420636845
:1001000061726163746572206E756D6265722061E3
:10011000626F7665206C696D69742E0D0A00486502
:100120006C6C6F20796F757273656C66210D0A00B7
:100130000068656C70202D2D205072696E742074DB
:10014000686520636F6D6D616E642068656C702EEC
:100150000D0A00246375726F6666202D2D2053658D
:1001600074207468652063757272656E74206F66A2
:10017000667365742076616C75652E0D0A202020EB
:1001800020417267756D656E743A2031362D626953
:1001900074207369676E656420696E746567657243
:1001A0002E0D0A2020202052657475726E3A204E62
:1001B0006F6E650D0A0024637572736C70202D2DAF
:1001C00020536574207468652063757272656E745F
:1001D00020736C6F70652076616C75652E0D0A203A
:1001E000202020417267756D656E743A2031362D7E
:1001F00062697420756E7369676E656420696E74D8
:10020000656765720D0A2020202052657475726E34
:100210003A204E6F6E650D0A00766F6C743F202D8C
:100220002D205175657279207468652063616C6951
:1002300062726174656420766F6C74616765206DAD
:100240006561737572656D656E742E0D0A202020D0
:1002500020417267756D656E743A204E6F6E650D44
:100260000A2020202052657475726E3A20566F6CF9
:100270007461676520696E206D696C6C69766F6C5E
:1002800074730D0A0076636F756E74733F202D2DA5
:1002900020517565727920746865207261772041FC
:1002A000444320636F756E74732066726F6D2074A3
:1002B000686520766F6C74616765206D6561737524
:1002C00072656D656E742E0D0A20202020417267C4
:1002D000756D656E743A204E6F6E650D0A20202094
:1002E0002052657475726E3A2031362D6269742021
:1002F000756E7369676E656420686578206E756DCC
:100300006265720D0A00766F6666736574202D2D26
:10031000205365742074686520766F6C746167651E
:10032000206D6561737572656D656E74206F6666AC
:100330007365742063616C6962726174696F6E20A9
:10034000666163746F722E0D0A202020204172674F
:10035000756D656E743A2031362D62697420756E44
:100360007369676E656420686578206E756D626577
:10037000720D0A2020202052657475726E3A204E4C
:100380006F6E650D0A0076736C6F7065202D2D20E1
:100390005365742074686520766F6C74616765209E
:1003A0006D6561737572656D656E7420736C6F70C9
:1003B000652063616C6962726174696F6E20666149
:1003C00063746F722E0D0A20202020417267756DB4
:1003D000656E743A2031362D62697420756E7369CA
:1003E000676E656420686578206E756D6265720D54
:1003F0000A2020202052657475726E3A204E6F6E6E
:10040000650D0A006C6F677265673F202D2D2051C6
:100410007565727920746865206C6F6767657220F6
:10042000656E61626C652072656769737465722EB2
:100430000D0A20202020417267756D656E743A2088
:100440004E6F6E650D0A2020202052657475726E05
:100450003A2031362D62697420756E7369676E6556
:100460006420686578206E756D6265720D0A006C97
:100470006F67726567202D2D205365742074686541
:10048000206C6F6767657220656E61626C652072B3
:10049000656769737465722E0D0A202020204172F1
:1004A00067756D656E743A2031362D6269742075FA
:1004B0006E7369676E656420686578206E756D621D
:1004C00065720D0A2020202052657475726E3A20E4
:1004D0004E6F6E650D0A006C6F676C6576656C20FB
:1004E0002D2D2053657420746865206C6F676765D7
:1004F00072207365766572697479206C6576656CB7
:100500002E0D0A20202020417267756D656E743AA9
:1005100020302D330D0A2020202052657475726E14
:100520003A204E6F6E650D0A0068656C6C6F202D69
:100530002D205072696E7420612067726565746940
:100540006E672E0D0A20202020417267756D656E42
:10055000743A204E6F6E650D0A202020205265747B
:1005600075726E3A2041206772656574696E670D19
:100570000A00417267756D656E742073697A652033
:1005800069732025642E0D0A00546865207061721D
:10059000736520627566666572206973206C6F638F
:1005A0006B65642E0D0A0054686520636F6D6D6184
:1005B0006E6420636F6E7461696E73206120737066
:1005C0006163652E0D0A0054686520636F6D6D616F
:1005D0006E64277320617267756D656E7420697330
:1005E00020272573272E0D0A00436F6D6D616E6401
:1005F0002027257327207265636F676E697A6564AB
:100600002E0D0A00417267756D656E7420746F203F
:1006100027257327206973206F7574206F662072F9
:10062000616E67652E0D0A00417267756D656E74A7
:1006300020746F20272573272069732077697468D9
:10064000696E206C696D6974732E0D0A0049676EBE
:100650006F72696E6720617267756D656E74206672
:100660006F7220636F6D6D616E6420272573272E76
:100670000D0A00556E7265636F676E697A65642056
:10068000636F6D6D616E643A20272573272E0D0A06
:1006900000457865637574696E6720636F6D6D6181
:1006A0006E642077697468206E6F20617267756D63
:1006B000656E742E0D0A00457865637574696E6702
:1006C00020636F6D6D616E64207769746820686562
:1006D0007820617267756D656E742E0D0A0054681E
:1006E0006520617267756D656E742076616C7565E5
:1006F0002069732025752E0D0A0045786563757491
:10070000696E6720636F6D6D616E642077697468D0
:1007100020756E7369676E656420696E74206172FE
:1007200067756D656E742E0D0A0045786563757486
:10073000696E6720636F6D6D616E642077697468A0
:10074000207369676E656420696E742061726775D5
:100750006D656E742E0D0A004E6F2068616E646CBC
:1007600065722073706563696669656420666F727F
:1007700020257320617267756D656E742E0D0A00F9
:100780004C6F6767696E672073657420746F206CA7
:100790006576656C2025690D0A004C6F67206C65D5
:1007A00076656C202575206973206E6F74207265E4
:1007B000636F676E697A65642E0D0A004C6F676718
:1007C000657220656E61626C65207265676973741D
:1007D00065722073657420746F20307825782E0D33
:1007E0000A00307825780D0A004E6F77206C6F670D
:1007F00067696E672073797374656D2025730D0AC0
:1008000000496E697469616C697A696E6720414458
:10081000430D0A004A5441472064697361626C6564
:10082000640D0A00537769746368656420746F20EF
:10083000414443206368616E6E656C2025690D0A32
:1008400000307825780D0A0025750D0A00496E697B
:100850007469616C697A696E67207274630D0A004D
:1008600045787065637465642031306D732C206742
:100870006F742025696D730D0A002C01C8000000FB
:10088000C8000100C8000000C800FA002C010000E8
:1008900064006E00780082008C009600A000AA0020
:1008A000B400BE00C8000000496E697469616C69DB
:1008B0007A696E6720736F756E640D0A00436F6D01
:1008C000706172652076616C756520697320256999
:1008D0000D0A00506C6179656420666F722025698D
:1008E000206D730D0A0057726F746520256920749E
:1008F0006F20616464726573732025690D0A00526C
:100900006561642025692066726F6D206164647280
:100910006573732025690D0A0057726974696E67E3
:100920002063757272656E7420736C6F70652076CB
:10093000616C7565206F662025750D0A0057726918
:1009400074696E672063757272656E74206F666677
:100950007365742076616C7565206F662025690D5E
:100960000A0043757272656E7420736C6F70652037
:1009700076616C75652069732025752070412F6341
:100980006F756E740D0A0043757272656E74206F18
:1009900066667365742076616C75652069732025C1
:1009A000692070410D0A000011241FBECFEFD4E072
:1009B000DEBFCDBF12E0A0E0B1E0E6E8F7E202C0A2
:1009C00005900D92A037B107D9F713E0A0E7B2E088
:1009D00001C01D92A031B107E1F70E944D0E0C94A9
:1009E000C1130C9400001F920F920FB60F921124A6
:1009F0002F933F934F935F936F937F938F939F9327
:100A0000AF93BF93CF93DF93EF93FF93E0910001F8
:100A1000F09101010488F589E02D8091C600808362
:100A2000E0910001F0910101A489B5898C918D308C
:100A300009F052C08CE590E09F938F931F92C5EA16
:100A4000D1E0DF93CF930E948109E0910001F09102
:100A500001010F900F900F900F900F9084A58823A5
:100A600009F477C085A5813049F48DE790E09F9324
:100A70008F9383E08F93DF93CF9358C00488F589D9
:100A8000E02D10828091000190910101BC014696F9
:100A90000E948710E0910001F091010121E025A75B
:100AA000CF0146969F938F938CE990E09F938F930D
:100AB0001F92DF93CF930E94810980910001909152
:100AC00001010E942C068DB79EB707960FB6F894C9
:100AD0009EBF0FBE8DBF3DC084A58F5F84A71F92B0
:100AE0008F938C911F928F938AEB90E09F938F93BB
:100AF0001F92C5EAD1E0DF93CF930E948109E09174
:100B00000001F09101018DB79EB709960FB6F894D8
:100B10009EBF0FBE8DBF84A58331B0F085EF90E0FE
:100B20009F938F9383E08F93DF93CF930E948109EC
:100B300080910001909101010E942C060F900F906E
:100B40000F900F900F9005C0848995890196958B21
:100B5000848BFF91EF91DF91CF91BF91AF919F91E6
:100B60008F917F916F915F914F913F912F910F9056
:100B70000FBE0F901F9018958EE191E09F938F9379
:100B80000E9448080F900F900895CF93DF93EC01D7
:100B900009C088858F938F818F930E94480829967A
:100BA0000F900F908D819E81892B99F7DF91CF91C6
:100BB000089584E091E00C94C505CF93DF93FC0188
:100BC00084E1EF01982F19929A95E9F7E48BF58B60
:100BD000DF015696ED0119928A95E9F7B3A7A2A70E
:100BE00014A615A6DF91CF9108950F931F93CF936D
:100BF000DF938B01DC019A96EC919A979B96FC917E
:100C0000EF0109900020E9F72197CE1BDF0BCE0101
:100C100099279F938F9382E795E09F938F9381E02D
:100C20008F938CEA91E09F938F930E948109EDB797
:100C3000FEB737960FB6F894FEBF0FBEEDBFD801D2
:100C400014968C918C1710F080E001C08FEFDF912B
:100C5000CF911F910F910895CF93DF93FC0184E111
:100C6000EF0119928A95E9F7E48BF58B14A6DF91D1
:100C7000CF910895BF92CF92DF92EF92FF920F93A0
:100C80001F93CF93DF938C016B01EA01DC01129675
:100C9000FC9012971396EC9065ED71E08F2D9E2DD0
:100CA0000E947E100097C9F481E996E09F938F938C
:100CB00081E08F938CEA91E09F938F930E9481094A
:100CC0000F900F900F900F900F90D8011596ED9107
:100CD000FC91169780E090E06EC06AED71E08F2D78
:100CE0009E2D0E947E10009741F587EB96E09F9322
:100CF0008F93BB24B394BF928CEAE82E81E0F82E48
:100D0000FF92EF920E948109C6010E94770A8883B0
:100D100099839F938F938EED96E09F938F93BF92CD
:100D2000FF92EF920E948109EDB7FEB73C960FB695
:100D3000F894FEBF0FBEEDBF38C060EE71E08F2D9E
:100D40009E2D0E947E10009791F48AEF96E09F936B
:100D50008F9381E08F938CEA91E09F938F930E9411
:100D60008109C6010E94AA0A9983888319C067EE87
:100D700071E08F2D9E2D0E947E10009731F58AE242
:100D800097E09F938F9381E08F938CEA91E09F93FC
:100D90008F930E948109C6010E94AC0A9B838A83BB
:100DA0000F900F900F900F900F90D8011596ED9126
:100DB000FC911697CE01DF91CF911F910F91FF907B
:100DC000EF90DF90CF90BF900994EF92FF9288E56B
:100DD00097E09F938F9383E08F938CEA91E09F93AA
:100DE0008F930E948109EDB7FEB737960FB6F8943E
:100DF000FEBF0FBEEDBFDF91CF911F910F91FF900E
:100E0000EF90DF90CF90BF900895BF92CF92DF9286
:100E1000EF92FF920F931F93CF93DF93EC018B011F
:100E2000BDA481E0B81206C189E895E09F938F9335
:100E3000BF922CEAC22E21E0D22EDF92CF920E94E6
:100E400081097E0196E1E90EF11C60E270E0C701C4
:100E50000E9473109BA78AA70F900F900F900F907E
:100E60000F90892BA9F187EA95E09F938F93BF920A
:100E7000DF92CF920E948109EAA5FBA510828AA584
:100E80009BA501969BA78AA70F900F900F900F909C
:100E90000F9003C03196FBA7EAA7EAA5FBA58081C6
:100EA0008032C1F3FF93EF9387EC95E09F938F938C
:100EB00081E08F938CEA91E09F938F930E94810948
:100EC000EDB7FEB737960FB6F894FEBF0FBEEDBF75
:100ED000C7010E94AE0A91C0F801D080C1806D2D7B
:100EE0007C2DC7010E947E10009709F084C0CF922C
:100EF000DF9289EE95E09F938F93DD24D394DF9268
:100F00009CEAE92E91E0F92EFF92EF920E9481096E
:100F100065ED71E0F801828193810E947E109C0151
:100F20008DB79EB707960FB6F8949EBF0FBE8DBFC4
:100F3000232BD9F1B801CE010E94F505F8012181DA
:100F400090818823A9F02F939F9384E096E09F934C
:100F50008F9383E08F93FF92EF920E9481098DB768
:100F60009EB707960FB6F8949EBF0FBE8DBF41C0C7
:100F70002F939F9388E296E09F938F93DF92FF9247
:100F8000EF920E94810940910201509103016AA5EC
:100F90007BA5C8010E943A06EDB7FEB737960FB69B
:100FA000F894FEBF0FBEEDBF24C08AA59BA5892B78
:100FB000B9F0F80181818F9380818F938DE496E061
:100FC0009F938F9382E08F93FF92EF920E9481090B
:100FD0008DB79EB707960FB6F8949EBF0FBE8DBF14
:100FE000409102015091030160E070E0C8010E944D
:100FF0003A061DA61FC0075F1F4FF8018581968125
:10100000892B09F069CFFF92EF9283E796E09F93D7
:101010008F9383E08F938CEA91E09F938F930E944C
:1010200081091DA68DB79EB707960FB6F8949EBF8F
:101030000FBE8DBFDF91CF911F910F91FF90EF9069
:10104000DF90CF90BF9008958091C00087FFFCCFC4
:101050008091C60008959091C00095FFFCCF8093C9
:10106000C60008950F931F93CF93DF93EC0100E028
:1010700010E08991882339F00F5F1F4F0E942B08E1
:1010800006391105B1F7DF91CF911F910F910895A6
:10109000CF93DF93CDB7DEB7C659D1090FB6F89419
:1010A000DEBF0FBECDBFFE01E556FF4F419151910E
:1010B0009F0166E970E0CE0101960E94C610CE0144
:1010C00001960E94320880E0CA56DF4F0FB6F894AE
:1010D000DEBF0FBECDBFDF91CF910895CF93DF93D9
:1010E000CDB7DEB7C659D1090FB6F894DEBF0FBE33
:1010F000CDBFFE01E556FF4F61917191AF01CE0169
:1011000001960E94F210CE0101960E94320880E002
:10111000CA56DF4F0FB6F894DEBF0FBECDBFDF91CA
:10112000CF9108951F93CF93DF93EC01FE011491AB
:10113000812F0E942B0821961111F8CFDF91CF91BA
:101140001F91089582E08093C0001092C50087E649
:101150008093C400E1ECF0E088E1808380818068C6
:101160008083808180838081808386E08093C20039
:1011700008951092C5008CE08093C4000895E0911A
:101180009401F09195018FEF9FEF9183808381E02F
:1011900082830895E0919401F091950181818F936C
:1011A00080818F9382EE97E09F938F930E944808EF
:1011B0000F900F900F900F900895E0919401F0918F
:1011C00095011182108208959F938F9383E492E09A
:1011D0009F938F930E946E080F900F900F900F9027
:1011E00008957F928F929F92AF92BF92CF92DF929B
:1011F000EF92FF920F931F93CF93DF93CDB7DEB79C
:10120000E2970FB6F894DEBF0FBECDBF5C01762E1D
:101210006A01E0909401F090950100E711E08824C4
:101220008394912C53C0C5010E947E10009709F051
:101230004BC0C401F801028002C0880F991F0A94B4
:10124000E2F7F7012081318182239323892BE1F199
:10125000F1E07F1661F07F1638F082E0781651F0E9
:1012600093E0791212C00BC086E492E00CC08AE4CD
:1012700092E009C00E94360D8EE492E004C00E9404
:101280003A0D82E592E00E94E408F80181818F9393
:1012900080818F9386E592E09F938F931F9282E3E4
:1012A0008F938E010F5F1F4F1F930F930E94961015
:1012B000C8010E94E408C6010E94E4080FB6F89431
:1012C000DEBF0FBECDBF09C00D5F1F4FF8016081AB
:1012D0007181FB0180818111A6CFE2960FB6F8944F
:1012E000DEBF0FBECDBFDF91CF911F910F91FF9059
:1012F000EF90DF90CF90BF90AF909F908F907F90B6
:1013000008951F93CF93DF93CDB7DEB7E2970FB663
:10131000F894DEBF0FBECDBF1AADE0919401F091FD
:10132000950180819181892BB1F08281181798F005
:10133000CE01CD969C014BAD5CAD62E370E0CE0179
:1013400001960E94C610AE014F5F5F4F612F88ADBE
:1013500099AD0E94F108E2960FB6F894DEBF0FBE79
:10136000CDBFDF91CF911F910895EF92FF920F9320
:101370001F93CF93DF937C0100E711E033C0BE01E0
:10138000C7010E947E10009759F5E0919401F091F9
:10139000950121E030E0D80112960C9002C0220F96
:1013A000331F0A94E2F780819181822B932B9183E2
:1013B0008083DF93CF9389EE97E09F938F9381E0B3
:1013C0008F938EE991E09F938F930E9481098DB74F
:1013D0009EB707960FB6F8949EBF0FBE8DBF08C08C
:1013E0000D5F1F4FD801CD91DC9188818111C7CF4E
:1013F000DF91CF911F910F91FF90EF900895CF93C0
:10140000DF93EC0189818F9388818F938CEB97E038
:101410009F938F9381E08F938EE991E09F938F93B9
:101420000E948109E0919401F09195018881998150
:10143000918380838DB79EB707960FB6F8949EBFB1
:101440000FBE8DBFDF91CF910895E0919401F0918F
:10145000950182831F928F9380E897E09F938F93EB
:1014600081E08F938EE991E09F938F930E94810991
:101470008DB79EB707960FB6F8949EBF0FBE8DBF6F
:1014800008958130910551F038F08230910541F096
:101490008330910551F406C080E005C081E003C0AF
:1014A00082E001C083E00C94250A9F938F938AE920
:1014B00097E09F938F9383E08F938EE991E09F93C2
:1014C0008F930E9481098DB79EB707960FB6F89447
:1014D0009EBF0FBE8DBF089580538A3038F087506D
:1014E000803120F08052803108F080E00895EF9242
:1014F000FF920F931F93CF93DF93FC010190002085
:10150000E9F73197E81BF90BC82FD92F00E010E05D
:10151000EE2EE80E14C089910E946C0A482F50E00C
:101520002F2D30E021503109220F331F220F331F9E
:1015300002C0440F551F2A95E2F7040F151FFE2C19
:10154000FC1A49F7C801DF91CF911F910F91FF90CD
:10155000EF9008950C944D100C944D10CF93DF93A1
:10156000EC0104C090E00E946B1089938881811186
:10157000F9CFDF91CF91089580E88093610083E0F7
:10158000809361001092700088E08093B60088EC30
:101590008093B30010926E0081E08093810080936D
:1015A000B0008091B6009091B60081709470892B44
:1015B000C1F78AE090E040E355E7FA013197F1F78F
:1015C0000197D9F74FEF51E0F89446BB47BB109213
:1015D0008500109284001092B20087B38823E9F34B
:1015E00010928100789486B3811115C08091840097
:1015F00090918500392F20E0B901680F711DCB0152
:101600008B3678E1970724F080916600815006C000
:10161000883E97413CF4809166008F5F809366001E
:1016200080E001C081E050938100882369F2089531
:10163000E1E6F0E080E8808310820895E091960171
:10164000F0919701918380830895E0919601F09144
:1016500097019383828308951F93CF93DF9381E053
:1016600098E09F938F9311E01F93C4EBD1E0DF9339
:10167000CF930E94810985B7806885BF85B7806850
:1016800085BF0F900F900F900F900F9005B607FE3B
:101690000EC084E198E09F938F931F93DF93CF93C5
:1016A0000E9481090F900F900F900F900F9080E48F
:1016B00080937C0080917C008F7D80937C00809162
:1016C0007C00816080937C0086E880937A00809122
:1016D0007A008F7D80937A0080917A008064809375
:1016E0007A0080917A0084FFFCCFDF91CF911F9127
:1016F0000895ECE7F0E09081907E90839081982BA4
:1017000090831F928F9384E298E09F938F9381E060
:101710008F9384EB91E09F938F930E9481098DB703
:101720009EB707960FB6F8949EBF0FBE8DBF089563
:1017300080917A00806880937A0080917A0080643A
:1017400080937A0080917A0084FFFCCF209178000A
:1017500030917900932F80E0AC01420F511DCA01F6
:1017600008950E94980B9F938F9381E498E09F9334
:101770008F930E9448080F900F900F900F9008953C
:101780000E94980BE0919601F091970120813181A0
:10179000AC01429FC001439F900D529F900D1124B8
:1017A00024E0969587952A95E1F722813381820F6F
:1017B000931F9F938F9388E498E09F938F930E9449
:1017C00048080F900F900F900F9008958DE498E0C7
:1017D0009F938F9381E08F938EEB91E09F938F93F4
:1017E0000E94810988E08093B6008091B000877BD9
:1017F0008093B0008091B0008B7F8093B000809187
:10180000B00083608093B0000F900F900F900F9006
:101810000F908091B6009091B60081709470892BE2
:10182000C1F787E28093890080E18093880080E09F
:101830000CC00E94980C0E94A70C1092B2000E944B
:101840009E0CB19BFECF8091B200982F995093309F
:1018500080F71F928F9380E698E09F938F9381E0AB
:101860008F938EEB91E09F938F930E9481098DB7A8
:101870009EB707960FB6F8949EBF0FBE8DBF089512
:101880008091B2000895CF93DF93A091B20020E041
:1018900030E0EFEFF0E016C0B091B2006B2F70E0D7
:1018A0004A2F50E0BA1728F0641B750B260F371F1C
:1018B00008C0EF01C41BD50BAE01460F571F240F04
:1018C000351FAB2F2817390738F3C901DF91CF91A6
:1018D000089588EA98E09F938F9381E08F9388EB37
:1018E00091E09F938F930E948109E1E8F0E080816D
:1018F0008A7F808380818260808380818F7E8083E5
:10190000808188608083E0E8F0E080818F77808349
:1019100080818064808380818C7F808310928900A5
:10192000109288000F900F900F900F900F900895D5
:10193000E1E8F0E08081887F80830895E1E8F0E0CD
:1019400080818A7F80838081826080830895109265
:1019500085001092840086B3827086BB0895AF9292
:10196000BF92CF92DF92FF920F931F93CF93DF939B
:1019700000D0CDB7DEB78C015B010E94980C0E94AD
:10198000A70C259AC8010A9787319E44E0F4B80154
:10199000660F771F80E090E00E94BF0F9B01AC01B3
:1019A00060E074E284E799E40E942B0F20E030E0CD
:1019B00040E05FE30E94C70E0E94930F6B0181E03D
:1019C000C81AD10803C0CC24CA94DC2CDF92CF9271
:1019D0008DEB98E09F938F93FF24F394FF9208EB95
:1019E00011E01F930F930E948109D0928900C09249
:1019F00088000E949E0CC5010E94430C89839A8333
:101A00000E94980C9A819F9389818F9383ED98E02F
:101A10009F938F93FF921F930F930E9481090FB69C
:101A2000F894DEBF0FBECDBF0F900F90DF91CF9126
:101A30001F910F91FF90DF90CF90BF90AF900895CE
:101A4000CF93DF93EC0105C064E670E00E94AF0C19
:101A50002296FE0125913491C9010097A9F7DF91E3
:101A6000CF91089588E898E00C94200D80E898E0E4
:101A70000C94200D8AE798E00C94200DF894F999C5
:101A8000FECF92BD81BD60BDFA9AF99A78949F937A
:101A90008F931F926F9386EE98E09F938F9381E0D0
:101AA0008F9382EC91E09F938F930E9481098DB771
:101AB0009EB709960FB6F8949EBF0FBE8DBF0895CE
:101AC000F894F999FECF92BD81BDF89A789420B52B
:101AD0009F938F931F922F938FEF98E09F938F93F5
:101AE00081E08F9382EC91E09F938F930E94810914
:101AF00080B52DB73EB7275F3F4F0FB6F8943EBF76
:101B00000FBE2DBF0895249A08952C9A08952C98FD
:101B100008952C990C94870D0C94850D08951F93AE
:101B2000CF93DF931F92CDB7DEB7192F9F938F937B
:101B300029E139E03F932F9391E09F9321ED31E02C
:101B40003F932F9389830E9481098981682F84E6BE
:101B500090E00E943E0D0FB6F894DEBF0FBECDBFE1
:101B6000612F85E690E00F90DF91CF911F910C944B
:101B70003E0DFC01808191810C948F0D1F93CF93BA
:101B8000DF931F92CDB7DEB7192F9F938F932DE36D
:101B900039E03F932F9391E09F9321ED31E03F9304
:101BA0002F9389830E9481098981682F86E690E0BE
:101BB0000E943E0D0FB6F894DEBF0FBECDBF612F61
:101BC00087E690E00F90DF91CF911F910C943E0D2E
:101BD000FC01828193810C94BE0D1F93CF93DF9300
:101BE000EC0184E690E00E94600D182F85E690E0FD
:101BF0000E94600D382F20E0210F311D398328838A
:101C000086E690E00E94600D182F87E690E00E9423
:101C1000600D382F20E0210F311D3B832A83DF9197
:101C2000CF911F9108951F93CF93DF9380919C01D3
:101C300090919D010E94ED0DE0919C01F0919D011C
:101C400081818F9380818F9382E699E09F938F9318
:101C500011E01F93C9ECD1E0DF93CF930E9481097B
:101C6000E0919C01F0919D0183818F9382818F93FC
:101C700087E899E09F938F931F93DF93CF930E9400
:101C800081098DB79EB70E960FB6F8949EBF0FBE12
:101C90008DBFDF91CF911F910895CF93DF931F9256
:101CA000CDB7DEB778940E94180B0E94A2080E945C
:101CB000B9080E94BF080E94DD088EE991E00E94E9
:101CC000B50985EA91E00E94B5098CEA91E00E948D
:101CD000B50984EB91E00E94B50988EB91E00E9480
:101CE000B5098EEB91E00E94B50982EC91E00E946B
:101CF000B50989EC91E00E94B50981ED91E00E945F
:101D0000B5090E942C0B84E00E94790B0E94690C9B
:101D10000E94E60B80910001909101010E94DD0577
:101D20000E94830D0E94130E0E94320DC12CD12CF3
:101D3000F12C0FEF10E001C0F82E64E071E080910B
:101D40000001909101010E9405070E94400C482F5C
:101D500050E02F2D30E08F1528F0421B530BC40E9E
:101D6000D51E08C0B801621B730B9B01240F351FE1
:101D7000C20ED31E78EEC71673E0D706E8F2898349
:101D80000E94890DC12CD12C8981D6CF5058BB27F8
:101D9000AA270ED048C139D130F03ED120F031F41D
:101DA0009F3F11F41EF42EC10EF4E095E7FB24C111
:101DB000E92F4AD180F3BA176207730784079507A2
:101DC00018F071F49EF562C10EF4E0950B2EBA2F57
:101DD000A02D0B01B90190010C01CA01A001112431
:101DE000FF27591B99F0593F50F4503E68F11A16DD
:101DF000F040A22F232F342F4427585FF3CF46956E
:101E000037952795A795F0405395C9F77EF41F168F
:101E1000BA0B620B730B840BBAF09150A1F0FF0F59
:101E2000BB1F661F771F881FC2F70EC0BA0F621F45
:101E3000731F841F48F4879577956795B795F79535
:101E40009E3F08F0B3CF9395880F08F09927EE0FC7
:101E50009795879508950CD0E6C0DED040F0D5D098
:101E600030F021F45F3F19F0C7C0511110C1CAC052
:101E7000EBD098F39923C9F35523B1F3951B550B78
:101E8000BB27AA2762177307840738F09F5F5F4F4D
:101E9000220F331F441FAA1FA9F333D00E2E3AF08E
:101EA000E0E830D091505040E695001CCAF729D0A8
:101EB000FE2F27D0660F771F881FBB1F26173707F7
:101EC0004807AB07B0E809F0BB0B802DBF01FF2727
:101ED00093585F4F2AF09E3F510568F08DC0D7C0E0
:101EE0005F3FECF3983EDCF3869577956795B79561
:101EF000F7959F5FC9F7880F911D9695879597F97C
:101F00000895E1E0660F771F881FBB1F62177307F4
:101F10008407BA0720F0621B730B840BBA0BEE1F09
:101F200088F7E095089598D088F09F5790F0B92FE2
:101F30009927B751A0F0D1F0660F771F881F991F1E
:101F40001AF0BA95C9F712C0B13081F09FD0B1E054
:101F500008959CC0672F782F8827B85F39F0B93F64
:101F6000CCF3869577956795B395D9F73EF4909520
:101F70008095709561957F4F8F4F9F4F0895E8949E
:101F800009C097FB3EF490958095709561957F4FC1
:101F90008F4F9F4F9923A9F0F92F96E9BB2793956F
:101FA000F695879577956795B795F111F8CFFAF47F
:101FB000BB0F11F460FF1BC06F5F7F4F8F4F9F4FB0
:101FC00016C0882311F096E911C0772321F09EE80E
:101FD000872F762F05C0662371F096E8862F70E074
:101FE00060E02AF09A95660F771F881FDAF7880F4E
:101FF0009695879597F9089597F99F6780E870E01F
:1020000060E008959FEF80EC089500240A9416166E
:10201000170618060906089500240A9412161306D6
:10202000140605060895092E0394000C11F4882364
:1020300052F0BB0F40F4BF2B11F460FF04C06F5F80
:102040007F4F8F4F9F4F089557FD9058440F551F56
:1020500059F05F3F71F04795880F97FB991F61F02A
:102060009F3F79F087950895121613061406551FA1
:10207000F2CF4695F1DF08C0161617061806991F0D
:10208000F1CF86957105610508940895E894BB2702
:1020900066277727CB0197F90895FC0188279927B0
:1020A000E89421912032E9F3293010F02E30C8F362
:1020B0002B3241F02D3239F4689404C00E948E1006
:1020C000820F911D219120532A30C0F31EF4909568
:1020D00081959F4F08959111089581548A5108F474
:1020E000805E855A0895FC018191861721F088232E
:1020F000D9F7992708953197CF010895FB01DC01A5
:102100008D91019080190110D9F3990B0895FB016D
:10211000DC0101900D920020E1F708957AE0979F8D
:10212000902D879F802D910D11240895AEE0B0E091
:10213000ECE9F0E10C9498130D891E898F89988D34
:1021400026E02C831A83098397FF02C080E090E881
:1021500001979E838D83CE014B96AC01698D7A8D5C
:10216000CE0101960E940E114D815E8157FD0AC07D
:102170002F813885421753070CF49A01F801E20FBA
:10218000F31F10822E96E4E00C94B413AEE0B0E09E
:10219000ECECF0E10C9498138C01CA014EE04C83F6
:1021A0001A83098377FF02C060E070E8615071090B
:1021B0007E836D83A901BC01CE0101960E940E11A0
:1021C0004D815E8157FD0AC02F8138854217530724
:1021D0000CF49A01F801E20FF31F10822E96E4E04E
:1021E0000C94B413AEE0B0E0E8EFF0E10C94981377
:1021F0008C0186E08C831A8309838FEF9FE79E838F
:102200008D83CE0101960E940E11EF81F885E00FBB
:10221000F11F10822E96E4E00C94B413ACE0B0E011
:10222000E4E1F1E10C948A137C016B018A01FC0169
:1022300017821682838181FFC6C188248394912CE2
:102240008C0E9D1EF7019381F60193FD859193FFFE
:1022500081916F01882309F4B2C1853239F493FD6D
:10226000859193FF81916F01853229F4B70190E048
:102270000E940013E7CF512C312C20E02032A8F42B
:102280008B3261F028F4803251F0833271F40BC04C
:102290008D3239F0803349F4216028C022602460F7
:1022A00025C0286023C0206121C027FD27C0382F0A
:1022B00030533A3078F426FF06C0FAE05F9E300DC6
:1022C0001124532E13C08AE0389E300D1124332E72
:1022D00020620CC08E3221F426FD71C1206406C03C
:1022E0008C3611F4206802C0883641F4F60193FD63
:1022F000859193FF81916F018111C0CF982F9554E3
:10230000933018F09052933028F40C5F1F4FFFE386
:10231000F9830DC0833631F0833771F0833509F0CE
:102320005EC023C0F801808189830E5F1F4F442463
:102330004394512C540115C03801F2E06F0E711C0A
:10234000F801A080B18026FF03C0652D70E002C0B7
:102350006FEF7FEFC5012C870E94F5122C018301DE
:102360002C856FE7262E222218C03801F2E06F0E6E
:10237000711CF801A080B18026FF03C0652D70E0BC
:1023800002C06FEF7FEFC5012C870E94EA122C017B
:102390002C8550E8252E222A830123FC1CC006C070
:1023A000B70180E290E00E9400133A94832D90E000
:1023B00048165906A8F30FC0F50127FC859127FEA2
:1023C00081915F01B70190E00E94001331103A94AF
:1023D000F1E04F1A51084114510471F7EDC08436F1
:1023E00011F0893641F5F80127FF07C0608171813E
:1023F000828193810C5F1F4F08C0608171818827A3
:1024000077FD8095982F0E5F1F4F4FE6B42EB222B6
:1024100097FF09C090958095709561957F4F8F4F7C
:102420009F4FF0E8BF2A2AE030E0A4010E942C135D
:10243000A82EA81843C0853731F43FEEB32EB22240
:102440002AE030E024C099EFB92EB2228F36B9F0DD
:1024500020F4883509F0B3C00DC0803721F08837EB
:1024600009F0ADC002C020E1B22AB4FE0BC084E086
:10247000B82A08C024FF09C0E6E0BE2A06C028E04A
:1024800030E005C020E130E002C020E132E0F80198
:10249000B7FE07C060817181828193810C5F1F4FFD
:1024A00006C06081718180E090E00E5F1F4FA40143
:1024B0000E942C13A82EA818FFE7BF22B6FE0BC05F
:1024C0002B2D2E7FA51450F4B4FE0AC0B2FC08C018
:1024D0002B2D2E7E05C07A2C2B2D03C07A2C01C00B
:1024E000752C24FF0DC0FE01EA0DF11D80818033A3
:1024F00011F4297E09C022FF06C07394739404C0AE
:10250000822F867809F0739423FD14C020FF0FC03A
:102510005A2C731460F4530C5718732C08C0B7016D
:1025200080E290E02C870E94001373942C85731432
:10253000B0F304C0731410F4371801C0312C24FF19
:1025400012C0B70180E390E02C870E9400132C8515
:1025500022FF1EC021FF03C088E590E002C088E78B
:1025600090E0B7010CC0822F867891F021FD02C067
:1025700080E201C08BE227FD8DE2B70190E00E946E
:10258000001306C0B70180E390E00E9400135A9444
:10259000A514C0F3AA94F401EA0DF11DB7018081DE
:1025A00090E00E940013A110F5CF06C0B70180E2B1
:1025B00090E00E9400133A943110F8CF43CEF70117
:1025C0002681378102C02FEF3FEFC9012C96E2E14F
:1025D0000C94A613FC010590615070400110D8F7CF
:1025E000809590958E0F9F1F0895FC01615070405B
:1025F00001900110D8F7809590958E0F9F1F089538
:102600000F931F93CF93DF938C01EB018B8181FD9F
:1026100003C00FEF1FEF1AC082FF0DC02E813F8154
:102620008C819D812817390764F4E881F981019331
:10263000F983E88306C0E885F985802F0995892B01
:1026400041F78E819F8101969F838E83C801DF9120
:10265000CF911F910F910895FA01AA27283051F1C7
:10266000203181F1E8946F936E7F6E5F7F4F8F4FC3
:102670009F4FAF4FB1E03ED0B4E03CD0670F781F22
:10268000891F9A1FA11D680F791F8A1F911DA11D07
:102690006A0F711D811D911DA11D20D009F4689440
:1026A0003F912AE0269F11243019305D3193DEF6E8
:1026B000CF010895462F4770405D4193B3E00FD09E
:1026C000C9F7F6CF462F4F70405D4A3318F0495D89
:1026D00031FD4052419302D0A9F7EACFB4E0A6956C
:1026E0009795879577956795BA95C9F7009761058E
:1026F000710508959B01AC010A2E069457954795E4
:1027000037952795BA95C9F7620F731F841F951FD8
:10271000A01D08952F923F924F925F926F927F92E9
:102720008F929F92AF92BF92CF92DF92EF92FF92E1
:102730000F931F93CF93DF93CDB7DEB7CA1BDB0B8D
:102740000FB6F894DEBF0FBECDBF09942A88398832
:1027500048885F846E847D848C849B84AA84B98439
:10276000C884DF80EE80FD800C811B81AA81B98145
:10277000CE0FD11D0FB6F894DEBF0FBECDBFED0159
:062780000895F894FFCF5C
:1027860070029E02EE01D50100BC052905F401FD8B
:102796000101410AD7040102DA0104FF096F0408A6
:1027A60002D50100CA0804041002DA01041E0B86D1
:1027B600031702FD0104250B06031F02D50100B114
:1027C6000B85022802D50100C00B19022E02E0017A
:1027D60005B90DB6013602E70105E80D53013E02C3
:1027E600D50100D90531015B025B02000000300112
:1027F6009E0100AC0101A50102B401035C0204655F
:102806000205B80106BE0107C20108D10109C901C6
:102816000A5B0200A2029801010000000C036C6F23
:10282600676765720072786368617200636F6D6DC9
:10283600616E640061646300736F756E6400727428
:102846006300656570726F6D0063757272656E7494
:102856000063616C006E6F6E6500686578313600E6
:1028660075696E7431360073696E74313600686549
:102876006C6C6F006C6F676C6576656C006865786C
:10288600006C6F67726567006C6F677265673F0003
:1028960076736C6F706500766F6666736574007626
:1028A600636F756E74733F00766F6C743F002463BC
:1028B6007572736C7000246375726F666600686566
:1028C6006C70002573005B525D005B495D005B57D1
:1028D6005D005B455D00282573292000766D6561E6
:1028E600737572650066756E6374696F6E7300004A
:00000001FF
