:100000000C94D2030C94EF030C94EF030C94EF03C5
:100010000C94EF030C94EF030C94EF030C94EF0398
:100020000C94EF030C94EF030C94EF030C94EF0388
:100030000C94EF030C94F1030C94EF030C94EF0376
:100040000C94EF030C94EF030C94EF030C94EF0368
:100050000C94EF030C94EF030C94EF03526563656B
:1000600069766564206120636F6D6D616E642074D4
:1000700065726D696E61746F722E0D0A00436F6D4B
:100080006D616E642070726F636573732073706549
:100090006564206572726F72210D0A00506172737F
:1000A000652062756666657220636F6E7461696E45
:1000B0007320272573272E0D0A00256320203C2D51
:1000C0002D20636F7069656420746F2072656365AD
:1000D000697665206275666665722E2020526563BA
:1000E000656976656420636F756E74206973202579
:1000F000642E0D0A00526563656976656420636845
:1001000061726163746572206E756D6265722061E3
:10011000626F7665206C696D69742E0D0A00486502
:100120006C6C6F20796F757273656C66210D0A00B7
:100130000068656C70202D2D205072696E742074DB
:10014000686520636F6D6D616E642068656C702EEC
:100150000D0A00766F6C743F202D2D20517565724D
:1001600079207468652063616C696272617465648A
:1001700020766F6C74616765206D6561737572655B
:100180006D656E742E0D0A20202020417267756DFA
:10019000656E743A204E6F6E650D0A202020205245
:1001A000657475726E3A20566F6C7461676520696C
:1001B0006E206D696C6C69766F6C74730D0A0076D5
:1001C000636F756E74733F202D2D205175657279A4
:1001D00020746865207261772041444320636F7505
:1001E0006E74732066726F6D2074686520766F6C14
:1001F00074616765206D6561737572656D656E7498
:100200002E0D0A20202020417267756D656E743AAC
:10021000204E6F6E650D0A20202020526574757285
:100220006E3A2031362D62697420756E7369676E7F
:10023000656420686578206E756D6265720D0A00D0
:10024000766F6666736574202D2D20536574207457
:10025000686520766F6C74616765206D6561737584
:1002600072656D656E74206F666673657420636178
:100270006C6962726174696F6E20666163746F721B
:100280002E0D0A20202020417267756D656E743A2C
:100290002031362D62697420756E7369676E6564EE
:1002A00020686578206E756D6265720D0A202020C9
:1002B0002052657475726E3A204E6F6E650D0A009D
:1002C00076736C6F7065202D2D20536574207468D3
:1002D0006520766F6C74616765206D6561737572FA
:1002E000656D656E7420736C6F70652063616C69F9
:1002F00062726174696F6E20666163746F722E0D35
:100300000A20202020417267756D656E743A203195
:10031000362D62697420756E7369676E6564206836
:100320006578206E756D6265720D0A20202020525E
:10033000657475726E3A204E6F6E650D0A006C6FB3
:10034000677265673F202D2D205175657279207485
:100350006865206C6F6767657220656E61626C65A9
:100360002072656769737465722E0D0A2020202043
:10037000417267756D656E743A204E6F6E650D0A39
:100380002020202052657475726E3A2031362D621D
:10039000697420756E7369676E656420686578207E
:1003A0006E756D6265720D0A006C6F67726567200D
:1003B0002D2D2053657420746865206C6F67676508
:1003C0007220656E61626C65207265676973746521
:1003D000722E0D0A20202020417267756D656E74A3
:1003E0003A2031362D62697420756E7369676E65C7
:1003F0006420686578206E756D6265720D0A202034
:10040000202052657475726E3A204E6F6E650D0A2B
:10041000006C6F676C6576656C202D2D20536574BC
:1004200020746865206C6F676765722073657665F8
:1004300072697479206C6576656C2E0D0A20202017
:1004400020417267756D656E743A20302D330D0A48
:100450002020202052657475726E3A204E6F6E65B2
:100460000D0A0068656C6C6F202D2D205072696E2E
:10047000742061206772656574696E672E0D0A20AD
:10048000202020417267756D656E743A204E6F6E44
:10049000650D0A2020202052657475726E3A204145
:1004A000206772656574696E670D0A004172677531
:1004B0006D656E742073697A652069732025642EDA
:1004C0000D0A00546865207061727365206275665C
:1004D000666572206973206C6F636B65642E0D0A0C
:1004E0000054686520636F6D6D616E6420636F6E8C
:1004F0007461696E7320612073706163652E0D0AEB
:100500000054686520636F6D6D616E6427732061B0
:100510007267756D656E7420697320272573272EA9
:100520000D0A00436F6D6D616E64202725732720CF
:100530007265636F676E697A65642E0D0A00417299
:1005400067756D656E7420746F2027257327206989
:1005500073206F7574206F662072616E67652E0D53
:100560000A00417267756D656E7420746F202725CF
:1005700073272069732077697468696E206C696DD0
:100580006974732E0D0A0049676E6F72696E672079
:10059000617267756D656E7420666F7220636F6D32
:1005A0006D616E6420272573272E0D0A00556E722B
:1005B00065636F676E697A656420636F6D6D616EE8
:1005C000643A20272573272E0D0A00457865637548
:1005D00074696E6720636F6D6D616E6420776974F6
:1005E000682068657820617267756D656E742E0D80
:1005F0000A0054686520617267756D656E742076B7
:10060000616C75652069732025752E0D0A0045788B
:1006100065637574696E6720636F6D6D616E6420CC
:1006200077697468206E6F20617267756D656E748E
:100630002E0D0A004C6F6767696E67207365742022
:10064000746F206C6576656C2025690D0A004C6F0F
:1006500067206C6576656C202575206973206E6F48
:1006600074207265636F676E697A65642E0D0A0087
:100670004C6F6767657220656E61626C652072659C
:100680006769737465722073657420746F203078A5
:1006900025782E0D0A00307825780D0A004E6F77E8
:1006A000206C6F6767696E672073797374656D205E
:1006B00025730D0A00496E697469616C697A696E07
:1006C00067204144430D0A004A544147206469733E
:1006D00061626C65640D0A005377697463686564D0
:1006E00020746F20414443206368616E6E656C2006
:1006F00025690D0A00307825780D0A0025750D0A48
:1007000000496E697469616C697A696E67207274F8
:10071000630D0A0045787065637465642031306D3F
:10072000732C20676F742025696D730D0A00C80053
:10073000FA002C01000064006E00780082008C003A
:100740009600A000AA00B400BE00C8000000496ED8
:10075000697469616C697A696E6720736F756E641C
:100760000D0A00436F6D706172652076616C75656E
:100770002069732025690D0A00506C617965642039
:10078000666F72202569206D730D0A0057726F74B1
:100790006520256920746F2061646472657373201D
:1007A0002569000011241FBECFEFD4E0DEBFCDBF0E
:1007B00012E0A0E0B1E0E4E5F2E202C005900D92A3
:1007C000A432B107D9F712E0A4E2B2E001C01D9251
:1007D000A535B107E1F70E94F00B0C9428110C9499
:1007E00000001F920F920FB60F9211242F933F9388
:1007F0004F935F936F937F938F939F93AF93BF9329
:10080000CF93DF93EF93FF93E0910001F09101010B
:100810000488F589E02D8091C6008083E091000175
:10082000F0910101A489B5898C918D3009F052C0F5
:100830008CE590E09F938F931F92C9E8D1E0DF93FE
:10084000CF930E942708E0910001F09101010F90E1
:100850000F900F900F900F9084A5882309F477C014
:1008600085A5813049F48DE790E09F938F9383E0D5
:100870008F93DF93CF9358C00488F589E02D1082C1
:100880008091000190910101BC0146960E94F60DF5
:10089000E0910001F091010121E025A7CF014696EA
:1008A0009F938F938CE990E09F938F931F92DF9398
:1008B000CF930E94270880910001909101010E942E
:1008C0002A058DB79EB707960FB6F8949EBF0FBE48
:1008D0008DBF3DC084A58F5F84A71F928F938C919D
:1008E0001F928F938AEB90E09F938F931F92C9E89A
:1008F000D1E0DF93CF930E942708E0910001F091AF
:1009000001018DB79EB709960FB6F8949EBF0FBE32
:100910008DBF84A58331B0F085EF90E09F938F93D6
:1009200083E08F93DF93CF930E942708809100018B
:10093000909101010E942A050F900F900F900F9047
:100940000F9005C0848995890196958B848BFF91C2
:10095000EF91DF91CF91BF91AF919F918F917F9157
:100960006F915F914F913F912F910F900FBE0F901C
:100970001F9018958EE191E09F938F930E94F0064F
:100980000F900F900895CF93DF93EC0109C08885F5
:100990008F938F818F930E94F00629960F900F906E
:1009A0008D819E81892B99F7DF91CF91089582E007
:1009B00091E00C94C304CF93DF93FC0184E1EF0139
:1009C000982F19929A95E9F7E48BF58BDF015696EB
:1009D000ED0119928A95E9F7B3A7A2A714A615A667
:1009E000DF91CF9108950F931F93CF93DF938B01E6
:1009F000DC019A96EC919A979B96FC91EF010990F5
:100A00000020E9F72197CE1BDF0BCE0199279F939A
:100A10008F938CEA94E09F938F9381E08F9380E98A
:100A200091E09F938F930E942708EDB7FEB737960A
:100A30000FB6F894FEBF0FBEEDBFD80114968C918F
:100A40008C1710F080E001C08FEFDF91CF911F91E4
:100A50000F910895CF93DF93FC0184E1EF01199288
:100A60008A95E9F7E48BF58B14A6DF91CF91089571
:100A7000AF92BF92DF92EF92FF920F931F93CF93AB
:100A8000DF9300D0CDB7DEB78C017B01DC0112967D
:100A9000AD90BC9013976DEA71E0C5010E94ED0D19
:100AA0000097C9F48EE096E09F938F9381E08F9337
:100AB00080E991E09F938F930E9427080F900F90F9
:100AC0000F900F900F90D8011596ED91FC9116970D
:100AD00080E090E032C062EB71E0C5010E94ED0D54
:100AE0000097B9F58BEC95E09F938F93DD24D39419
:100AF000DF9280E9A82E81E0B82EBF92AF920E94CB
:100B00002708C7010E9427099F938F9322EF35E0A2
:100B10003F932F93DF92BF92AF9289839A830E9473
:100B200027080FB6F894DEBF0FBECDBFD8011596CB
:100B3000ED91FC91169789819A810F900F90DF912A
:100B4000CF911F910F91FF90EF90DF90BF90AF90EA
:100B500009940F900F90DF91CF911F910F91FF900B
:100B6000EF90DF90BF90AF900895BF92CF92DF9249
:100B7000EF92FF920F931F93CF93DF93EC018B01C2
:100B8000BDA481E0B812FEC083EC94E09F938F93E4
:100B9000BF9220E9C22E21E0D22EDF92CF920E9496
:100BA00027087E0196E1E90EF11C60E270E0C701C2
:100BB0000E94E20D9BA78AA70F900F900F900F90B5
:100BC0000F90892BA9F181EE94E09F938F93BF92B0
:100BD000DF92CF920E942708EAA5FBA510828AA582
:100BE0009BA501969BA78AA70F900F900F900F903F
:100BF0000F9003C03196FBA7EAA7EAA5FBA5808169
:100C00008032C1F3FF93EF9381E095E09F938F9340
:100C100081E08F9380E991E09F938F930E94270852
:100C2000EDB7FEB737960FB6F894FEBF0FBEEDBF17
:100C3000C7010E945A0989C0F801D080C1806D2D7A
:100C40007C2DC7010E94ED0D009709F07CC0CF926A
:100C5000DF9283E295E09F938F93DD24D394DF921C
:100C600090E9E92E91E0F92EFF92EF920E94270879
:100C70006DEA71E0F801828193810E94ED0D9C0183
:100C80008DB79EB707960FB6F8949EBF0FBE8DBF67
:100C9000232BB9F1B801CE010E94F304F8012181A0
:100CA00090818823A9F02F939F938EE395E09F93E3
:100CB0008F9383E08F93FF92EF920E9427088DB766
:100CC0009EB707960FB6F8949EBF0FBE8DBF39C072
:100CD0002F939F9382E695E09F938F93DF92FF92ED
:100CE000EF920E9427086AA57BA5C8010E943805DB
:100CF000EDB7FEB737960FB6F894FEBF0FBEEDBF47
:100D000020C08AA59BA5892BB9F0F80181818F931A
:100D100080818F9387E895E09F938F9382E08F93F4
:100D2000FF92EF920E9427088DB79EB707960FB6E5
:100D3000F8949EBF0FBE8DBF60E070E0C8010E94B6
:100D400038051DA61FC0075F1F4FF80185819681DA
:100D5000892B09F071CFFF92EF928DEA95E09F9376
:100D60008F9383E08F9380E991E09F938F930E940C
:100D700027081DA68DB79EB707960FB6F8949EBF9D
:100D80000FBE8DBFDF91CF911F910F91FF90EF901C
:100D9000DF90CF90BF9008958091C00087FFFCCF77
:100DA0008091C60008959091C00095FFFCCF80937C
:100DB000C60008950F931F93CF93DF93EC0100E0DB
:100DC00010E08991882339F00F5F1F4F0E94D306EE
:100DD00006391105B1F7DF91CF911F910F91089559
:100DE000CF93DF93CDB7DEB7C659D1090FB6F894CC
:100DF000DEBF0FBECDBFFE01E556FF4F41915191C1
:100E00009F0166E970E0CE0101960E942D0ECE0191
:100E100001960E94DA0680E0CA56DF4F0FB6F894BA
:100E2000DEBF0FBECDBFDF91CF910895CF93DF938B
:100E3000CDB7DEB7C659D1090FB6F894DEBF0FBEE5
:100E4000CDBFFE01E556FF4F61917191AF01CE011B
:100E500001960E94590ECE0101960E94DA0680E0AA
:100E6000CA56DF4F0FB6F894DEBF0FBECDBFDF917D
:100E7000CF9108951F93CF93DF93EC01FE0114915E
:100E8000812F0E94D30621961111F8CFDF91CF91C7
:100E90001F91089582E08093C0001092C50087E6FC
:100EA0008093C400E1ECF0E088E180838081806879
:100EB0008083808180838081808386E08093C200EC
:100EC00008951092C5008CE08093C4000895E091CD
:100ED0007A01F0917B018FEF9FEF9183808381E016
:100EE00082830895E0917A01F0917B0181818F9353
:100EF00080818F9386E996E09F938F930E94F006FE
:100F00000F900F900F900F900895E0917A01F0915B
:100F10007B011182108208959F938F9387EF91E058
:100F20009F938F930E9416070F900F900F900F9032
:100F300008957F928F929F92AF92BF92CF92DF924D
:100F4000EF92FF920F931F93CF93DF93CDB7DEB74E
:100F5000C055D1090FB6F894DEBF0FBECDBF5C01FE
:100F6000762E6A01E0907A01F0907B010CE511E0A9
:100F700088248394912C4FC0C5010E94ED0D0097E9
:100F800009F047C0C401F801028002C0880F991F10
:100F90000A94E2F7F7012081318182239323892B80
:100FA000C1F1F1E07F1661F07F1638F082E078162B
:100FB00051F093E079120EC009C08AEF91E008C0A9
:100FC0008EEF91E005C082E092E002C086E092E000
:100FD0000E948C07F80181818F9380818F938AE032
:100FE00092E09F938F931F9280E58F938E010F5F06
:100FF0001F4F1F930F930E94FD0DC8010E948C0785
:10100000C6010E948C070FB6F894DEBF0FBECDBF9D
:1010100009C00D5F1F4FF80160817181FB01808164
:101020008111AACFC05BDF4F0FB6F894DEBF0FBEB1
:10103000CDBFDF91CF911F910F91FF90EF90DF9087
:10104000CF90BF90AF909F908F907F9008951F9307
:10105000CF93DF93CDB7DEB7C055D1090FB6F89463
:10106000DEBF0FBECDBF69961FAD6997E0917A01D3
:10107000F0917B0180819181892BD9F082811817B1
:10108000C0F0CE01855A9F4F9C016B964EAD5FAD6F
:101090006B9760E570E0CE0101960E942D0EAE01C7
:1010A0004F5F5F4F612F68968EAD9FAD68970E942E
:1010B0009907C05BDF4F0FB6F894DEBF0FBECDBF00
:1010C000DF91CF911F910895EF92FF920F931F939D
:1010D000CF93DF937C010CE511E033C0BE01C70163
:1010E0000E94ED0D009759F5E0917A01F0917B0196
:1010F00021E030E0D80112960C9002C0220F331F7D
:101100000A94E2F780819181822B932B91838083D3
:10111000DF93CF938DE996E09F938F9381E08F9338
:1011200082E891E09F938F930E9427088DB79EB726
:1011300007960FB6F8949EBF0FBE8DBF08C00D5F17
:101140001F4FD801CD91DC9188818111C7CFDF91EC
:10115000CF911F910F91FF90EF900895CF93DF9360
:1011600000D0CDB7DEB79F938F9320E736E03F9353
:101170002F9321E02F9322E831E03F932F9389832F
:101180009A830E942708E0917A01F0917B0189817E
:1011900080839A8191830FB6F894DEBF0FBECDBFD6
:1011A0000F900F90DF91CF910895E0917A01F09127
:1011B0007B0182831F928F9384E396E09F938F93AA
:1011C00081E08F9382E891E09F938F930E9427089C
:1011D0008DB79EB707960FB6F8949EBF0FBE8DBF12
:1011E00008958130910551F038F08230910541F039
:1011F0008330910551F406C080E005C081E003C052
:1012000082E001C083E00C94D5089F938F938EE415
:1012100096E09F938F9383E08F9382E891E09F9372
:101220008F930E9427088DB79EB707960FB6F89444
:101230009EBF0FBE8DBF089580538A3038F087500F
:10124000803120F08052803108F080E00895EF92E4
:10125000FF920F931F93CF93DF93FC010190002027
:10126000E9F73197E81BF90BC82FD92F00E010E000
:10127000EE2EE80E14C089910E941C09482F50E000
:101280002F2D30E021503109220F331F220F331F41
:1012900002C0440F551F2A95E2F7040F151FFE2CBC
:1012A000FC1A49F7C801DF91CF911F910F91FF9070
:1012B000EF900895CF93DF93EC0104C090E00E947B
:1012C000DA0D899388818111F9CFDF91CF9108954B
:1012D00080E88093610083E0809361001092700049
:1012E00088E08093B60088EC8093B30010926E0083
:1012F00081E0809381008093B0008091B60090914E
:10130000B60081709470892BC1F78AE090E040E3C9
:1013100055E7FA013197F1F70197D9F74FEF51E00F
:10132000F89446BB47BB109285001092840010923F
:10133000B20087B38823E9F310928100789486B3D2
:10134000811115C08091840090918500392F20E093
:10135000B901680F711DCB018B3678E1970724F036
:1013600080916600815006C0883E97413CF4809190
:1013700066008F5F8093660080E001C081E050933B
:101380008100882369F20895E1E6F0E080E8808337
:1013900010820895E0917C01F0917D01918380831A
:1013A0000895E0917C01F0917D01938382830895FB
:1013B0001F93CF93DF9385EB96E09F938F9311E07C
:1013C0001F93C8E9D1E0DF93CF930E94270885B728
:1013D000806885BF85B7806885BF0F900F900F909C
:1013E0000F900F9005B607FE0EC088EC96E09F9315
:1013F0008F931F93DF93CF930E9427080F900F9036
:101400000F900F900F9080E480937C0080917C007F
:101410008F7D80937C0080917C00816080937C0034
:1014200086E880937A0080917A008F7D80937A009D
:1014300080917A00806480937A0080917A0084FFA2
:10144000FCCFDF91CF911F910895ECE7F0E0908100
:10145000907E90839081982B90831F928F9388ED3C
:1014600096E09F938F9381E08F9388E991E09F931B
:101470008F930E9427088DB79EB707960FB6F894F2
:101480009EBF0FBE8DBF089580917A0080688093C3
:101490007A0080917A00806480937A0080917A004B
:1014A00084FFFCCF2091780030917900932F80E069
:1014B000AC01420F511DCA0108950E94440A9F9336
:1014C0008F9385EF96E09F938F930E94F0060F9085
:1014D0000F900F900F9008950E94440AE0917C01B4
:1014E000F0917D0120813181AC01429FC001439F79
:1014F000900D529F900D112424E0969587952A9582
:10150000E1F722813381820F931F9F938F938CEF9A
:1015100096E09F938F930E94F0060F900F900F908C
:101520000F90089581E097E09F938F9381E08F93D0
:1015300082EA91E09F938F930E94270888E080932E
:10154000B6008091B000877B8093B0008091B0009E
:101550008B7F8093B0008091B00083608093B00057
:101560000F900F900F900F900F908091B600909178
:10157000B60081709470892BC1F787E2809389004F
:1015800080E18093880080E00CC00E94440B0E94A0
:10159000530B1092B2000E944A0BB19BFECF809178
:1015A000B200982F9950933080F71F928F9384E167
:1015B00097E09F938F9381E08F9382EA91E09F93CE
:1015C0008F930E9427088DB79EB707960FB6F894A1
:1015D0009EBF0FBE8DBF08958091B2000895CF9336
:1015E000DF93A091B20020E030E0EFEFF0E016C012
:1015F000B091B2006B2F70E04A2F50E0BA1728F07C
:10160000641B750B260F371F08C0EF01C41BD50BD9
:10161000AE01460F571F240F351FAB2F2817390770
:1016200038F3C901DF91CF9108958EE497E09F933D
:101630008F9381E08F938CE991E09F938F930E9429
:101640002708E1E8F0E080818A7F808380818260E2
:10165000808380818F7E8083808188608083E0E8C2
:10166000F0E080818F7780838081806480838081B7
:101670008C7F808310928900109288000F900F90C9
:101680000F900F900F900895E1E8F0E08081887F3F
:1016900080830895E1E8F0E080818A7F8083808103
:1016A000826080830895109285001092840086B332
:1016B000827086BB0895CF92DF92FF920F931F93A3
:1016C000CF93DF938C01EB010E94440B0E94530BDC
:1016D000259AB801660F771F80E090E00E944C0DBC
:1016E0009B01AC0160E074E284E799E40E94B80CCD
:1016F00020E030E040E05FE30E94540C0E94200DA7
:101700006B0181E0C81AD108DF92CF9283E697E09F
:101710009F938F93FF24F394FF920CE911E01F93A2
:101720000F930E942708D0928900C09288000E94DF
:101730004A0BCE010E94EF0A9F938F9389E797E0AF
:101740009F938F93FF921F930F930E9427088DB74B
:101750009EB70E960FB6F8949EBF0FBE8DBFDF9159
:10176000CF911F910F91FF90DF90CF900C94440B7D
:10177000CF93DF93EC0105C064E670E00E945B0B41
:101780002296FE0125913491C9010097A9F7DF91B6
:10179000CF9108958EE297E00C94B80BF894F999E4
:1017A000FECF92BD81BD60BDFA9AF99A78949F935D
:1017B0008F931F926F938CE897E09F938F9381E0B4
:1017C0008F9386EA91E09F938F930E9427088DB7AD
:1017D0009EB709960FB6F8949EBF0FBE8DBF0895B1
:1017E00078940E94C4090E944A070E9461070E94DF
:1017F00067070E94850782E891E00E94640889E8F3
:1018000091E00E94640880E991E00E94640888E900
:1018100091E00E9464088CE991E00E94640882EAE9
:1018200091E00E94640886EA91E00E9464080E94A8
:10183000D80984E00E94250A0E94150B0E94920A92
:1018400080910001909101010E94DB040E94CA0B6B
:10185000C0E0D0E0F12C0FEF10E003C0C0E0D0E01A
:10186000F82E62E071E080910001909101010E94E8
:10187000B5050E94EC0A482F50E02F2D30E08F155F
:1018800028F0421B530BC40FD51F08C0B801621BC0
:10189000730B9B01240F351FC20FD31FC83E73E08B
:1018A000D707E0F6DDCF5058BB27AA270ED048C196
:1018B00039D130F03ED120F031F49F3F11F41EF4C5
:1018C0002EC10EF4E095E7FB24C1E92F4AD180F345
:1018D000BA17620773078407950718F071F49EF52D
:1018E00062C10EF4E0950B2EBA2FA02D0B01B901A9
:1018F00090010C01CA01A0011124FF27591B99F086
:10190000593F50F4503E68F11A16F040A22F232F91
:10191000342F4427585FF3CF469537952795A795E1
:10192000F0405395C9F77EF41F16BA0B620B730B88
:10193000840BBAF09150A1F0FF0FBB1F661F771FF9
:10194000881FC2F70EC0BA0F621F731F841F48F4AE
:10195000879577956795B795F7959E3F08F0B3CF34
:101960009395880F08F09927EE0F9795879508951E
:101970000CD0E6C0DED040F0D5D030F021F45F3F8F
:1019800019F0C7C0511110C1CAC0EBD098F3992308
:10199000C9F35523B1F3951B550BBB27AA27621733
:1019A0007307840738F09F5F5F4F220F331F441F78
:1019B000AA1FA9F333D00E2E3AF0E0E830D09150B0
:1019C0005040E695001CCAF729D0FE2F27D0660F9D
:1019D000771F881FBB1F261737074807AB07B0E8DC
:1019E00009F0BB0B802DBF01FF2793585F4F2AF0F2
:1019F0009E3F510568F08DC0D7C05F3FECF3983E25
:101A0000DCF3869577956795B795F7959F5FC9F74E
:101A1000880F911D9695879597F90895E1E0660FD7
:101A2000771F881FBB1F621773078407BA0720F050
:101A3000621B730B840BBA0BEE1F88F7E0950895B9
:101A400098D088F09F5790F0B92F9927B751A0F000
:101A5000D1F0660F771F881F991F1AF0BA95C9F742
:101A600012C0B13081F09FD0B1E008959CC0672FC3
:101A7000782F8827B85F39F0B93FCCF386957795F2
:101A80006795B395D9F73EF49095809570956195DB
:101A90007F4F8F4F9F4F0895E89409C097FB3EF406
:101AA00090958095709561957F4F8F4F9F4F9923AB
:101AB000A9F0F92F96E9BB279395F6958795779529
:101AC0006795B795F111F8CFFAF4BB0F11F460FFE9
:101AD0001BC06F5F7F4F8F4F9F4F16C0882311F041
:101AE00096E911C0772321F09EE8872F762F05C055
:101AF000662371F096E8862F70E060E02AF09A95F0
:101B0000660F771F881FDAF7880F9695879597F9E4
:101B1000089597F99F6780E870E060E008959FEF6F
:101B200080EC089500240A94161617061806090674
:101B3000089500240A941216130614060506089543
:101B4000092E0394000C11F4882352F0BB0F40F4CB
:101B5000BF2B11F460FF04C06F5F7F4F8F4F9F4F0B
:101B6000089557FD9058440F551F59F05F3F71F08D
:101B70004795880F97FB991F61F09F3F79F08795F4
:101B80000895121613061406551FF2CF4695F1DF7D
:101B900008C0161617061806991FF1CF869571050D
:101BA000610508940895E894BB2766277727CB0141
:101BB00097F908959111089581548A5108F4805E2F
:101BC000855A0895FC018191861721F08823D9F761
:101BD000992708953197CF010895FB01DC018D917C
:101BE000019080190110D9F3990B0895FB01DC01D4
:101BF00001900D920020E1F70895AEE0B0E0E3E03F
:101C0000FEE00C94FF100D891E898F89988D26E0C7
:101C10002C831A83098397FF02C080E090E8019724
:101C20009E838D83CE014B96AC01698D7A8DCE015A
:101C300001960E94750E4D815E8157FD0AC02F816D
:101C40003885421753070CF49A01F801E20FF31F8D
:101C500010822E96E4E00C941B11AEE0B0E0E3E3BA
:101C6000FEE00C94FF108C01CA014EE04C831A83F5
:101C7000098377FF02C060E070E8615071097E83DC
:101C80006D83A901BC01CE0101960E94750E4D81A4
:101C90005E8157FD0AC02F813885421753070CF427
:101CA0009A01F801E20FF31F10822E96E4E00C94E3
:101CB0001B11AEE0B0E0EFE5FEE00C94FF108C01EC
:101CC00086E08C831A8309838FEF9FE79E838D8341
:101CD000CE0101960E94750EEF81F885E00FF11F8D
:101CE00010822E96E4E00C941B11ACE0B0E0EBE720
:101CF000FEE00C94F1107C016B018A01FC0117825B
:101D00001682838181FFC6C188248394912C8C0E16
:101D10009D1EF7019381F60193FD859193FF8191BB
:101D20006F01882309F4B2C1853239F493FD85919E
:101D300093FF81916F01853229F4B70190E00E94F1
:101D40006710E7CF512C312C20E02032A8F48B32E1
:101D500061F028F4803251F0833271F40BC08D327F
:101D600039F0803349F4216028C02260246025C006
:101D7000286023C0206121C027FD27C0382F3053A1
:101D80003A3078F426FF06C0FAE05F9E300D112449
:101D9000532E13C08AE0389E300D1124332E20625A
:101DA0000CC08E3221F426FD71C1206406C08C3631
:101DB00011F4206802C0883641F4F60193FD859144
:101DC00093FF81916F018111C0CF982F955493306B
:101DD00018F09052933028F40C5F1F4FFFE3F98303
:101DE0000DC0833631F0833771F0833509F05EC062
:101DF00023C0F801808189830E5F1F4F44244394E0
:101E0000512C540115C03801F2E06F0E711CF8011D
:101E1000A080B18026FF03C0652D70E002C06FEF87
:101E20007FEFC5012C870E945C102C0183012C855B
:101E30006FE7262E222218C03801F2E06F0E711CC7
:101E4000F801A080B18026FF03C0652D70E002C0BC
:101E50006FEF7FEFC5012C870E9451102C012C855C
:101E600050E8252E222A830123FC1CC006C0B7019E
:101E700080E290E00E9467103A94832D90E048162B
:101E80005906A8F30FC0F50127FC859127FE819123
:101E90005F01B70190E00E94671031103A94F1E0C1
:101EA0004F1A51084114510471F7EDC0843611F0F6
:101EB000893641F5F80127FF07C060817181828171
:101EC00093810C5F1F4F08C060817181882777FD67
:101ED0008095982F0E5F1F4F4FE6B42EB22297FFCA
:101EE00009C090958095709561957F4F8F4F9F4F5A
:101EF000F0E8BF2A2AE030E0A4010E949310A82E47
:101F0000A81843C0853731F43FEEB32EB2222AE041
:101F100030E024C099EFB92EB2228F36B9F020F408
:101F2000883509F0B3C00DC0803721F0883709F03B
:101F3000ADC002C020E1B22AB4FE0BC084E0B82AD2
:101F400008C024FF09C0E6E0BE2A06C028E030E051
:101F500005C020E130E002C020E132E0F801B7FE28
:101F600007C060817181828193810C5F1F4F06C021
:101F70006081718180E090E00E5F1F4FA4010E949C
:101F80009310A82EA818FFE7BF22B6FE0BC02B2D7A
:101F90002E7FA51450F4B4FE0AC0B2FC08C02B2D4D
:101FA0002E7E05C07A2C2B2D03C07A2C01C0752CF7
:101FB00024FF0DC0FE01EA0DF11D8081803311F474
:101FC000297E09C022FF06C07394739404C0822F37
:101FD000867809F0739423FD14C020FF0FC05A2C9B
:101FE000731460F4530C5718732C08C0B70180E2C7
:101FF00090E02C870E94671073942C857314B0F3C3
:1020000004C0731410F4371801C0312C24FF12C01F
:10201000B70180E390E02C870E9467102C8522FF97
:102020001EC021FF03C088E590E002C088E790E071
:10203000B7010CC0822F867891F021FD02C080E2AA
:1020400001C08BE227FD8DE2B70190E00E9467108E
:1020500006C0B70180E390E00E9467105A94A5146F
:10206000C0F3AA94F401EA0DF11DB701808190E05C
:102070000E946710A110F5CF06C0B70180E290E082
:102080000E9467103A943110F8CF43CEF7012681B1
:10209000378102C02FEF3FEFC9012C96E2E10C948B
:1020A0000D11FC010590615070400110D8F780952A
:1020B00090958E0F9F1F0895FC0161507040019014
:1020C0000110D8F7809590958E0F9F1F08950F935C
:1020D0001F93CF93DF938C01EB018B8181FD03C0B4
:1020E0000FEF1FEF1AC082FF0DC02E813F818C8140
:1020F0009D812817390764F4E881F9810193F983F8
:10210000E88306C0E885F985802F0995892B41F77A
:102110008E819F8101969F838E83C801DF91CF912D
:102120001F910F910895FA01AA27283051F120310B
:1021300081F1E8946F936E7F6E5F7F4F8F4F9F4F5B
:10214000AF4FB1E03ED0B4E03CD0670F781F891F9D
:102150009A1FA11D680F791F8A1F911DA11D6A0F6B
:10216000711D811D911DA11D20D009F468943F911E
:102170002AE0269F11243019305D3193DEF6CF011D
:102180000895462F4770405D4193B3E00FD0C9F7E3
:10219000F6CF462F4F70405D4A3318F0495D31FD50
:1021A0004052419302D0A9F7EACFB4E0A6959795A3
:1021B000879577956795BA95C9F700976105710579
:1021C00008959B01AC010A2E0694579547953795C3
:1021D0002795BA95C9F7620F731F841F951FA01D1D
:1021E00008952F923F924F925F926F927F928F92BB
:1021F0009F92AF92BF92CF92DF92EF92FF920F9396
:102200001F93CF93DF93CDB7DEB7CA1BDB0B0FB69F
:10221000F894DEBF0FBECDBF09942A88398848885C
:102220005F846E847D848C849B84AA84B984C884F2
:10223000DF80EE80FD800C811B81AA81B981CE0FE9
:10224000D11D0FB6F894DEBF0FBECDBFED010895CE
:04225000F894FFCF30
:102254002402B601AD0100BA046304BC01B2010159
:10226400F1081104C501B20104AE08A903CC01AD03
:10227400010072073E03D401B20104CA09C002DBA3
:1022840001B20104D1094002E301AD01005D0ABFBE
:1022940001EC01AD01006C0A5301F201AD0100D75C
:1022A4000431010F020F020000003001820100908E
:1022B40001018901029801031002041902059C011D
:1022C40006A20107A601080F020052027E010100C6
:1022D40000006C6F676765720072786368617200F2
:1022E400636F6D6D616E640061646300736F756E1E
:1022F400640072746300656570726F6D006E6F6E5A
:1023040065006865780068656C6C6F006C6F676C5D
:102314006576656C006C6F67726567006C6F6772D9
:1023240065673F0076736C6F706500766F666673E1
:1023340065740076636F756E74733F00766F6C74AA
:102344003F0068656C70002573005B525D005B495B
:102354005D005B575D005B455D0028257329200007
:10236400766D6561737572650066756E6374696F09
:042374006E73000084
:00000001FF
