:100000000C946B030C9488030C9488030C94880361
:100010000C9488030C9488030C9488030C94880334
:100020000C9488030C9488030C9488030C94880324
:100030000C9488030C948A030C9488030C94880312
:100040000C9488030C9488030C9488030C94880304
:100050000C9488030C9488030C94880352656365A0
:1000600069766564206120636F6D6D616E642074D4
:1000700065726D696E61746F722E0D0A00436F6D4B
:100080006D616E642070726F636573732073706549
:100090006564206572726F72210D0A00506172737F
:1000A000652062756666657220636F6E7461696E45
:1000B0007320272573272E0D0A00256320203C2D51
:1000C0002D20636F7069656420746F2072656365AD
:1000D000697665206275666665722E2020526563BA
:1000E000656976656420636F756E74206973202579
:1000F000642E0D0A00526563656976656420636845
:1001000061726163746572206E756D6265722061E3
:10011000626F7665206C696D69742E0D0A00486502
:100120006C6C6F20796F757273656C66210D0A00B7
:100130000068656C70202D2D205072696E742074DB
:10014000686520636F6D6D616E642068656C702EEC
:100150000D0A00766F6C743F202D2D20517565724D
:1001600079207468652063616C696272617465648A
:1001700020766F6C74616765206D6561737572655B
:100180006D656E742E0D0A20202020417267756DFA
:10019000656E743A204E6F6E650D0A202020205245
:1001A000657475726E3A20566F6C7461676520696C
:1001B0006E206D696C6C69766F6C74730D0A0076D5
:1001C000636F756E74733F202D2D205175657279A4
:1001D00020746865207261772041444320636F7505
:1001E0006E74732066726F6D2074686520766F6C14
:1001F00074616765206D6561737572656D656E7498
:100200002E0D0A20202020417267756D656E743AAC
:10021000204E6F6E650D0A20202020526574757285
:100220006E3A2031362D62697420756E7369676E7F
:10023000656420686578206E756D6265720D0A00D0
:10024000766F6666736574202D2D20536574207457
:10025000686520766F6C74616765206D6561737584
:1002600072656D656E74206F666673657420636178
:100270006C6962726174696F6E20666163746F721B
:100280002E0D0A20202020417267756D656E743A2C
:100290002031362D62697420756E7369676E6564EE
:1002A00020686578206E756D6265720D0A202020C9
:1002B0002052657475726E3A204E6F6E650D0A009D
:1002C00076736C6F7065202D2D20536574207468D3
:1002D0006520766F6C74616765206D6561737572FA
:1002E000656D656E7420736C6F70652063616C69F9
:1002F00062726174696F6E20666163746F722E0D35
:100300000A20202020417267756D656E743A203195
:10031000362D62697420756E7369676E6564206836
:100320006578206E756D6265720D0A20202020525E
:10033000657475726E3A204E6F6E650D0A006C6FB3
:10034000677265673F202D2D205175657279207485
:100350006865206C6F6767657220656E61626C65A9
:100360002072656769737465722E0D0A2020202043
:10037000417267756D656E743A204E6F6E650D0A39
:100380002020202052657475726E3A2031362D621D
:10039000697420756E7369676E656420686578207E
:1003A0006E756D6265720D0A006C6F67726567200D
:1003B0002D2D2053657420746865206C6F67676508
:1003C0007220656E61626C65207265676973746521
:1003D000722E0D0A20202020417267756D656E74A3
:1003E0003A2031362D62697420756E7369676E65C7
:1003F0006420686578206E756D6265720D0A202034
:10040000202052657475726E3A204E6F6E650D0A2B
:10041000006C6F676C6576656C202D2D20536574BC
:1004200020746865206C6F676765722073657665F8
:1004300072697479206C6576656C2E0D0A20202017
:1004400020417267756D656E743A20302D330D0A48
:100450002020202052657475726E3A204E6F6E65B2
:100460000D0A0068656C6C6F202D2D205072696E2E
:10047000742061206772656574696E672E0D0A20AD
:10048000202020417267756D656E743A204E6F6E44
:10049000650D0A2020202052657475726E3A204145
:1004A000206772656574696E670D0A004172677531
:1004B0006D656E742073697A652069732025642EDA
:1004C0000D0A00546865207061727365206275665C
:1004D000666572206973206C6F636B65642E0D0A0C
:1004E0000054686520636F6D6D616E6420636F6E8C
:1004F0007461696E7320612073706163652E0D0AEB
:100500000054686520636F6D6D616E6427732061B0
:100510007267756D656E7420697320272573272EA9
:100520000D0A00436F6D6D616E64202725732720CF
:100530007265636F676E697A65642E0D0A00417299
:1005400067756D656E7420746F2027257327206989
:1005500073206F7574206F662072616E67652E0D53
:100560000A00417267756D656E7420746F202725CF
:1005700073272069732077697468696E206C696DD0
:100580006974732E0D0A0049676E6F72696E672079
:10059000617267756D656E7420666F7220636F6D32
:1005A0006D616E6420272573272E0D0A00556E722B
:1005B00065636F676E697A656420636F6D6D616EE8
:1005C000643A20272573272E0D0A00457865637548
:1005D00074696E6720636F6D6D616E6420776974F6
:1005E000682068657820617267756D656E742E0D80
:1005F0000A0054686520617267756D656E742076B7
:10060000616C75652069732025752E0D0A0045788B
:1006100065637574696E6720636F6D6D616E6420CC
:1006200077697468206E6F20617267756D656E748E
:100630002E0D0A004C6F6767696E67207365742022
:10064000746F206C6576656C2025690D0A004C6F0F
:1006500067206C6576656C202575206973206E6F48
:1006600074207265636F676E697A65642E0D0A0087
:100670004C6F6767657220656E61626C652072659C
:100680006769737465722073657420746F203078A5
:1006900025782E0D0A00307825780D0A004E6F77E8
:1006A000206C6F6767696E672073797374656D205E
:1006B00025730D0A00496E697469616C697A696E07
:1006C00067204144432E0D0A00307825780D0A003A
:1006D00025750D0A000011241FBECFEFD4E0DEBF48
:1006E000CDBF12E0A0E0B1E0E6EAFBE102C0059078
:1006F0000D92AA30B107D9F712E0AAE0B2E001C02A
:100700001D92AB33B107E1F70E942D0A0C94D10D75
:100710000C9400001F920F920FB60F9211242F938A
:100720003F934F935F936F937F938F939F93AF9379
:10073000BF93CF93DF93EF93FF93E0910001F0918C
:1007400001010488F589E02D8091C6008083E09145
:100750000001F0910101A489B5898C918D3009F0D7
:1007600052C08CE590E09F938F931F92C0E8D1E038
:10077000DF93CF930E94BA07E0910001F09101014D
:100780000F900F900F900F900F9084A5882309F47D
:1007900077C085A5813049F48DE790E09F938F93D2
:1007A00083E08F93DF93CF9358C00488F589E02DC1
:1007B00010828091000190910101BC0146960E9437
:1007C000730AE0910001F091010121E025A7CF011A
:1007D00046969F938F938CE990E09F938F931F92FF
:1007E000DF93CF930E94BA0780910001909101019D
:1007F0000E94C3048DB79EB707960FB6F8949EBFAC
:100800000FBE8DBF3DC084A58F5F84A71F928F93BD
:100810008C911F928F938AEB90E09F938F931F92FE
:10082000C0E8D1E0DF93CF930E94BA07E0910001C6
:10083000F09101018DB79EB709960FB6F8949EBF4F
:100840000FBE8DBF84A58331B0F085EF90E09F93FC
:100850008F9383E08F93DF93CF930E94BA078091A9
:100860000001909101010E94C3040F900F900F901E
:100870000F900F9005C0848995890196958B848B84
:10088000FF91EF91DF91CF91BF91AF919F918F91A8
:100890007F916F915F914F913F912F910F900FBE7C
:1008A0000F901F9018958EE191E09F938F930E9477
:1008B00089060F900F900895CF93DF93EC0109C044
:1008C00088858F938F818F930E94890629960F9038
:1008D0000F908D819E81892B99F7DF91CF9108959B
:1008E00082E091E00C945C04CF93DF93FC0184E1FF
:1008F000EF01982F19929A95E9F7E48BF58BDF01B8
:100900005696ED0119928A95E9F7B3A7A2A714A606
:1009100015A6DF91CF9108950F931F93CF93DF9387
:100920008B01DC019A96EC919A979B96FC91EF01D2
:1009300009900020E9F72197CE1BDF0BCE01992704
:100940009F938F938CEA94E09F938F9381E08F9392
:1009500087E891E09F938F930E94BA07EDB7FEB7A7
:1009600037960FB6F894FEBF0FBEEDBFD8011496B0
:100970008C918C1710F080E001C08FEFDF91CF9148
:100980001F910F910895CF93DF93FC0184E1EF0154
:1009900019928A95E9F7E48BF58B14A6DF91CF9134
:1009A0000895AF92BF92DF92EF92FF920F931F9341
:1009B000CF93DF9300D0CDB7DEB78C017B01DC0194
:1009C0001296AD90BC90139763E971E0C5010E9447
:1009D0006A0A0097C9F48EE096E09F938F9381E0B6
:1009E0008F9387E891E09F938F930E94BA070F90AF
:1009F0000F900F900F900F90D8011596ED91FC91EC
:100A0000169780E090E032C068E971E0C5010E946D
:100A10006A0A0097B9F58BEC95E09F938F93DD24DC
:100A2000D394DF9287E8A82E81E0B82EBF92AF92D0
:100A30000E94BA07C7010E94FB089F938F9322EF81
:100A400035E03F932F93DF92BF92AF9289839A83D1
:100A50000E94BA070FB6F894DEBF0FBECDBFD80113
:100A60001596ED91FC91169789819A810F900F90C0
:100A7000DF91CF911F910F91FF90EF90DF90BF908A
:100A8000AF9009940F900F90DF91CF911F910F912C
:100A9000FF90EF90DF90BF90AF900895BF92CF92FC
:100AA000DF92EF92FF920F931F93CF93DF93EC01AE
:100AB0008B01BDA481E0B812FEC083EC94E09F934B
:100AC0008F93BF9227E8C22E21E0D22EDF92CF92E1
:100AD0000E94BA077E0196E1E90EF11C60E270E027
:100AE000C7010E945F0A9BA78AA70F900F900F90E3
:100AF0000F900F90892BA9F181EE94E09F938F9333
:100B0000BF92DF92CF920E94BA07EAA5FBA510829E
:100B10008AA59BA501969BA78AA70F900F900F907F
:100B20000F900F9003C03196FBA7EAA7EAA5FBA59B
:100B300080818032C1F3FF93EF9381E095E09F9332
:100B40008F9381E08F9387E891E09F938F930E942A
:100B5000BA07EDB7FEB737960FB6F894FEBF0FBED3
:100B6000EDBFC7010E942E0989C0F801D080C18065
:100B70006D2D7C2DC7010E946A0A009709F07CC088
:100B8000CF92DF9283E295E09F938F93DD24D394FD
:100B9000DF9297E8E92E91E0F92EFF92EF920E9402
:100BA000BA0763E971E0F801828193810E946A0AC1
:100BB0009C018DB79EB707960FB6F8949EBF0FBEE7
:100BC0008DBF232BB9F1B801CE010E948C04F8012E
:100BD000218190818823A9F02F939F938EE395E044
:100BE0009F938F9383E08F93FF92EF920E94BA07B7
:100BF0008DB79EB707960FB6F8949EBF0FBE8DBFF8
:100C000039C02F939F9382E695E09F938F93DF9255
:100C1000FF92EF920E94BA076AA57BA5C8010E94C5
:100C2000D104EDB7FEB737960FB6F894FEBF0FBEEE
:100C3000EDBF20C08AA59BA5892BB9F0F801818161
:100C40008F9380818F9387E895E09F938F9382E0C5
:100C50008F93FF92EF920E94BA078DB79EB70796C7
:100C60000FB6F8949EBF0FBE8DBF60E070E0C80164
:100C70000E94D1041DA61FC0075F1F4FF801858188
:100C80009681892B09F071CFFF92EF928DEA95E062
:100C90009F938F9383E08F9387E891E09F938F9347
:100CA0000E94BA071DA68DB79EB707960FB6F89497
:100CB0009EBF0FBE8DBFDF91CF911F910F91FF900F
:100CC000EF90DF90CF90BF9008958091C00087FF94
:100CD000FCCF8091C60008959091C00095FFFCCF95
:100CE0008093C60008950F931F93CF93DF93EC0179
:100CF00000E010E08991882339F00F5F1F4F0E94B8
:100D00006C0606391105B1F7DF91CF911F910F9154
:100D10000895CF93DF93CDB7DEB7C659D1090FB68B
:100D2000F894DEBF0FBECDBFFE01E556FF4F4191E7
:100D300051919F0166E970E0CE0101960E94D60AAA
:100D4000CE0101960E94730680E0CA56DF4F0FB6AF
:100D5000F894DEBF0FBECDBFDF91CF910895CF9342
:100D6000DF93CDB7DEB7C659D1090FB6F894DEBF11
:100D70000FBECDBFFE01E556FF4F61917191AF01EE
:100D8000CE0101960E94020BCE0101960E947306CD
:100D900080E0CA56DF4F0FB6F894DEBF0FBECDBF5E
:100DA000DF91CF9108951F93CF93DF93EC01FE0164
:100DB0001491812F0E946C0621961111F8CFDF91BA
:100DC000CF911F9108951092C5008CE08093C400CC
:100DD00082E08093C000E1ECF0E088E180838081D4
:100DE00080688083808180838081808386E0809397
:100DF000C2000895E0917101F09172018FEF9FEFB1
:100E00009183808381E082830895E0917101F09164
:100E1000720181818F9380818F9386E996E09F9301
:100E20008F930E9489060F900F900F900F90089556
:100E3000E0917101F09172011182108208959F93E7
:100E40008F938DED91E09F938F930E94AF060F904B
:100E50000F900F900F9008957F928F929F92AF9274
:100E6000BF92CF92DF92EF92FF920F931F93CF9397
:100E7000DF93CDB7DEB7C055D1090FB6F894DEBF0A
:100E80000FBECDBF5C01762E6A01E0907101F0903B
:100E900072010CE511E088248394912C4FC0C501A8
:100EA0000E946A0A009709F047C0C401F801028055
:100EB00002C0880F991F0A94E2F7F701208131815F
:100EC00082239323892BC1F1F1E07F1661F07F1615
:100ED00038F082E0781651F093E079120EC009C024
:100EE00080EE91E008C084EE91E005C088EE91E0CC
:100EF00002C08CEE91E00E941F07F80181818F9360
:100F000080818F9380EF91E09F938F931F9280E574
:100F10008F938E010F5F1F4F1F930F930E947A0ACA
:100F2000C8010E941F07C6010E941F070FB6F89450
:100F3000DEBF0FBECDBF09C00D5F1F4FF80160813E
:100F40007181FB0180818111AACFC05BDF4F0FB699
:100F5000F894DEBF0FBECDBFDF91CF911F910F91EF
:100F6000FF90EF90DF90CF90BF90AF909F908F90C9
:100F70007F9008951F93CF93DF93CDB7DEB7C05511
:100F8000D1090FB6F894DEBF0FBECDBF69961FAD75
:100F90006997E0917101F091720180819181892BB3
:100FA000D9F082811817C0F0CE01855A9F4F9C015D
:100FB0006B964EAD5FAD6B9760E570E0CE0101962C
:100FC0000E94D60AAE014F5F5F4F612F68968EADCB
:100FD0009FAD68970E942C07C05BDF4F0FB6F89457
:100FE000DEBF0FBECDBFDF91CF911F910895EF926D
:100FF000FF920F931F93CF93DF937C010CE511E0D9
:1010000033C0BE01C7010E946A0A009759F5E091FA
:101010007101F091720121E030E0D80112960C903C
:1010200002C0220F331F0A94E2F780819181822B44
:10103000932B91838083DF93CF938DE996E09F93E9
:101040008F9381E08F9389E791E09F938F930E9424
:10105000BA078DB79EB707960FB6F8949EBF0FBE1E
:101060008DBF08C00D5F1F4FD801CD91DC918881E5
:101070008111C7CFDF91CF911F910F91FF90EF901A
:101080000895CF93DF9300D0CDB7DEB79F938F93B2
:1010900020E736E03F932F9321E02F9329E731E0BB
:1010A0003F932F9389839A830E94BA07E09171013D
:1010B000F0917201898180839A8191830FB6F894AF
:1010C000DEBF0FBECDBF0F900F90DF91CF9108957F
:1010D000E0917101F091720182831F928F9384E3FA
:1010E00096E09F938F9381E08F9389E791E09F93A0
:1010F0008F930E94BA078DB79EB707960FB6F894E4
:101100009EBF0FBE8DBF08958130910551F038F01C
:101110008230910541F08330910551F406C080E0A2
:1011200005C081E003C082E001C083E00C94680840
:101130009F938F938EE496E09F938F9383E08F939A
:1011400089E791E09F938F930E94BA078DB79EB76E
:1011500007960FB6F8949EBF0FBE8DBF08951F93DC
:10116000CF93DF93CDB7DEB7C055D1090FB6F89452
:10117000DEBF0FBECDBF69961FAD6997E0917101CB
:10118000F091720180819181892BF9F0CE01855A0D
:101190009F4F9C016B964EAD5FAD6B9760E570E025
:1011A000CE0101960E94AA0AE0917101F0917201AC
:1011B0008281181750F0AE014F5F5F4F612F689624
:1011C0008EAD9FAD68970E942C07C05BDF4F0FB6B6
:1011D000F894DEBF0FBECDBFDF91CF911F91089570
:1011E00080538A3038F08750803120F0805280312F
:1011F00008F080E00895EF92FF920F931F93CF9332
:10120000DF93FC0101900020E9F73197E81BF90B0F
:10121000C82FD92F00E010E0EE2EE80E14C08991FF
:101220000E94F008482F50E02F2D30E02150310966
:10123000220F331F220F331F02C0440F551F2A9560
:10124000E2F7040F151FFE2CFC1A49F7C801DF91C5
:10125000CF911F910F91FF90EF900895CF93DF935F
:10126000EC0104C090E00E94570A899388818111A3
:10127000F9CFDF91CF91089580E88093610083E0FA
:10128000809361001092700088E08093B60088EC33
:101290008093B30010926E0081E080938100809370
:1012A000B0008091B6009091B60081709470892B47
:1012B000C1F78AE090E040E355E7FA013197F1F792
:1012C0000197D9F74FEF51E0F89446BB47BB109216
:1012D0008500109284001092B20087B38823E9F34E
:1012E00010928100789486B3811115C0809184009A
:1012F00090918500392F20E0B901680F711DCB0155
:101300008B3678E1970724F080916600815006C003
:10131000883E97413CF4809166008F5F8093660021
:1013200080E001C081E050938100882369F2089534
:10133000E0917301F0917401918380830895E091AD
:101340007301F091740193838283089585EB96E095
:101350009F938F9381E08F938FE891E09F938F937A
:101360000E94BA0780E480937C0080917C008F7D8E
:1013700080937C0080917C00816080937C0083E876
:1013800080937A0080917A008F7D80937A0080919B
:101390007A00806480937A000F900F900F900F90E6
:1013A0000F9080917A0084FFFCCF0895ECE7F0E085
:1013B0009081907E90839081982B90830895809166
:1013C0007A00806880937A0080917A0080648093AC
:1013D0007A0080917A0084FFFCCF209178003091D0
:1013E0007900932F80E0AC01420F511DCA0108958E
:1013F0000E94DF099F938F9389EC96E09F938F93D0
:101400000E9489060F900F900F900F9008950E94F0
:10141000DF09E0917301F091740120813181AC0109
:10142000429FC001439F900D529F900D112424E0D4
:10143000969587952A95E1F722813381820F931F34
:101440009F938F9380ED96E09F938F930E948906E0
:101450000F900F900F900F90089578940E943C0980
:101460000E94E3060E94FA060E94180789E791E0AD
:101470000E94F70780E891E00E94F70787E891E073
:101480000E94F7078FE891E00E94F7070E94A609E3
:1014900080910001909101010E94740462E071E06A
:1014A00080910001909101010E944E05F7CF9111AA
:1014B000089581548A5108F4805E855A0895FC018C
:1014C0008191861721F08823D9F7992708953197BC
:1014D000CF010895FB01DC018D910190801901106D
:1014E000D9F3990B0895FB01DC0101900D920020C6
:1014F000E1F70895AEE0B0E0E0E8FAE00C94A80D62
:101500000D891E898F89988D26E02C831A83098383
:1015100097FF02C080E090E801979E838D83CE0103
:101520004B96AC01698D7A8DCE0101960E941E0BFF
:101530004D815E8157FD0AC02F81388542175307C0
:101540000CF49A01F801E20FF31F10822E96E4E0EA
:101550000C94C40DAEE0B0E0E0EBFAE00C94A80D02
:101560008C01CA0146E04C831A83098377FF02C0CD
:1015700060E070E8615071097E836D83A901BC0150
:10158000CE0101960E941E0B4D815E8157FD0AC05F
:101590002F813885421753070CF49A01F801E20FA6
:1015A000F31F10822E96E4E00C94C40DAEE0B0E080
:1015B000ECEDFAE00C94A80D8C01CA014EE04C83CE
:1015C0001A83098377FF02C060E070E861507109F7
:1015D0007E836D83A901BC01CE0101960E941E0B82
:1015E0004D815E8157FD0AC02F8138854217530710
:1015F0000CF49A01F801E20FF31F10822E96E4E03A
:101600000C94C40DAEE0B0E0E8E0FBE00C94A80D53
:101610008C0186E08C831A8309838FEF9FE79E837A
:101620008D83CE0101960E941E0BEF81F885E00F9D
:10163000F11F10822E96E4E00C94C40DACE0B0E0F3
:10164000E4E2FBE00C949A0D7C016B018A01FC0141
:1016500017821682838181FFC6C188248394912CCE
:101660008C0E9D1EF7019381F60193FD859193FFEA
:1016700081916F01882309F4B2C1853239F493FD59
:10168000859193FF81916F01853229F4B70190E034
:101690000E94100DE7CF512C312C20E02032A8F40D
:1016A0008B3261F028F4803251F0833271F40BC038
:1016B0008D3239F0803349F4216028C022602460E3
:1016C00025C0286023C0206121C027FD27C0382FF6
:1016D00030533A3078F426FF06C0FAE05F9E300DB2
:1016E0001124532E13C08AE0389E300D1124332E5E
:1016F00020620CC08E3221F426FD71C1206406C028
:101700008C3611F4206802C0883641F4F60193FD4E
:10171000859193FF81916F018111C0CF982F9554CE
:10172000933018F09052933028F40C5F1F4FFFE372
:10173000F9830DC0833631F0833771F0833509F0BA
:101740005EC023C0F801808189830E5F1F4F44244F
:101750004394512C540115C03801F2E06F0E711CF6
:10176000F801A080B18026FF03C0652D70E002C0A3
:101770006FEF7FEFC5012C870E94050D2C018301BF
:101780002C856FE7262E222218C03801F2E06F0E5A
:10179000711CF801A080B18026FF03C0652D70E0A8
:1017A00002C06FEF7FEFC5012C870E94FA0C2C015D
:1017B0002C8550E8252E222A830123FC1CC006C05C
:1017C000B70180E290E00E94100D3A94832D90E0E2
:1017D00048165906A8F30FC0F50127FC859127FE8E
:1017E00081915F01B70190E00E94100D31103A9491
:1017F000F1E04F1A51084114510471F7EDC08436DD
:1018000011F0893641F5F80127FF07C06081718129
:10181000828193810C5F1F4F08C06081718188278E
:1018200077FD8095982F0E5F1F4F4FE6B42EB222A2
:1018300097FF09C090958095709561957F4F8F4F68
:101840009F4FF0E8BF2A2AE030E0A4010E943C0D3F
:10185000A82EA81843C0853731F43FEEB32EB2222C
:101860002AE030E024C099EFB92EB2228F36B9F0C9
:1018700020F4883509F0B3C00DC0803721F08837D7
:1018800009F0ADC002C020E1B22AB4FE0BC084E072
:10189000B82A08C024FF09C0E6E0BE2A06C028E036
:1018A00030E005C020E130E002C020E132E0F80184
:1018B000B7FE07C060817181828193810C5F1F4FE9
:1018C00006C06081718180E090E00E5F1F4FA4012F
:1018D0000E943C0DA82EA818FFE7BF22B6FE0BC041
:1018E0002B2D2E7FA51450F4B4FE0AC0B2FC08C004
:1018F0002B2D2E7E05C07A2C2B2D03C07A2C01C0F7
:10190000752C24FF0DC0FE01EA0DF11D808180338E
:1019100011F4297E09C022FF06C07394739404C099
:10192000822F867809F0739423FD14C020FF0FC026
:101930005A2C731460F4530C5718732C08C0B70159
:1019400080E290E02C870E94100D73942C85731414
:10195000B0F304C0731410F4371801C0312C24FF05
:1019600012C0B70180E390E02C870E94100D2C85F7
:1019700022FF1EC021FF03C088E590E002C088E777
:1019800090E0B7010CC0822F867891F021FD02C053
:1019900080E201C08BE227FD8DE2B70190E00E945A
:1019A000100D06C0B70180E390E00E94100D5A941C
:1019B000A514C0F3AA94F401EA0DF11DB7018081CA
:1019C00090E00E94100DA110F5CF06C0B70180E293
:1019D00090E00E94100D3A943110F8CF43CEF701F9
:1019E0002681378102C02FEF3FEFC9012C96E2E13B
:1019F0000C94B60DFC010590615070400110D8F7B1
:101A0000809590958E0F9F1F0895FC016150704046
:101A100001900110D8F7809590958E0F9F1F089523
:101A20000F931F93CF93DF938C01EB018B8181FD8B
:101A300003C00FEF1FEF1AC082FF0DC02E813F8140
:101A40008C819D812817390764F4E881F98101931D
:101A5000F983E88306C0E885F985802F0995892BED
:101A600041F78E819F8101969F838E83C801DF910C
:101A7000CF911F910F910895FA01AA27283051F1B3
:101A8000203181F1E8946F936E7F6E5F7F4F8F4FAF
:101A90009F4FAF4FB1E03ED0B4E03CD0670F781F0E
:101AA000891F9A1FA11D680F791F8A1F911DA11DF3
:101AB0006A0F711D811D911DA11D20D009F468942C
:101AC0003F912AE0269F11243019305D3193DEF6D4
:101AD000CF010895462F4770405D4193B3E00FD08A
:101AE000C9F7F6CF462F4F70405D4A3318F0495D75
:101AF00031FD4052419302D0A9F7EACFB4E0A69558
:101B00009795879577956795BA95C9F70097610579
:101B1000710508959B01AC010A2E069457954795CF
:101B200037952795BA95C9F7620F731F841F951FC4
:101B3000A01D08952F923F924F925F926F927F92D5
:101B40008F929F92AF92BF92CF92DF92EF92FF92CD
:101B50000F931F93CF93DF93CDB7DEB7CA1BDB0B79
:101B60000FB6F894DEBF0FBECDBF09942A8839881E
:101B700048885F846E847D848C849B84AA84B98425
:101B8000C884DF80EE80FD800C811B81AA81B98131
:101B9000CE0FD11D0FB6F894DEBF0FBECDBFED0145
:061BA0000895F894FFCF48
:101BA6000A029C0193010053046304A201980101F7
:101BB60084081104AB019801044108A903B20193FA
:101BC600010005073E03BA019801049809C002C145
:101BD600019801049F094002C901930100F809BF59
:101BE60001D201930100070A5301D8019301007045
:101BF600043101F501F5010000003001790100878B
:101C060001018001028F0103F60104FF0105F501C0
:101C16000038027501010000006C6F67676572008D
:101C260072786368617200636F6D6D616E640061E6
:101C36006463006E6F6E65006865780068656C6C3D
:101C46006F006C6F676C6576656C006C6F677265AC
:101C560067006C6F677265673F0076736C6F7065BF
:101C660000766F66667365740076636F756E74735F
:101C76003F00766F6C743F0068656C7000257300DA
:101C86005B525D005B495D005B575D005B455D0037
:101C9600282573292000766D656173757265006667
:0A1CA600756E6374696F6E730000C1
:00000001FF
