:100000000C9455050C9472050C9472050C947205B1
:100010000C9472050C9472050C9472050C94720584
:100020000C9472050C9472050C9472050C94720574
:100030000C9472050C9474050C9472050C94720562
:100040000C9472050C9472050C9472050C94720554
:100050000C9472050C9472050C94720552656365DC
:1000600069766564206120636F6D6D616E642074D4
:1000700065726D696E61746F722E0D0A00436F6D4B
:100080006D616E642070726F636573732073706549
:100090006564206572726F72210D0A00506172737F
:1000A000652062756666657220636F6E7461696E45
:1000B0007320272573272E0D0A00256320203C2D51
:1000C0002D20636F7069656420746F2072656365AD
:1000D000697665206275666665722E2020526563BA
:1000E000656976656420636F756E74206973202579
:1000F000642E0D0A00526563656976656420636845
:1001000061726163746572206E756D6265722061E3
:10011000626F7665206C696D69742E0D0A006A6FD6
:10012000686E7065636B2C62783130302C736E258D
:10013000752C302E302E310D0A000068656C702051
:100140002D2D205072696E742074686520636F6D68
:100150006D616E642068656C702E0D0A00637572A7
:100160007065723F202D2D2051756572792074685D
:10017000652073616D706C696E6720706572696F60
:100180006420696E206D732E0D0A2020202041729C
:1001900067756D656E743A204E6F6E652E0D0A2080
:1001A00020202052657475726E3A20506572696F16
:1001B0006420696E206D696C6C697365636F6E6431
:1001C000732E0D0A00637572706572202D2D2053F9
:1001D0006574207468652073616D706C696E67204A
:1001E000706572696F6420696E206D732E0D0A2030
:1001F000202020417267756D656E743A2031362D6E
:1002000062697420756E7369676E656420696E74C7
:10021000656765722E0D0A20202020526574757264
:100220006E3A204E6F6E650D0A006375726F7574BD
:100230003F202D2D20517565727920746865206FDF
:1002400075747075742063757272656E7420696E52
:100250002075412E0D0A20202020417267756D65A2
:100260006E743A204E6F6E650D0A20202020526574
:100270007475726E3A20696E746567657220637575
:100280007272656E7420696E2075410D0A002473C8
:100290006574736572202D2D205365742074686514
:1002A0002073657269616C206E756D6265722E0DCA
:1002B0000A20202020417267756D656E743A2031E6
:1002C000362D62697420756E7369676E6564206986
:1002D0006E74656765722E0D0A20202020526574A9
:1002E00075726E3A204E6F6E650D0A00246375724A
:1002F0006F6666202D2D2053657420746865206319
:10030000757272656E74206F6666736574207661AF
:100310006C75652E0D0A20202020417267756D6571
:100320006E743A2031362D626974207369676E6588
:100330006420696E74656765722E0D0A2020202086
:1003400052657475726E3A204E6F6E650D0A002408
:10035000637572736C70202D2D2053657420746842
:10036000652063757272656E7420736C6F706520A2
:1003700076616C75652E0D0A20202020417267750C
:100380006D656E743A2031362D62697420756E7316
:1003900069676E656420696E74656765720D0A2011
:1003A00020202052657475726E3A204E6F6E650D76
:1003B0000A00766F6C743F202D2D2051756572797F
:1003C000207468652063616C696272617465642081
:1003D000766F6C74616765206D6561737572656DAC
:1003E000656E742E0D0A20202020417267756D65A0
:1003F0006E743A204E6F6E650D0A202020205265E3
:100400007475726E3A20566F6C7461676520696E00
:10041000206D696C6C69766F6C74730D0A002461D1
:10042000646376616C3F202D2D20517565727920B3
:10043000746865207261772041444320636F756E54
:1004400074732E0D0A20202020417267756D656E31
:10045000743A204E6F6E650D0A202020205265747C
:1004600075726E3A2031362D62697420756E73692B
:10047000676E656420686578206E756D6265720DC3
:100480000A006C6F677265673F202D2D20517565DE
:10049000727920746865206C6F6767657220656E7D
:1004A00061626C652072656769737465722E0D0AEE
:1004B00020202020417267756D656E743A204E6F62
:1004C0006E650D0A2020202052657475726E3A20E8
:1004D00031362D62697420756E7369676E656420AC
:1004E000686578206E756D6265720D0A006C6F67C5
:1004F000726567202D2D2053657420746865206C0B
:100500006F6767657220656E61626C6520726567F2
:1005100069737465722E0D0A202020204172677560
:100520006D656E743A2031362D62697420756E7374
:1005300069676E656420686578206E756D626572A6
:100540000D0A2020202052657475726E3A204E6F7D
:100550006E650D0A006C6F676C6576656C202D2DDD
:100560002053657420746865206C6F67676572201E
:100570007365766572697479206C6576656C2E0D8D
:100580000A20202020417267756D656E743A203014
:100590002D330D0A2020202052657475726E3A208A
:1005A0004E6F6E650D0A002A49444E3F202D2D20C6
:1005B0005072696E7420696E737472756D656E74B5
:1005C000206964656E7469666965722E0D0A202063
:1005D0002020417267756D656E743A204E6F6E65AE
:1005E0000D0A2020202052657475726E3A204964ED
:1005F000656E74696669636174696F6E2073747285
:10060000696E670D0A00417267756D656E742073BF
:10061000697A652069732025642E0D0A0054686587
:1006200020706172736520627566666572206973F9
:10063000206C6F636B65642E0D0A0054686520633F
:100640006F6D6D616E6420636F6E7461696E73208F
:10065000612073706163652E0D0A00546865206324
:100660006F6D6D616E64277320617267756D656E65
:100670007420697320272573272E0D0A00436F6DA0
:100680006D616E642027257327207265636F676E26
:10069000697A65642E0D0A00417267756D656E7426
:1006A00020746F2027257327206973206F757420AD
:1006B0006F662072616E67652E0D0A004172677564
:1006C0006D656E7420746F20272573272069732051
:1006D00077697468696E206C696D6974732E0D0A90
:1006E0000049676E6F72696E6720617267756D652C
:1006F0006E7420666F7220636F6D6D616E6420276B
:100700002573272E0D0A00556E7265636F676E693B
:100710007A656420636F6D6D616E643A202725737E
:10072000272E0D0A00457865637574696E6720632E
:100730006F6D6D616E642077697468206E6F2061E3
:100740007267756D656E742E0D0A00457865637568
:1007500074696E6720636F6D6D616E642077697474
:10076000682068657820617267756D656E742E0DFE
:100770000A0054686520617267756D656E74207635
:10078000616C75652069732025752E0D0A0045780A
:1007900065637574696E6720636F6D6D616E64204B
:1007A0007769746820756E7369676E656420696E19
:1007B0007420617267756D656E742E0D0A00457840
:1007C00065637574696E6720636F6D6D616E64201B
:1007D00077697468207369676E656420696E742038
:1007E000617267756D656E742E0D0A004E6F20681C
:1007F000616E646C657220737065636966696564B7
:1008000020666F7220257320617267756D656E7446
:100810002E0D0A004C6F6767696E67207365742040
:10082000746F206C6576656C2025690D0A004C6F2D
:1008300067206C6576656C202575206973206E6F66
:1008400074207265636F676E697A65642E0D0A00A5
:100850004C6F6767657220656E61626C65207265BA
:100860006769737465722073657420746F202575D1
:100870002E0D0A0025750D0A004E6F77206C6F67EC
:1008800067696E672073797374656D2025730D0A2F
:1008900000496E697469616C697A696E67204144C8
:1008A000430D0A004A5441472064697361626C65D4
:1008B000640D0A00537769746368656420746F205F
:1008C000414443206368616E6E656C2025690D0AA2
:1008D00000307825780D0A00496E697469616C6989
:1008E0007A696E67207274630D0A004578706563DB
:1008F0007465642031306D732C20676F7420256916
:100900006D730D0A002C01C8000000C8000100C86A
:10091000000000C800FA002C01000064006E00789E
:100920000082008C009600A000AA00B400BE00C89F
:10093000000000496E697469616C697A696E6720AC
:10094000736F756E640D0A00436F6D706172652080
:1009500076616C75652069732025690D0A00506CFD
:100960006179656420666F72202569206D730D0AB8
:100970000057726F746520256920746F206164646C
:10098000726573732025690D0A0052656164202524
:10099000692066726F6D20616464726573732025CF
:1009A000690D0A0057726974696E67206375727207
:1009B000656E7420736C6F70652076616C75652050
:1009C0006F662025750D0A0057726974696E67207D
:1009D00063757272656E74206F66667365742076D7
:1009E000616C7565206F662025690D0A0057726974
:1009F00074696E672073657269616C206E756D62D3
:100A000065722025750D0A0057726974696E67203A
:100A100073657269616C206E756D626572206F66B8
:100A20002025750D0A0043757272656E7420736C13
:100A30006F70652076616C7565206973202575205F
:100A40006E412F636F756E740D0A00437572726587
:100A50006E74206F66667365742076616C756520B0
:100A600069732025692075410D0A00256C690D0AFE
:100A7000006375727065722073657474696E6720A7
:100A8000746F6F206C6F770D0A00637572706572FA
:100A90002073657474696E6720746F6F206869676E
:100AA000680D0A0025750D0A000011241FBECFEF46
:100AB000D4E0DEBFCDBF12E0A0E0B1E0ECEDFAE2A1
:100AC00002C005900D92A038B107D9F712E0A0E856
:100AD000B2E001C01D92A93CB107E1F70E94C80F26
:100AE0000C946C150C9400001F920F920FB60F928D
:100AF00011242F933F934F935F936F937F938F9323
:100B00009F93AF93BF93CF93DF93EF93FF93E091C6
:100B10000001F09101010488F589E02D8091C60063
:100B20008083E0910001F0910101A489B5898C9145
:100B30008D3009F052C08CE590E09F938F931F9207
:100B4000C2EBD1E0DF93CF930E94060AE09100014F
:100B5000F09101010F900F900F900F900F9084A5CE
:100B6000882309F477C085A5813049F48DE790E0AA
:100B70009F938F9383E08F93DF93CF9358C0048824
:100B8000F589E02D10828091000190910101BC0156
:100B900046960E943212E0910001F091010121E09D
:100BA00025A7CF0146969F938F938CE990E09F9362
:100BB0008F931F92DF93CF930E94060A80910001CA
:100BC000909101010E94BD068DB79EB707960FB6A2
:100BD000F8949EBF0FBE8DBF3DC084A58F5F84A7D4
:100BE0001F928F938C911F928F938AEB90E09F932B
:100BF0008F931F92C2EBD1E0DF93CF930E94060A3E
:100C0000E0910001F09101018DB79EB709960FB6F2
:100C1000F8949EBF0FBE8DBF84A58331B0F085EFE1
:100C200090E09F938F9383E08F93DF93CF930E9405
:100C3000060A80910001909101010E94BD060F906B
:100C40000F900F900F900F9005C0848995890196A1
:100C5000958B848BFF91EF91DF91CF91BF91AF91F5
:100C60009F918F917F916F915F914F913F912F91C4
:100C70000F900FBE0F901F901895809102019091D8
:100C800003010C94970EE0910201F0910301818120
:100C90008F9380818F938EE191E09F938F930E9439
:100CA000CD080F900F900F900F900895CF93DF9382
:100CB000EC0109C088858F938F818F930E94CD08A6
:100CC00029960F900F908D819E81892B99F7DF9146
:100CD000CF91089586E091E00C945606CF93DF9370
:100CE000FC0184E1EF01982F19929A95E9F7E48BC2
:100CF000F58BDF015696ED0119928A95E9F7B3A7B6
:100D0000A2A714A615A6DF91CF9108950F931F9364
:100D1000CF93DF938B01DC019A96EC919A979B9687
:100D2000FC91EF0109900020E9F72197CE1BDF0B22
:100D3000CE0199279F938F9386E096E09F938F93A0
:100D400081E08F9389EB91E09F938F930E94060A35
:100D5000EDB7FEB737960FB6F894FEBF0FBEEDBFE6
:100D6000D80114968C918C1710F080E001C08FEFA1
:100D7000DF91CF911F910F910895CF93DF93FC01E5
:100D800084E1EF0119928A95E9F7E48BF58B14A6BB
:100D9000DF91CF910895BF92CF92DF92EF92FF92B1
:100DA0000F931F93CF93DF938C016B01EA01DC015A
:100DB0001296FC9012971396EC9062EE71E08F2DD4
:100DC0009E2D0E942912009769F485E297E09F9377
:100DD0008F9381E08F9389EB91E09F938F930E9493
:100DE000060A63C067EE71E08F2D9E2D0E942912C6
:100DF000009741F58BE497E09F938F93BB24B394C6
:100E0000BF9289EBE82E81E0F82EFF92EF920E94CC
:100E1000060AC6010E94F90A888399839F938F93DB
:100E200082E797E09F938F93BF92FF92EF920E9489
:100E3000060AEDB7FEB73C960FB6F894FEBF0FBE9C
:100E4000EDBF38C06DEE71E08F2D9E2D0E942912EE
:100E5000009791F48EE897E09F938F9381E08F93B2
:100E600089EB91E09F938F930E94060AC6010E942E
:100E70002C0B9983888319C064EF71E08F2D9E2D10
:100E80000E942912009731F58EEB97E09F938F9384
:100E900081E08F9389EB91E09F938F930E94060AE4
:100EA000C6010E942E0B9B838A830F900F900F9098
:100EB0000F900F90D8011596ED91FC911697CE01E9
:100EC000DF91CF911F910F91FF90EF90DF90CF9026
:100ED000BF900994EF92FF928CEE97E09F938F93CF
:100EE00083E08F9389EB91E09F938F930E94060A92
:100EF000EDB7FEB737960FB6F894FEBF0FBEEDBF45
:100F0000DF91CF911F910F91FF90EF90DF90CF90E5
:100F1000BF900895BF92CF92DF92EF92FF920F930E
:100F20001F93CF93DF93EC018B01BDA481E0B81236
:100F300006C18DE196E09F938F93BF9229EBC22E5D
:100F400021E0D22EDF92CF920E94060A7E0196E126
:100F5000E90EF11C60E270E0C7010E941E129BA71F
:100F60008AA70F900F900F900F900F90892BA9F1E7
:100F70008BE396E09F938F93BF92DF92CF920E9474
:100F8000060AEAA5FBA510828AA59BA501969BA748
:100F90008AA70F900F900F900F900F9003C031967B
:100FA000FBA7EAA7EAA5FBA580818032C1F3FF93E6
:100FB000EF938BE596E09F938F9381E08F9389EB7E
:100FC00091E09F938F930E94060AEDB7FEB7379684
:100FD0000FB6F894FEBF0FBEEDBFC7010E94390BDC
:100FE00091C0F801D080C1806D2D7C2DC7010E9479
:100FF0002912009709F084C0CF92DF928DE796E026
:101000009F938F93DD24D394DF9299EBE92E91E0A7
:10101000F92EFF92EF920E94060A62EE71E0F8014B
:10102000828193810E9429129C018DB79EB70796F9
:101030000FB6F8949EBF0FBE8DBF232BD9F1B80118
:10104000CE010E948606F801218190818823A9F0B3
:101050002F939F9388E996E09F938F9383E08F93DC
:10106000FF92EF920E94060A8DB79EB707960FB6C1
:10107000F8949EBF0FBE8DBF41C02F939F938CEB02
:1010800096E09F938F93DF92FF92EF920E94060A61
:1010900040910401509105016AA57BA5C8010E94F9
:1010A000CB06EDB7FEB737960FB6F894FEBF0FBE6E
:1010B000EDBF24C08AA59BA5892BB9F0F8018181D9
:1010C0008F9380818F9381EE96E09F938F9382E040
:1010D0008F93FF92EF920E94060A8DB79EB70796F4
:1010E0000FB6F8949EBF0FBE8DBF40910401509182
:1010F000050160E070E0C8010E94CB061DA61FC07C
:10110000075F1F4FF80185819681892B09F069CF10
:10111000FF92EF9287E097E09F938F9383E08F9306
:1011200089EB91E09F938F930E94060A1DA68DB7CD
:101130009EB707960FB6F8949EBF0FBE8DBFDF9186
:10114000CF911F910F91FF90EF90DF90CF90BF90C4
:1011500008958091C00087FFFCCF8091C60008955C
:101160009091C00095FFFCCF8093C60008950F9327
:101170001F93CF93DF93EC0100E010E08991882367
:1011800039F00F5F1F4F0E94B00806391105B1F703
:10119000DF91CF911F910F910895CF93DF93CDB73A
:1011A000DEB7C659D1090FB6F894DEBF0FBECDBF6A
:1011B000FE01E556FF4F419151919F0166E970E0B4
:1011C000CE0101960E947112CE0101960E94B708CD
:1011D00080E0CA56DF4F0FB6F894DEBF0FBECDBF1A
:1011E000DF91CF910895CF93DF93CDB7DEB7C65986
:1011F000D1090FB6F894DEBF0FBECDBFFE01E55694
:10120000FF4F61917191AF01CE0101960E949D1235
:10121000CE0101960E94B70880E0CA56DF4F0FB694
:10122000F894DEBF0FBECDBFDF91CF9108951F931D
:10123000CF93DF93EC01FE011491812F0E94B0083F
:1012400021961111F8CFDF91CF911F91089582E07F
:101250008093C0001092C50087E68093C400E1EC43
:10126000F0E088E180838081806880838081808352
:101270008081808386E08093C20008951092C5002B
:101280008CE08093C4000895E0919F01F091A0014B
:101290008FEF9FEF9183808381E082830895E091B7
:1012A0009F01F091A00181818F9380818F9384E7CA
:1012B00098E09F938F930E94CD080F900F900F900E
:1012C0000F900895E0919F01F091A001118210828A
:1012D00008959F938F9384E592E09F938F930E944C
:1012E000F3080F900F900F900F9008957F928F92B8
:1012F0009F92AF92BF92CF92DF92EF92FF920F93A5
:101300001F93CF93DF93CDB7DEB7E2970FB6F89474
:10131000DEBF0FBECDBF5C01762E6A01E0909F015B
:10132000F090A0010BE711E088248394912C53C026
:10133000C5010E942912009709F04BC0C401F801B1
:10134000028002C0880F991F0A94E2F7F7012081FA
:10135000318182239323892BE1F1F1E07F1661F043
:101360007F1638F082E0781651F093E0791212C0BF
:101370000BC087E592E00CC08BE592E009C00E94AB
:101380008D0D8FE592E004C00E94910D83E692E0FE
:101390000E946909F80181818F9380818F9387E68C
:1013A00092E09F938F931F9282E38F938E010F5F42
:1013B0001F4F1F930F930E944112C8010E94690999
:1013C000C6010E9469090FB6F894DEBF0FBECDBFFB
:1013D00009C00D5F1F4FF80160817181FB018081A1
:1013E0008111A6CFE2960FB6F894DEBF0FBECDBF37
:1013F000DF91CF911F910F91FF90EF90DF90CF90F1
:10140000BF90AF909F908F907F9008951F93CF9340
:10141000DF93CDB7DEB7E2970FB6F894DEBF0FBE0D
:10142000CDBF1AADE0919F01F091A0018081918123
:10143000892BB1F08281181798F0CE01CD969C01CE
:101440004BAD5CAD62E370E0CE0101960E9471127B
:10145000AE014F5F5F4F612F88AD99AD0E94760955
:10146000E2960FB6F894DEBF0FBECDBFDF91CF91ED
:101470001F910895EF92FF920F931F93CF93DF93E5
:101480007C010BE711E033C0BE01C7010E942912A5
:10149000009759F5E0919F01F091A00121E030E023
:1014A000D80112960C9002C0220F331F0A94E2F763
:1014B00080819181822B932B91838083DF93CF93C3
:1014C00089E798E09F938F9381E08F938BEA91E077
:1014D0009F938F930E94060A8DB79EB707960FB60B
:1014E000F8949EBF0FBE8DBF08C00D5F1F4FD8017F
:1014F000CD91DC9188818111C7CFDF91CF911F9170
:101500000F91FF90EF900895FC0120818181E0917F
:101510009F01F091A001208381838F932F9380E519
:1015200098E09F938F9381E08F938BEA91E09F9354
:101530008F930E94060A8DB79EB707960FB6F89450
:101540009EBF0FBE8DBF0895E0919F01F091A00155
:1015500082831F928F9384E198E09F938F9381E021
:101560008F938BEA91E09F938F930E94060A8DB729
:101570009EB707960FB6F8949EBF0FBE8DBF089515
:10158000FC01808191818130910551F038F08230E9
:10159000910541F08330910551F406C080E005C00B
:1015A00081E003C082E001C083E00C94A40A9F9311
:1015B0008F938EE298E09F938F9383E08F938BEAD3
:1015C00091E09F938F930E94060A8DB79EB707966E
:1015D0000FB6F8949EBF0FBE8DBF089580538A301A
:1015E00038F08750803120F08052803108F080E060
:1015F0000895EF92FF920F931F93CF93DF93FC0117
:1016000001900020E9F73197E81BF90BC82FD92F7B
:1016100000E010E0EE2EE80E14C089910E94EE0A60
:10162000482F50E02F2D30E021503109220F331F79
:10163000220F331F02C0440F551F2A95E2F7040FF3
:10164000151FFE2CFC1A49F7C801DF91CF911F919D
:101650000F91FF90EF9008950C94F8110C94F811ED
:10166000282F80E091E002C0990F8F5F9217E0F37E
:101670000895CF93DF93EC0104C090E00E9416120E
:10168000899388818111F9CFDF91CF91089580E806
:101690008093610083E0809361001092700088E085
:1016A0008093B60088EC8093B30010926E0081E0C6
:1016B000809381008093B0008091B6009091B60035
:1016C00081709470892BC1F78AE090E040E355E780
:1016D000FA013197F1F70197D9F74FEF51E0F894FC
:1016E00046BB47BB10928500109284001092B20056
:1016F00087B38823E9F310928100789486B381112F
:1017000015C08091840090918500392F20E0B901A7
:10171000680F711DCB018B3678E1970724F080911B
:101720006600815006C0883E97413CF48091660077
:101730008F5F8093660080E001C081E0509381005C
:10174000882369F20895E1E6F0E080E88083108262
:1017500008951F93CF93DF9381E998E09F938F9330
:1017600011E01F93C1ECD1E0DF93CF930E94060AF2
:1017700085B7806885BF85B7806885BF0F900F905B
:101780000F900F900F9005B607FE0EC084EA98E008
:101790009F938F931F93DF93CF930E94060A0F901E
:1017A0000F900F900F900F9080E480937C008091B9
:1017B0007C008F7D80937C0080917C008160809391
:1017C0007C0086E880937A0080917A008F7D8093F8
:1017D0007A0080917A00806480937A0080917A0008
:1017E00084FFFCCFDF91CF911F910895ECE7F0E0EB
:1017F0009081907E90839081982B90831F928F93FD
:1018000084EB98E09F938F9381E08F9381EC91E03C
:101810009F938F930E94060A8DB79EB707960FB6C7
:10182000F8949EBF0FBE8DBF089580917A008068A6
:1018300080937A0080917A00806480937A0080910E
:101840007A0084FFFCCF2091780030917900932FAB
:1018500080E0AC01420F511DCA0108950E94150C91
:101860009F938F9381ED98E09F938F930E94CD0873
:101870000F900F900F900F90089588ED98E09F9330
:101880008F9381E08F938BEC91E09F938F930E94D5
:10189000060A88E08093B6008091B000877B809331
:1018A000B0008091B0008B7F8093B0008091B00039
:1018B00083608093B0000F900F900F900F900F9067
:1018C0008091B6009091B60081709470892BC1F719
:1018D00087E28093890080E18093880080E00CC0DB
:1018E0000E94EF0C0E94FE0C1092B2000E94F50CB8
:1018F000B19BFECF8091B200982F9950933080F722
:101900001F928F938BEE98E09F938F9381E08F933C
:101910008BEC91E09F938F930E94060A8DB79EB740
:1019200007960FB6F8949EBF0FBE8DBF08958091A5
:10193000B2000895CF93DF93A091B20020E030E091
:10194000EFEFF0E016C0B091B2006B2F70E04A2FBD
:1019500050E0BA1728F0641B750B260F371F08C01C
:10196000EF01C41BD50BAE01460F571F240F351FC7
:10197000AB2F2817390738F3C901DF91CF910895AC
:1019800083E399E09F938F9381E08F9385EC91E0BF
:101990009F938F930E94060AE1E8F0E080818A7F9E
:1019A000808380818260808380818F7E808380813C
:1019B00088608083E0E8F0E080818F778083808199
:1019C0008064808380818C7F808310928900109254
:1019D00088000F900F900F900F900F900895E1E8FE
:1019E000F0E08081887F80830895E1E8F0E08081E5
:1019F0008A7F808380818260808308951092850031
:101A00001092840086B3827086BB0895AF92BF9215
:101A1000CF92DF92FF920F931F93CF93DF9300D06B
:101A2000CDB7DEB78C015B010E94EF0C0E94FE0C6B
:101A3000259AC8010A9787319E44E0F4B801660FE1
:101A4000771F80E090E00E945E119B01AC0160E096
:101A500074E284E799E40E94CA1020E030E040E09C
:101A60005FE30E9466100E9432116B0181E0C81A88
:101A7000D10803C0CC24CA94DC2CDF92CF9288E436
:101A800099E09F938F93FF24F394FF9205EC11E06C
:101A90001F930F930E94060AD0928900C09288007B
:101AA0000E94F50CC5010E949A0C89839A830E94BA
:101AB000EF0C9A819F9389818F938EE599E09F9394
:101AC0008F93FF921F930F930E94060A0FB6F8940C
:101AD000DEBF0FBECDBF0F900F90DF91CF911F9152
:101AE0000F91FF90DF90CF90BF90AF900895CF936C
:101AF000DF93EC0105C064E670E00E94060D2296BB
:101B0000FE0125913491C9010097A9F7DF91CF918A
:101B1000089583E199E00C94770D8BE099E00C94A3
:101B2000770D85E099E00C94770DF894F999FECF44
:101B300092BD81BD60BDFA9AF99A78949F938F9374
:101B40001F926F9381E799E09F938F9381E08F932A
:101B50008FEC91E09F938F930E94060A8DB79EB7FA
:101B600009960FB6F8949EBF0FBE8DBF0895F894E6
:101B7000F999FECF92BD81BDF89A789420B59F93D4
:101B80008F931F922F938AE899E09F938F9381E020
:101B90008F938FEC91E09F938F930E94060A80B5FC
:101BA0002DB73EB7275F3F4F0FB6F8943EBF0FBE2D
:101BB0002DBF0895249A08952C9A08952C9808957D
:101BC0002C990C94DE0D0C94DC0D1F93CF93DF93B6
:101BD0001F92CDB7DEB7192F9F938F9324EA39E078
:101BE0003F932F9391E09F932EED31E03F932F93FE
:101BF00089830E94060A8981682F84E690E00E940A
:101C0000950D0FB6F894DEBF0FBECDBF612F85E6F0
:101C100090E00F90DF91CF911F910C94950DFC01F6
:101C2000808191810E94E50D0C94CB0E1F93CF9380
:101C3000DF931F92CDB7DEB7192F9F938F9328ECB8
:101C400039E03F932F9391E09F932EED31E03F9346
:101C50002F9389830E94060A8981682F86E690E087
:101C60000E94950D0FB6F894DEBF0FBECDBF612F59
:101C700087E690E00F90DF91CF911F910C94950D26
:101C8000FC01828193810E94160E0C94CB0E1F934F
:101C9000CF93DF93EC0184E690E00E94B70D182FFC
:101CA00085E690E00E94B70D382F20E0210F311D0E
:101CB0003983288386E690E00E94B70D182F87E6C7
:101CC00090E00E94B70D382F20E0210F311D3B839B
:101CD0002A83DF91CF911F9108951F93CF93DF93B4
:101CE0001F92CDB7DEB7192F9F938F932DEE39E05A
:101CF0003F932F9391E09F932EED31E03F932F93ED
:101D000089830E94060A8981682F80E090E00E9402
:101D1000950D0FB6F894DEBF0FBECDBF612F81E0E9
:101D200090E00F90DF91CF911F910C94950D1F9330
:101D3000CF93DF93EC0180E090E00E94B70D182F65
:101D400081E090E00E94B70D382F20E0210F311D77
:101D5000398328833F932F9388E09AE09F938F9352
:101D600081E08F938EED91E09F938F930E94060AFE
:101D70008DB79EB707960FB6F8949EBF0FBE8DBF66
:101D8000DF91CF911F910895FC01808191810E9484
:101D90006D0E0C943D061F93CF93DF938091A901A4
:101DA0009091AA010E94470EE091A701F091A8012D
:101DB00084E690E0918380831282138214821582DC
:101DC000E091A901F091AA0181818F9380818F9385
:101DD00086E29AE09F938F9311E01F93C6EDD1E0C6
:101DE000DF93CF930E94060AE091A901F091AA0126
:101DF00083818F9382818F938BE49AE09F938F935B
:101E00001F93DF93CF930E94060A8DB79EB70E965D
:101E10000FB6F8949EBF0FBE8DBFDF91CF911F917B
:101E200008950F931F93CF93DF938C01862F0E9409
:101E3000300B41E050E0082E02C0440F551F0A94B9
:101E4000E2F790E020E030E009C0EE0FFF1FE00F66
:101E5000F11F60817181260F371F9F5FE92FF0E02E
:101E6000E417F50794F3823008F0825002C03695EB
:101E700027958A95E2F7E091A901F091AA01A08146
:101E8000B181C091A701D091A8010E94EC116054CA
:101E900072448F4091092AE09595879577956795CB
:101EA0002A95D1F702811381222717FD2095322F21
:101EB000600F711F821F931F6A837B838C839D83B6
:101EC000DF91CF911F910F910895E091A701F091BB
:101ED000A80185818F9384818F9383818F938281E1
:101EE0008F938BE69AE09F938F930E94CD080F907B
:101EF0000F900F900F900F900F900895FC0180812C
:101F000091810097A1F481E79AE09F938F9383E0FA
:101F10008F9386ED91E09F938F930E94060A0F9016
:101F20000F900F900F900F9081E090E017C0893EC6
:101F3000F3E09F0798F08AE89AE09F938F9383E0FD
:101F40008F9386ED91E09F938F930E94060A0F90E6
:101F50000F900F900F900F9088EE93E0E091A70103
:101F6000F091A801918380830895E091A701F091F9
:101F7000A80181818F9380818F9384EA9AE09F9357
:101F80008F930E94CD080F900F900F900F9008959F
:101F900078940E94A30B0E9427090E943E090E9488
:101FA00044090E9462098BEA91E00E943A0A82EB9E
:101FB00091E00E943A0A89EB91E00E943A0A81EC92
:101FC00091E00E943A0A85EC91E00E943A0A8BEC7B
:101FD00091E00E943A0A8FEC91E00E943A0A86ED65
:101FE00091E00E943A0A8EED91E00E943A0A0E9426
:101FF0003D060E94A90B84E00E94F60B0E94C00CD3
:102000000E943D0C80910001909101010E946E069A
:102010000E94DA0D0E94CB0E1092AE021092AF0217
:102020001092B0021092B1020E94890DD12C0EEADA
:1020300012E0C0E0D0E0C12CEE24EA94F12C03C001
:10204000C0E0D0E0CB2C66E071E08091000190917F
:1020500001010E948A070E94970CB82E482F50E079
:102060002C2D30E08C1528F0421B530BC40FD51FCC
:1020700008C0C701821B930B9C01240F351FC20FA0
:10208000D31FE091A701F091A80120813181C217EF
:10209000D307A8F094E0D91203C0D12C0EEA12E0C5
:1020A0000E94150CF801819391938F0164E08EEAF0
:1020B00092E00E94110FD3940E94E00DC1CFCB3962
:1020C000FFEFDF0708F0BCCFBDCF5058BB27AA27D2
:1020D0000ED048C139D130F03ED120F031F49F3FCD
:1020E00011F41EF42EC10EF4E095E7FB24C1E92F94
:1020F0004AD180F3BA17620773078407950718F06F
:1021000071F49EF562C10EF4E0950B2EBA2FA02D4E
:102110000B01B90190010C01CA01A0011124FF2794
:10212000591B99F0593F50F4503E68F11A16F0408F
:10213000A22F232F342F4427585FF3CF469537958E
:102140002795A795F0405395C9F77EF41F16BA0B53
:10215000620B730B840BBAF09150A1F0FF0FBB1F01
:10216000661F771F881FC2F70EC0BA0F621F731F4A
:10217000841F48F4879577956795B795F7959E3FA7
:1021800008F0B3CF9395880F08F09927EE0F979535
:10219000879508950CD0E6C0DED040F0D5D030F061
:1021A00021F45F3F19F0C7C0511110C1CAC0EBD074
:1021B00098F39923C9F35523B1F3951B550BBB270E
:1021C000AA2762177307840738F09F5F5F4F220FBB
:1021D000331F441FAA1FA9F333D00E2E3AF0E0E8B4
:1021E00030D091505040E695001CCAF729D0FE2F00
:1021F00027D0660F771F881FBB1F26173707480792
:10220000AB07B0E809F0BB0B802DBF01FF27935847
:102210005F4F2AF09E3F510568F08DC0D7C05F3FE9
:10222000ECF3983EDCF3869577956795B795F7952F
:102230009F5FC9F7880F911D9695879597F9089527
:10224000E1E0660F771F881FBB1F621773078407C3
:10225000BA0720F0621B730B840BBA0BEE1F88F7D2
:10226000E095089598D088F09F5790F0B92F99275E
:10227000B751A0F0D1F0660F771F881F991F1AF091
:10228000BA95C9F712C0B13081F09FD0B1E008957E
:102290009CC0672F782F8827B85F39F0B93FCCF3FF
:1022A000869577956795B395D9F73EF49095809587
:1022B000709561957F4F8F4F9F4F0895E89409C0A7
:1022C00097FB3EF490958095709561957F4F8F4F69
:1022D0009F4F9923A9F0F92F96E9BB279395F6957F
:1022E000879577956795B795F111F8CFFAF4BB0FFD
:1022F00011F460FF1BC06F5F7F4F8F4F9F4F16C061
:10230000882311F096E911C0772321F09EE8872FEA
:10231000762F05C0662371F096E8862F70E060E0A6
:102320002AF09A95660F771F881FDAF7880F96951F
:10233000879597F9089597F99F6780E870E060E0C6
:1023400008959FEF80EC089500240A94161617064E
:1023500018060906089500240A9412161306140696
:1023600005060895092E0394000C11F4882352F0F9
:10237000BB0F40F4BF2B11F460FF04C06F5F7F4FB1
:102380008F4F9F4F089557FD9058440F551F59F098
:102390005F3F71F04795880F97FB991F61F09F3F52
:1023A00079F087950895121613061406551FF2CF7B
:1023B0004695F1DF08C0161617061806991FF1CFCB
:1023C00086957105610508940895E894BB276627F2
:1023D0007727CB0197F90895A29FB001B39FC00161
:1023E000A39F01D0B29F700D811D1124911D0895EE
:1023F000FC0188279927E89421912032E9F32930BC
:1024000010F02E30C8F32B3241F02D3239F468949D
:1024100004C00E943912820F911D219120532A304D
:10242000C0F31EF4909581959F4F089591110895E2
:1024300081548A5108F4805E855A0895FC01819187
:10244000861721F08823D9F7992708953197CF016E
:102450000895FB01DC018D91019080190110D9F3E1
:10246000990B0895FB01DC0101900D920020E1F72A
:1024700008957AE0979F902D879F802D910D1124CC
:102480000895AEE0B0E0E7E4F2E10C9443150D8965
:102490001E898F89988D26E02C831A83098397FFE4
:1024A00002C080E090E801979E838D83CE014B9619
:1024B000AC01698D7A8DCE0101960E94B9124D81D1
:1024C0005E8157FD0AC02F813885421753070CF4EF
:1024D0009A01F801E20FF31F10822E96E4E00C94AB
:1024E0005F15AEE0B0E0E7E7F2E10C9443158C0134
:1024F000CA014EE04C831A83098377FF02C060E073
:1025000070E8615071097E836D83A901BC01CE0121
:1025100001960E94B9124D815E8157FD0AC02F813C
:102520003885421753070CF49A01F801E20FF31FA4
:1025300010822E96E4E00C945F15AEE0B0E0E3EA82
:10254000F2E10C9443158C0186E08C831A83098395
:102550008FEF9FE79E838D83CE0101960E94B91273
:10256000EF81F885E00FF11F10822E96E4E00C94C5
:102570005F15ACE0B0E0EFEBF2E10C9435157C01B7
:102580006B018A01FC0117821682838181FFC6C11B
:1025900088248394912C8C0E9D1EF7019381F60163
:1025A00093FD859193FF81916F01882309F4B2C156
:1025B000853239F493FD859193FF81916F018532C6
:1025C00029F4B70190E00E94AB14E7CF512C312CD5
:1025D00020E02032A8F48B3261F028F4803251F0F0
:1025E000833271F40BC08D3239F0803349F42160AD
:1025F00028C02260246025C0286023C0206121C03B
:1026000027FD27C0382F30533A3078F426FF06C014
:10261000FAE05F9E300D1124532E13C08AE0389EDD
:10262000300D1124332E20620CC08E3221F426FD91
:1026300071C1206406C08C3611F4206802C088364F
:1026400041F4F60193FD859193FF81916F01811112
:10265000C0CF982F9554933018F09052933028F4AF
:102660000C5F1F4FFFE3F9830DC0833631F08337D2
:1026700071F0833509F05EC023C0F8018081898341
:102680000E5F1F4F44244394512C540115C0380150
:10269000F2E06F0E711CF801A080B18026FF03C02C
:1026A000652D70E002C06FEF7FEFC5012C870E949F
:1026B000A0142C0183012C856FE7262E222218C03E
:1026C0003801F2E06F0E711CF801A080B18026FF86
:1026D00003C0652D70E002C06FEF7FEFC5012C874E
:1026E0000E9495142C012C8550E8252E222A830166
:1026F00023FC1CC006C0B70180E290E00E94AB142E
:102700003A94832D90E048165906A8F30FC0F501BE
:1027100027FC859127FE81915F01B70190E00E941F
:10272000AB1431103A94F1E04F1A5108411451049E
:1027300071F7EDC0843611F0893641F5F80127FFB5
:1027400007C060817181828193810C5F1F4F08C037
:1027500060817181882777FD8095982F0E5F1F4FCC
:102760004FE6B42EB22297FF09C0909580957095E0
:1027700061957F4F8F4F9F4FF0E8BF2A2AE030E0EE
:10278000A4010E94D714A82EA81843C0853731F49D
:102790003FEEB32EB2222AE030E024C099EFB92EEA
:1027A000B2228F36B9F020F4883509F0B3C00DC0DD
:1027B000803721F0883709F0ADC002C020E1B22A8D
:1027C000B4FE0BC084E0B82A08C024FF09C0E6E0CC
:1027D000BE2A06C028E030E005C020E130E002C09B
:1027E00020E132E0F801B7FE07C06081718182818B
:1027F00093810C5F1F4F06C06081718180E090E083
:102800000E5F1F4FA4010E94D714A82EA818FFE73F
:10281000BF22B6FE0BC02B2D2E7FA51450F4B4FEA4
:102820000AC0B2FC08C02B2D2E7E05C07A2C2B2DA1
:1028300003C07A2C01C0752C24FF0DC0FE01EA0DE7
:10284000F11D8081803311F4297E09C022FF06C06A
:102850007394739404C0822F867809F0739423FDD7
:1028600014C020FF0FC05A2C731460F4530C571877
:10287000732C08C0B70180E290E02C870E94AB1453
:1028800073942C857314B0F304C0731410F43718C8
:1028900001C0312C24FF12C0B70180E390E02C87E7
:1028A0000E94AB142C8522FF1EC021FF03C088E5C7
:1028B00090E002C088E790E0B7010CC0822F8678D4
:1028C00091F021FD02C080E201C08BE227FD8DE284
:1028D000B70190E00E94AB1406C0B70180E390E01E
:1028E0000E94AB145A94A514C0F3AA94F401EA0D03
:1028F000F11DB701808190E00E94AB14A110F5CFCB
:1029000006C0B70180E290E00E94AB143A94311007
:10291000F8CF43CEF7012681378102C02FEF3FEF7A
:10292000C9012C96E2E10C945115FC01059061500F
:1029300070400110D8F7809590958E0F9F1F0895D5
:10294000FC016150704001900110D8F7809590957E
:102950008E0F9F1F08950F931F93CF93DF938C01CA
:10296000EB018B8181FD03C00FEF1FEF1AC082FFC7
:102970000DC02E813F818C819D812817390764F419
:10298000E881F9810193F983E88306C0E885F98538
:10299000802F0995892B41F78E819F8101969F8316
:1029A0008E83C801DF91CF911F910F910895FA0195
:1029B000AA27283051F1203181F1E8946F936E7F7E
:1029C0006E5F7F4F8F4F9F4FAF4FB1E03ED0B4E06F
:1029D0003CD0670F781F891F9A1FA11D680F791FB0
:1029E0008A1F911DA11D6A0F711D811D911DA11DC1
:1029F00020D009F468943F912AE0269F11243019D1
:102A0000305D3193DEF6CF010895462F4770405D6B
:102A10004193B3E00FD0C9F7F6CF462F4F70405D1A
:102A20004A3318F0495D31FD4052419302D0A9F775
:102A3000EACFB4E0A6959795879577956795BA956F
:102A4000C9F700976105710508959B01AC010A2E35
:102A500006945795479537952795BA95C9F7620F0C
:102A6000731F841F951FA01D08952F923F924F92B0
:102A70005F926F927F928F929F92AF92BF92CF920E
:102A8000DF92EF92FF920F931F93CF93DF93CDB717
:102A9000DEB7CA1BDB0B0FB6F894DEBF0FBECDBF8F
:102AA00009942A88398848885F846E847D848C8460
:102AB0009B84AA84B984C884DF80EE80FD800C8169
:102AC0001B81AA81B981CE0FD11D0FB6F894DEBF4C
:0C2AD0000FBECDBFED010895F894FFCFBC
:102ADC008002B602B802FB01E201004306A7050121
:102AEC0002ED0101C00A55050802ED0104840AED4E
:102AFC00040F02E201004F0982041702E201002ECA
:102B0C000C1E042002ED01050F0E4F032802F401E8
:102B1C0005400EEC023002E20100650F2A02380279
:102B2C00ED01047E0FC5013F02E20100B50F5D010E
:102B3C004702ED0104C40E8E024F02E201006A0648
:102B4C003B016C026C020000003A01AB0100B901C0
:102B5C0001B20102C101036D0204760205C5010632
:102B6C00CB0107CF0108DE0109D6010A6C0200BCBB
:102B7C0002A30101000000C302BF026C6F6767650E
:102B8C00720072786368617200636F6D6D616E6460
:102B9C000061646300736F756E640072746300652A
:102BAC006570726F6D0063757272656E740063612F
:102BBC006C006E6F6E650068657831360075696EF5
:102BCC007431360073696E743136002A69646E3F55
:102BDC00006C6F676C6576006C6F67726567006C74
:102BEC006F677265673F002461646376616C3F00B8
:102BFC0024637572736C7000246375726F66660063
:102C0C006375726F75743F006375727065720063E3
:102C1C0075727065723F0024736574736572006819
:102C2C00656C70002573005B525D005B495D005B59
:102C3C00575D005B455D00282573292000766D6586
:102C4C0061737572650066756E6374696F6E73007F
:00000001FF
