:100000000C9419050C9436050C9436050C943605A1
:100010000C9436050C9436050C9436050C94360574
:100020000C9436050C9436050C9436050C94360564
:100030000C9436050C9438050C9436050C94360552
:100040000C9436050C9436050C9436050C94360544
:100050000C9436050C9436050C9436055265636590
:1000600069766564206120636F6D6D616E642074D4
:1000700065726D696E61746F722E0D0A00436F6D4B
:100080006D616E642070726F636573732073706549
:100090006564206572726F72210D0A00506172737F
:1000A000652062756666657220636F6E7461696E45
:1000B0007320272573272E0D0A00256320203C2D51
:1000C0002D20636F7069656420746F2072656365AD
:1000D000697665206275666665722E2020526563BA
:1000E000656976656420636F756E74206973202579
:1000F000642E0D0A00526563656976656420636845
:1001000061726163746572206E756D6265722061E3
:10011000626F7665206C696D69742E0D0A006A6FD6
:10012000686E7065636B2C62783130302C736E3082
:1001300030312C302E302E310D0A000068656C7085
:10014000202D2D205072696E742074686520636FB5
:100150006D6D616E642068656C702E0D0A006375AC
:10016000726F75743F202D2D205175657279207442
:100170006865206F75747075742063757272656E32
:100180007420696E2075412E0D0A202020204172B6
:1001900067756D656E743A204E6F6E650D0A20208E
:1001A000202052657475726E3A20696E74656765B9
:1001B000722063757272656E7420696E2075410DD0
:1001C0000A00246375726F6666202D2D20536574B6
:1001D000207468652063757272656E74206F666640
:1001E0007365742076616C75652E0D0A20202020C1
:1001F000417267756D656E743A2031362D6269748F
:10020000207369676E656420696E74656765722E18
:100210000D0A2020202052657475726E3A204E6FB0
:100220006E650D0A0024637572736C70202D2D208D
:10023000536574207468652063757272656E7420EE
:10024000736C6F70652076616C75652E0D0A2020C9
:100250002020417267756D656E743A2031362D62CB
:10026000697420756E7369676E656420696E746564
:100270006765720D0A2020202052657475726E3AEF
:10028000204E6F6E650D0A00766F6C743F202D2D29
:10029000205175657279207468652063616C6962AC
:1002A000726174656420766F6C74616765206D653A
:1002B00061737572656D656E742E0D0A20202020A5
:1002C000417267756D656E743A204E6F6E650D0AEA
:1002D0002020202052657475726E3A20566F6C741F
:1002E00061676520696E206D696C6C69766F6C74EE
:1002F000730D0A0076636F756E74733F202D2D2089
:100300005175657279207468652072617720414467
:100310004320636F756E74732066726F6D2074680E
:100320006520766F6C74616765206D6561737572A9
:10033000656D656E742E0D0A202020204172677550
:100340006D656E743A204E6F6E650D0A2020202078
:1003500052657475726E3A2031362D62697420755B
:100360006E7369676E656420686578206E756D626E
:1003700065720D0A00766F6666736574202D2D20F8
:100380005365742074686520766F6C7461676520AE
:100390006D6561737572656D656E74206F666673E9
:1003A00065742063616C6962726174696F6E206646
:1003B0006163746F722E0D0A2020202041726775D0
:1003C0006D656E743A2031362D62697420756E73D6
:1003D00069676E656420686578206E756D62657208
:1003E0000D0A2020202052657475726E3A204E6FDF
:1003F0006E650D0A0076736C6F7065202D2D20538D
:1004000065742074686520766F6C74616765206D13
:100410006561737572656D656E7420736C6F706560
:100420002063616C6962726174696F6E20666163DA
:10043000746F722E0D0A20202020417267756D6541
:100440006E743A2031362D62697420756E73696757
:100450006E656420686578206E756D6265720D0A40
:100460002020202052657475726E3A204E6F6E65A2
:100470000D0A006C6F677265673F202D2D20517546
:1004800065727920746865206C6F67676572206596
:100490006E61626C652072656769737465722E0D9A
:1004A0000A20202020417267756D656E743A204ED7
:1004B0006F6E650D0A2020202052657475726E3AA9
:1004C0002031362D62697420756E7369676E6564BC
:1004D00020686578206E756D6265720D0A006C6F1C
:1004E00067726567202D2D20536574207468652020
:1004F0006C6F6767657220656E61626C65207265FE
:100500006769737465722E0D0A202020204172677E
:10051000756D656E743A2031362D62697420756E82
:100520007369676E656420686578206E756D6265B5
:10053000720D0A2020202052657475726E3A204E8A
:100540006F6E650D0A006C6F676C6576656C202DAB
:100550002D2053657420746865206C6F6767657221
:10056000207365766572697479206C6576656C2E8A
:100570000D0A20202020417267756D656E743A2047
:10058000302D330D0A2020202052657475726E3A8A
:10059000204E6F6E650D0A002A49444E3F202D2DD6
:1005A000205072696E7420696E737472756D656E19
:1005B00074206964656E7469666965722E0D0A201F
:1005C000202020417267756D656E743A204E6F6E03
:1005D000650D0A2020202052657475726E3A2049FC
:1005E00064656E74696669636174696F6E207374A3
:1005F00072696E670D0A00417267756D656E7420D1
:1006000073697A652069732025642E0D0A00546889
:100610006520706172736520627566666572206917
:1006200073206C6F636B65642E0D0A00546865203F
:10063000636F6D6D616E6420636F6E7461696E735C
:1006400020612073706163652E0D0A005468652077
:10065000636F6D6D616E64277320617267756D6580
:100660006E7420697320272573272E0D0A00436FAF
:100670006D6D616E642027257327207265636F6737
:100680006E697A65642E0D0A00417267756D656E3C
:100690007420746F2027257327206973206F757469
:1006A000206F662072616E67652E0D0A00417267C9
:1006B000756D656E7420746F20272573272069730C
:1006C0002077697468696E206C696D6974732E0D8A
:1006D0000A0049676E6F72696E6720617267756D97
:1006E000656E7420666F7220636F6D6D616E64203D
:1006F000272573272E0D0A00556E7265636F676E8E
:10070000697A656420636F6D6D616E643A20272598
:1007100073272E0D0A00457865637574696E67202E
:10072000636F6D6D616E642077697468206E6F20F1
:10073000617267756D656E742E0D0A00457865638C
:100740007574696E6720636F6D6D616E6420776983
:1007500074682068657820617267756D656E742EA7
:100760000D0A0054686520617267756D656E7420AE
:1007700076616C75652069732025752E0D0A00451C
:100780007865637574696E6720636F6D6D616E6403
:10079000207769746820756E7369676E6564206977
:1007A0006E7420617267756D656E742E0D0A00455A
:1007B0007865637574696E6720636F6D6D616E64D3
:1007C0002077697468207369676E656420696E7448
:1007D00020617267756D656E742E0D0A004E6F2074
:1007E00068616E646C6572207370656369666965C3
:1007F0006420666F7220257320617267756D656E67
:10080000742E0D0A004C6F6767696E6720736574FC
:1008100020746F206C6576656C2025690D0A004C8C
:100820006F67206C6576656C202575206973206E76
:100830006F74207265636F676E697A65642E0D0A46
:10084000004C6F6767657220656E61626C6520722F
:10085000656769737465722073657420746F2030E6
:100860007825782E0D0A00307825780D0A004E6F15
:1008700077206C6F6767696E672073797374656D35
:100880002025730D0A00496E697469616C697A6983
:100890006E67204144430D0A004A54414720646971
:1008A0007361626C65640D0A0053776974636865EF
:1008B0006420746F20414443206368616E6E656CF0
:1008C0002025690D0A00307825780D0A0025750D60
:1008D0000A00496E697469616C697A696E67207291
:1008E00074630D0A00457870656374656420313067
:1008F0006D732C20676F742025696D730D0A002CB1
:1009000001C8000000C8000100C8000000C800FACB
:10091000002C01000064006E00780082008C0096BC
:1009200000A000AA00B400BE00C8000000496E6923
:100930007469616C697A696E6720736F756E640D96
:100940000A00436F6D706172652076616C75652079
:1009500069732025690D0A00506C61796564206611
:100960006F72202569206D730D0A0057726F7465D0
:1009700020256920746F206164647265737320257B
:10098000690D0A00526561642025692066726F6DE9
:1009900020616464726573732025690D0A005772C3
:1009A0006974696E672063757272656E7420736C0A
:1009B0006F70652076616C7565206F662025750DFA
:1009C0000A0057726974696E672063757272656E8A
:1009D00074206F66667365742076616C7565206F30
:1009E000662025690D0A0043757272656E74207366
:1009F0006C6F70652076616C756520697320257554
:100A00002070412F636F756E740D0A00437572720A
:100A1000656E74206F66667365742076616C7565AB
:100A20002069732025692070410D0A00256C690D2D
:100A30000A0011241FBECFEFD4E0DEBFCDBF12E00D
:100A4000A0E0B1E0EAE3F9E202C005900D92A0381F
:100A5000B107D9F712E0A0E8B2E001C01D92A53CB1
:100A6000B107E1F70E94040F0C949B140C94000052
:100A70001F920F920FB60F9211242F933F934F9313
:100A80005F936F937F938F939F93AF93BF93CF9316
:100A9000DF93EF93FF93E0910001F091010104884F
:100AA000F589E02D8091C6008083E0910001F091EE
:100AB0000101A489B5898C918D3009F052C08CE573
:100AC00090E09F938F931F92C0EBD1E0DF93CF9381
:100AD0000E94BA09E0910001F09101010F900F907E
:100AE0000F900F900F9084A5882309F477C085A5F7
:100AF000813049F48DE790E09F938F9383E08F934B
:100B0000DF93CF9358C00488F589E02D108280913F
:100B1000000190910101BC0146960E946111E09193
:100B20000001F091010121E025A7CF0146969F9396
:100B30008F938CE990E09F938F931F92DF93CF93D5
:100B40000E94BA0980910001909101010E947106F2
:100B50008DB79EB707960FB6F8949EBF0FBE8DBF98
:100B60003DC084A58F5F84A71F928F938C911F92A5
:100B70008F938AEB90E09F938F931F92C0EBD1E00D
:100B8000DF93CF930E94BA09E0910001F091010137
:100B90008DB79EB709960FB6F8949EBF0FBE8DBF56
:100BA00084A58331B0F085EF90E09F938F9383E02D
:100BB0008F93DF93CF930E94BA09809100019091A7
:100BC00001010E9471060F900F900F900F900F90EF
:100BD00005C0848995890196958B848BFF91EF914F
:100BE000DF91CF91BF91AF919F918F917F916F9145
:100BF0005F914F913F912F910F900FBE0F901F90DB
:100C000018958EE191E09F938F930E9481080F9039
:100C10000F900895CF93DF93EC0109C088858F93DF
:100C20008F818F930E94810829960F900F908D815C
:100C30009E81892B99F7DF91CF91089584E091E00F
:100C40000C940A06CF93DF93FC0184E1EF01982F07
:100C500019929A95E9F7E48BF58BDF015696ED0131
:100C600019928A95E9F7B3A7A2A714A615A6DF9152
:100C7000CF9108950F931F93CF93DF938B01DC01E6
:100C80009A96EC919A979B96FC91EF01099000201F
:100C9000E9F72197CE1BDF0BCE0199279F938F9306
:100CA00087EF95E09F938F9381E08F9387EB91E09F
:100CB0009F938F930E94BA09EDB7FEB737960FB690
:100CC000F894FEBF0FBEEDBFD80114968C918C171F
:100CD00010F080E001C08FEFDF91CF911F910F9155
:100CE0000895CF93DF93FC0184E1EF0119928A9577
:100CF000E9F7E48BF58B14A6DF91CF910895BF92AD
:100D0000CF92DF92EF92FF920F931F93CF93DF93D7
:100D10008C016B01EA01DC011296FC90129713968C
:100D2000EC9060EE71E08F2D9E2D0E94581100977F
:100D300069F486E197E09F938F9381E08F9387EB2F
:100D400091E09F938F930E94BA0963C065EE71E0B2
:100D50008F2D9E2D0E945811009741F58CE397E04E
:100D60009F938F93BB24B394BF9287EBE82E81E0CF
:100D7000F82EFF92EF920E94BA09C6010E94B30AB0
:100D8000888399839F938F9383E697E09F938F93B4
:100D9000BF92FF92EF920E94BA09EDB7FEB73C9660
:100DA0000FB6F894FEBF0FBEEDBF38C06BEE71E01A
:100DB0008F2D9E2D0E945811009791F48FE797E098
:100DC0009F938F9381E08F9387EB91E09F938F9315
:100DD0000E94BA09C6010E94E60A9983888319C055
:100DE00062EF71E08F2D9E2D0E945811009731F512
:100DF0008FEA97E09F938F9381E08F9387EB91E049
:100E00009F938F930E94BA09C6010E94E80A9B83B0
:100E10008A830F900F900F900F900F90D801159626
:100E2000ED91FC911697CE01DF91CF911F910F911B
:100E3000FF90EF90DF90CF90BF900994EF92FF92D8
:100E40008DED97E09F938F9383E08F9387EB91E0F5
:100E50009F938F930E94BA09EDB7FEB737960FB6EE
:100E6000F894FEBF0FBEEDBFDF91CF911F910F91A0
:100E7000FF90EF90DF90CF90BF900895BF92CF92F8
:100E8000DF92EF92FF920F931F93CF93DF93EC01CA
:100E90008B01BDA481E0B81206C18EE096E09F935D
:100EA0008F93BF9227EBC22E21E0D22EDF92CF92FA
:100EB0000E94BA097E0196E1E90EF11C60E270E041
:100EC000C7010E944D119BA78AA70F900F900F900A
:100ED0000F900F90892BA9F18CE296E09F938F934E
:100EE000BF92DF92CF920E94BA09EAA5FBA51082B9
:100EF0008AA59BA501969BA78AA70F900F900F909C
:100F00000F900F9003C03196FBA7EAA7EAA5FBA5B7
:100F100080818032C1F3FF93EF938CE496E09F933E
:100F20008F9381E08F9387EB91E09F938F930E9443
:100F3000BA09EDB7FEB737960FB6F894FEBF0FBEED
:100F4000EDBFC7010E94F30A91C0F801D080C180B3
:100F50006D2D7C2DC7010E945811009709F084C0A7
:100F6000CF92DF928EE696E09F938F93DD24D39409
:100F7000DF9297EBE92E91E0F92EFF92EF920E941B
:100F8000BA0960EE71E0F801828193810E945811E4
:100F90009C018DB79EB707960FB6F8949EBF0FBE03
:100FA0008DBF232BD9F1B801CE010E943A06F8017A
:100FB000218190818823A9F02F939F9389E896E05F
:100FC0009F938F9383E08F93FF92EF920E94BA09D1
:100FD0008DB79EB707960FB6F8949EBF0FBE8DBF14
:100FE00041C02F939F938DEA96E09F938F93DF925A
:100FF000FF92EF920E94BA094091020150910301C1
:101000006AA57BA5C8010E947F06EDB7FEB737969B
:101010000FB6F894FEBF0FBEEDBF24C08AA59BA5F6
:10102000892BB9F0F80181818F9380818F9382EDB4
:1010300096E09F938F9382E08F93FF92EF920E94AE
:10104000BA098DB79EB707960FB6F8949EBF0FBE2C
:101050008DBF409102015091030160E070E0C80132
:101060000E947F061DA61FC0075F1F4FF8018581E4
:101070009681892B09F069CFFF92EF9288EF96E075
:101080009F938F9383E08F9387EB91E09F938F9350
:101090000E94BA091DA68DB79EB707960FB6F894A1
:1010A0009EBF0FBE8DBFDF91CF911F910F91FF901B
:1010B000EF90DF90CF90BF9008958091C00087FFA0
:1010C000FCCF8091C60008959091C00095FFFCCFA1
:1010D0008093C60008950F931F93CF93DF93EC0185
:1010E00000E010E08991882339F00F5F1F4F0E94C4
:1010F000640806391105B1F7DF91CF911F910F9167
:101100000895CF93DF93CDB7DEB7C659D1090FB697
:10111000F894DEBF0FBECDBFFE01E556FF4F4191F3
:1011200051919F0166E970E0CE0101960E94A011E5
:10113000CE0101960E946B0880E0CA56DF4F0FB6C1
:10114000F894DEBF0FBECDBFDF91CF910895CF934E
:10115000DF93CDB7DEB7C659D1090FB6F894DEBF1D
:101160000FBECDBFFE01E556FF4F61917191AF01FA
:10117000CE0101960E94CC11CE0101960E946B080F
:1011800080E0CA56DF4F0FB6F894DEBF0FBECDBF6A
:10119000DF91CF9108951F93CF93DF93EC01FE0170
:1011A0001491812F0E94640821961111F8CFDF91CC
:1011B000CF911F91089582E08093C0001092C500E6
:1011C00087E68093C400E1ECF0E088E180838081D1
:1011D00080688083808180838081808386E08093A3
:1011E000C20008951092C5008CE08093C400089559
:1011F000E0919D01F0919E018FEF9FEF918380839D
:1012000081E082830895E0919D01F0919E018181AA
:101210008F9380818F9387E698E09F938F930E94AE
:1012200081080F900F900F900F900895E0919D010D
:10123000F0919E011182108208959F938F9384E50F
:1012400092E09F938F930E94A7080F900F900F90AA
:101250000F9008957F928F929F92AF92BF92CF92FC
:10126000DF92EF92FF920F931F93CF93DF93CDB74F
:10127000DEB7E2970FB6F894DEBF0FBECDBF5C01BC
:10128000762E6A01E0909D01F0909E0109E711E041
:1012900088248394912C53C0C5010E945811009753
:1012A00009F04BC0C401F801028002C0880F991FE9
:1012B0000A94E2F7F7012081318182239323892B5D
:1012C000E1F1F1E07F1661F07F1638F082E07816E8
:1012D00051F093E0791212C00BC087E592E00CC088
:1012E0008BE592E009C00E947B0D8FE592E004C07F
:1012F0000E947F0D83E692E00E941D09F801818122
:101300008F9380818F9387E692E09F938F931F92B4
:1013100082E38F938E010F5F1F4F1F930F930E94E5
:101320007011C8010E941D09C6010E941D090FB657
:10133000F894DEBF0FBECDBF09C00D5F1F4FF8018F
:1013400060817181FB0180818111A6CFE2960FB689
:10135000F894DEBF0FBECDBFDF91CF911F910F91EB
:10136000FF90EF90DF90CF90BF90AF909F908F90C5
:101370007F9008951F93CF93DF93CDB7DEB7E297A9
:101380000FB6F894DEBF0FBECDBF1AADE0919D0140
:10139000F0919E0180819181892BB1F08281181793
:1013A00098F0CE01CD969C014BAD5CAD62E370E050
:1013B000CE0101960E94A011AE014F5F5F4F612FD9
:1013C00088AD99AD0E942A09E2960FB6F894DEBF67
:1013D0000FBECDBFDF91CF911F910895EF92FF9285
:1013E0000F931F93CF93DF937C0109E711E033C084
:1013F000BE01C7010E945811009759F5E0919D0167
:10140000F0919E0121E030E0D80112960C9002C0CC
:10141000220F331F0A94E2F780819181822B932B54
:1014200091838083DF93CF938EE698E09F938F9391
:1014300081E08F9389EA91E09F938F930E94BA098C
:101440008DB79EB707960FB6F8949EBF0FBE8DBF9F
:1014500008C00D5F1F4FD801CD91DC9188818111AB
:10146000C7CFDF91CF911F910F91FF90EF9008951B
:10147000CF93DF93EC0189818F9388818F9381E4EF
:1014800098E09F938F9381E08F9389EA91E09F93F7
:101490008F930E94BA09E0919D01F0919E0188818D
:1014A0009981918380838DB79EB707960FB6F89484
:1014B0009EBF0FBE8DBFDF91CF910895E0919D013A
:1014C000F0919E0182831F928F9385E098E09F9315
:1014D0008F9381E08F9389EA91E09F938F930E948D
:1014E000BA098DB79EB707960FB6F8949EBF0FBE88
:1014F0008DBF0895FC01808191818130910551F06B
:1015000038F08230910541F08330910551F406C0E6
:1015100080E005C081E003C082E001C083E00C945C
:101520005E0A9F938F938FE198E09F938F9383E060
:101530008F9389EA91E09F938F930E94BA098DB7A8
:101540009EB707960FB6F8949EBF0FBE8DBF089545
:1015500080538A3038F08750803120F080528031BB
:1015600008F080E00895EF92FF920F931F93CF93BE
:10157000DF93FC0101900020E9F73197E81BF90B9C
:10158000C82FD92F00E010E0EE2EE80E14C089918C
:101590000E94A80A482F50E02F2D30E02150310939
:1015A000220F331F220F331F02C0440F551F2A95ED
:1015B000E2F7040F151FFE2CFC1A49F7C801DF9152
:1015C000CF911F910F91FF90EF9008950C942711E8
:1015D0000C942711282F80E091E002C0990F8F5FB3
:1015E0009217E0F30895CF93DF93EC0104C090E0ED
:1015F0000E944511899388818111F9CFDF91CF91A4
:10160000089580E88093610083E0809361001092E8
:10161000700088E08093B60088EC8093B30010924D
:101620006E0081E0809381008093B0008091B600CD
:101630009091B60081709470892BC1F78AE090E098
:1016400040E355E7FA013197F1F70197D9F74FEFEA
:1016500051E0F89446BB47BB10928500109284007D
:101660001092B20087B38823E9F310928100789436
:1016700086B3811115C08091840090918500392F27
:1016800020E0B901680F711DCB018B3678E1970717
:1016900024F080916600815006C0883E97413CF45A
:1016A000809166008F5F8093660080E001C081E0DA
:1016B00050938100882369F20895E1E6F0E080E824
:1016C000808310820895E0919F01F091A0019183A1
:1016D00080830895E0919F01F091A001938382831C
:1016E00008951F93CF93DF9386E898E09F938F939D
:1016F00011E01F93CFEBD1E0DF93CF930E94BA09A3
:1017000085B7806885BF85B7806885BF0F900F90CB
:101710000F900F900F9005B607FE0EC089E998E074
:101720009F938F931F93DF93CF930E94BA090F90DB
:101730000F900F900F900F9080E480937C00809129
:101740007C008F7D80937C0080917C008160809301
:101750007C0086E880937A0080917A008F7D809368
:101760007A0080917A00806480937A0080917A0078
:1017700084FFFCCFDF91CF911F910895ECE7F0E05B
:101780009081907E90839081982B90831F928F936D
:1017900089EA98E09F938F9381E08F938FEB91E09C
:1017A0009F938F930E94BA098DB79EB707960FB685
:1017B000F8949EBF0FBE8DBF089580917A00806817
:1017C00080937A0080917A00806480937A0080917F
:1017D0007A0084FFFCCF2091780030917900932F1C
:1017E00080E0AC01420F511DCA0108950E94DD0B3B
:1017F0009F938F9386EC98E09F938F930E9481082C
:101800000F900F900F900F9008950E94DD0BE091C4
:101810009F01F091A00120813181AC01429FC00164
:10182000439F900D529F900D112424E0969587952B
:101830002A95E1F722813381820F931F9F938F9323
:101840008DEC98E09F938F930E9481080F900F90EA
:101850000F900F90089582ED98E09F938F9381E011
:101860008F9389EC91E09F938F930E94BA0988E04F
:101870008093B6008091B000877B8093B000809108
:10188000B0008B7F8093B0008091B0008360809324
:10189000B0000F900F900F900F900F908091B600B6
:1018A0009091B60081709470892BC1F787E2809384
:1018B000890080E18093880080E00CC00E94DD0CEC
:1018C0000E94EC0C1092B2000E94E30CB19BFECF80
:1018D0008091B200982F9950933080F71F928F9388
:1018E00085EE98E09F938F9381E08F9389EC91E050
:1018F0009F938F930E94BA098DB79EB707960FB634
:10190000F8949EBF0FBE8DBF08958091B2000895D8
:10191000CF93DF93A091B20020E030E0EFEFF0E052
:1019200016C0B091B2006B2F70E04A2F50E0BA178A
:1019300028F0641B750B260F371F08C0EF01C41B6E
:10194000D50BAE01460F571F240F351FAB2F28179D
:10195000390738F3C901DF91CF9108958DE299E0FD
:101960009F938F9381E08F9383EC91E09F938F936C
:101970000E94BA09E1E8F0E080818A7F808380815B
:101980008260808380818F7E808380818860808375
:10199000E0E8F0E080818F778083808180648083BD
:1019A00080818C7F808310928900109288000F9034
:1019B0000F900F900F900F900895E1E8F0E0808174
:1019C000887F80830895E1E8F0E080818A7F8083CA
:1019D0008081826080830895109285001092840037
:1019E00086B3827086BB0895AF92BF92CF92DF928A
:1019F000FF920F931F93CF93DF9300D0CDB7DEB745
:101A00008C015B010E94DD0C0E94EC0C259AC80140
:101A10000A9787319E44E0F4B801660F771F80E093
:101A200090E00E948D109B01AC0160E074E284E7BD
:101A300099E40E94F90F20E030E040E05FE30E946B
:101A4000950F0E9461106B0181E0C81AD10803C094
:101A5000CC24CA94DC2CDF92CF9282E499E09F934D
:101A60008F93FF24F394FF9203EC11E01F930F93E5
:101A70000E94BA09D0928900C09288000E94E30CAB
:101A8000C5010E94880C89839A830E94DD0C9A818B
:101A90009F9389818F9388E599E09F938F93FF921D
:101AA0001F930F930E94BA090FB6F894DEBF0FBEC2
:101AB000CDBF0F900F90DF91CF911F910F91FF90AD
:101AC000DF90CF90BF90AF900895CF93DF93EC015C
:101AD00005C064E670E00E94F40C2296FE01259198
:101AE0003491C9010097A9F7DF91CF9108958DE056
:101AF00099E00C94650D85E099E00C94650D8FEFED
:101B000098E00C94650DF894F999FECF92BD81BDD3
:101B100060BDFA9AF99A78949F938F931F926F936E
:101B20008BE699E09F938F9381E08F938DEC91E00A
:101B30009F938F930E94BA098DB79EB709960FB6EF
:101B4000F8949EBF0FBE8DBF0895F894F999FECF0B
:101B500092BD81BDF89A789420B59F938F931F9280
:101B60002F9384E899E09F938F9381E08F938DEC7E
:101B700091E09F938F930E94BA0980B52DB73EB72D
:101B8000275F3F4F0FB6F8943EBF0FBE2DBF08959D
:101B9000249A08952C9A08952C9808952C990C94C1
:101BA000CC0D0C94CA0D08951F93CF93DF931F9211
:101BB000CDB7DEB7192F9F938F932EE939E03F936E
:101BC0002F9391E09F932CED31E03F932F938983E6
:101BD0000E94BA098981682F84E690E00E94830DF3
:101BE0000FB6F894DEBF0FBECDBF612F85E690E043
:101BF0000F90DF91CF911F910C94830DFC01808198
:101C000091810C94D40D1F93CF93DF931F92CDB786
:101C1000DEB7192F9F938F9322EC39E03F932F93D8
:101C200091E09F932CED31E03F932F9389830E94A5
:101C3000BA098981682F86E690E00E94830D0FB66D
:101C4000F894DEBF0FBECDBF612F87E690E00F9006
:101C5000DF91CF911F910C94830DFC0182819381C0
:101C60000C94030E1F93CF93DF93EC0184E690E076
:101C70000E94A50D182F85E690E00E94A50D382F33
:101C800020E0210F311D3983288386E690E00E94F1
:101C9000A50D182F87E690E00E94A50D382F20E0B3
:101CA000210F311D3B832A83DF91CF911F9108952E
:101CB0001F93CF93DF938091A7019091A8010E9479
:101CC000320EE091A501F091A601108211821282DC
:101CD0001382E091A701F091A80181818F93808107
:101CE0008F9387EE99E09F938F9311E01F93C4ED3C
:101CF000D1E0DF93CF930E94BA09E091A701F09160
:101D0000A80183818F9382818F938CE09AE09F93C7
:101D10008F931F93DF93CF930E94BA098DB79EB71D
:101D20000E960FB6F8949EBF0FBE8DBFDF91CF9178
:101D30001F9108950F931F93CF93DF938C01862FEC
:101D40000E94EA0A41E050E0082E02C0440F551FED
:101D50000A94E2F790E020E030E009C0EE0FFF1FA8
:101D6000E00FF11F60817181260F371F9F5FE92F00
:101D7000F0E0E417F50794F302C0369527958A95AD
:101D8000E2F7E091A701F091A801A081B181C09193
:101D9000A501D091A6010E941B11605472448F408E
:101DA000910902811381222717FD2095322F600FA0
:101DB000711F821F931F2AE09595879577956795E8
:101DC0002A95D1F7688379838A839B83DF91CF91AA
:101DD0001F910F910895E091A501F091A6018381D3
:101DE0008F9382818F9381818F9380818F938CE2F7
:101DF0009AE09F938F930E9481080F900F900F900D
:101E00000F900F900F90089578940E945D0B0E94A0
:101E1000DB080E94F2080E94F8080E94160989EA6D
:101E200091E00E94EE0980EB91E00E94EE0987EBC1
:101E300091E00E94EE098FEB91E00E94EE0983ECA5
:101E400091E00E94EE0989EC91E00E94EE098DEC90
:101E500091E00E94EE0984ED91E00E94EE098CED84
:101E600091E00E94EE090E94710B84E00E94BE0B7B
:101E70000E94AE0C0E942B0C8091000190910101F8
:101E80000E9422060E94C80D0E94580E1092AE02B7
:101E90001092AF021092B0021092B1020E94770D20
:101EA000D12C0EEA12E0C0E0D0E0C12CEE24EA947E
:101EB000F12C01C0CB2C64E071E080910001909185
:101EC00001010E943E070E94850CB82E482F50E069
:101ED0002C2D30E08C1528F0421B530BC40FD51F5E
:101EE00008C0C701821B930B9C01240F351FC20F32
:101EF000D31FC83E93E0D907E8F2E4E0DE1203C046
:101F0000D12C0EEA12E00E94DD0BF801819391932F
:101F10008F0164E08EEA92E00E949A0ED3940E94B0
:101F2000CE0DC0E0D0E0C6CF5058BB27AA270ED0B8
:101F300048C139D130F03ED120F031F49F3F11F447
:101F40001EF42EC10EF4E095E7FB24C1E92F4AD11F
:101F500080F3BA17620773078407950718F071F4C6
:101F60009EF562C10EF4E0950B2EBA2FA02D0B0149
:101F7000B90190010C01CA01A0011124FF27591BCE
:101F800099F0593F50F4503E68F11A16F040A22FD4
:101F9000232F342F4427585FF3CF46953795279545
:101FA000A795F0405395C9F77EF41F16BA0B620B44
:101FB000730B840BBAF09150A1F0FF0FBB1F661F8B
:101FC000771F881FC2F70EC0BA0F621F731F841FCE
:101FD00048F4879577956795B795F7959E3F08F0F4
:101FE000B3CF9395880F08F09927EE0F97958795B3
:101FF00008950CD0E6C0DED040F0D5D030F021F40A
:102000005F3F19F0C7C0511110C1CAC0EBD098F39F
:102010009923C9F35523B1F3951B550BBB27AA2769
:1020200062177307840738F09F5F5F4F220F331FDB
:10203000441FAA1FA9F333D00E2E3AF0E0E830D0A7
:1020400091505040E695001CCAF729D0FE2F27D0AA
:10205000660F771F881FBB1F261737074807AB0778
:10206000B0E809F0BB0B802DBF01FF2793585F4FED
:102070002AF09E3F510568F08DC0D7C05F3FECF35A
:10208000983EDCF3869577956795B795F7959F5FB2
:10209000C9F7880F911D9695879597F90895E1E006
:1020A000660F771F881FBB1F621773078407BA0765
:1020B00020F0621B730B840BBA0BEE1F88F7E095C0
:1020C000089598D088F09F5790F0B92F9927B7516D
:1020D000A0F0D1F0660F771F881F991F1AF0BA95EC
:1020E000C9F712C0B13081F09FD0B1E008959CC013
:1020F000672F782F8827B85F39F0B93FCCF38695E2
:1021000077956795B395D9F73EF49095809570953E
:1021100061957F4F8F4F9F4F0895E89409C097FBBB
:102120003EF490958095709561957F4F8F4F9F4FAE
:102130009923A9F0F92F96E9BB279395F6958795F2
:1021400077956795B795F111F8CFFAF4BB0F11F4B5
:1021500060FF1BC06F5F7F4F8F4F9F4F16C088235C
:1021600011F096E911C0772321F09EE8872F762F92
:1021700005C0662371F096E8862F70E060E02AF0D3
:102180009A95660F771F881FDAF7880F96958795BF
:1021900097F9089597F99F6780E870E060E00895E7
:1021A0009FEF80EC089500240A941616170618066F
:1021B0000906089500240A9412161306140605064B
:1021C0000895092E0394000C11F4882352F0BB0FDC
:1021D00040F4BF2B11F460FF04C06F5F7F4F8F4F3F
:1021E0009F4F089557FD9058440F551F59F05F3F7A
:1021F00071F04795880F97FB991F61F09F3F79F029
:1022000087950895121613061406551FF2CF4695AA
:10221000F1DF08C0161617061806991FF1CF86952C
:102220007105610508940895E894BB276627772710
:10223000CB0197F90895A29FB001B39FC001A39F5E
:1022400001D0B29F700D811D1124911D0895FC01D4
:1022500088279927E89421912032E9F3293010F05A
:102260002E30C8F32B3241F02D3239F4689404C07B
:102270000E946811820F911D219120532A30C0F3D2
:102280001EF4909581959F4F089591110895815462
:102290008A5108F4805E855A0895FC018191861761
:1022A00021F08823D9F7992708953197CF01089510
:1022B000FB01DC018D91019080190110D9F3990B7C
:1022C0000895FB01DC0101900D920020E1F70895D3
:1022D0007AE0979F902D879F802D910D112408956E
:1022E000AEE0B0E0E6E7F1E10C9472140D891E89CE
:1022F0008F89988D26E02C831A83098397FF02C06B
:1023000080E090E801979E838D83CE014B96AC01CF
:10231000698D7A8DCE0101960E94E8114D815E8112
:1023200057FD0AC02F813885421753070CF49A01D4
:10233000F801E20FF31F10822E96E4E00C948E1445
:10234000AEE0B0E0E6EAF1E10C9472148C01CA014F
:102350004EE04C831A83098377FF02C060E070E887
:10236000615071097E836D83A901BC01CE01019684
:102370000E94E8114D815E8157FD0AC02F8138858A
:10238000421753070CF49A01F801E20FF31F108271
:102390002E96E4E00C948E14AEE0B0E0E2EDF1E1B4
:1023A0000C9472148C0186E08C831A8309838FEF5E
:1023B0009FE79E838D83CE0101960E94E811EF81F5
:1023C000F885E00FF11F10822E96E4E00C948E1435
:1023D000ACE0B0E0EEEEF1E10C9464147C016B0132
:1023E0008A01FC0117821682838181FFC6C188247D
:1023F0008394912C8C0E9D1EF7019381F60193FD21
:10240000859193FF81916F01882309F4B2C18532D0
:1024100039F493FD859193FF81916F01853229F401
:10242000B70190E00E94DA13E7CF512C312C20E065
:102430002032A8F48B3261F028F4803251F08332DC
:1024400071F40BC08D3239F0803349F4216028C01B
:102450002260246025C0286023C0206121C027FDA0
:1024600027C0382F30533A3078F426FF06C0FAE000
:102470005F9E300D1124532E13C08AE0389E300D1C
:102480001124332E20620CC08E3221F426FD71C13E
:10249000206406C08C3611F4206802C0883641F4EE
:1024A000F60193FD859193FF81916F018111C0CF5A
:1024B000982F9554933018F09052933028F40C5F75
:1024C0001F4FFFE3F9830DC0833631F0833771F07E
:1024D000833509F05EC023C0F801808189830E5FD7
:1024E0001F4F44244394512C540115C03801F2E08D
:1024F0006F0E711CF801A080B18026FF03C0652D0E
:1025000070E002C06FEF7FEFC5012C870E94CF13F0
:102510002C0183012C856FE7262E222218C038015A
:10252000F2E06F0E711CF801A080B18026FF03C09D
:10253000652D70E002C06FEF7FEFC5012C870E9410
:10254000C4132C012C8550E8252E222A830123FC5C
:102550001CC006C0B70180E290E00E94DA133A94F2
:10256000832D90E048165906A8F30FC0F50127FC0B
:10257000859127FE81915F01B70190E00E94DA13F7
:1025800031103A94F1E04F1A51084114510471F797
:10259000EDC0843611F0893641F5F80127FF07C0F8
:1025A00060817181828193810C5F1F4F08C06081BF
:1025B0007181882777FD8095982F0E5F1F4F4FE61A
:1025C000B42EB22297FF09C09095809570956195C1
:1025D0007F4F8F4F9F4FF0E8BF2A2AE030E0A401E1
:1025E0000E940614A82EA81843C0853731F43FEE88
:1025F000B32EB2222AE030E024C099EFB92EB222E5
:102600008F36B9F020F4883509F0B3C00DC080379B
:1026100021F0883709F0ADC002C020E1B22AB4FE33
:102620000BC084E0B82A08C024FF09C0E6E0BE2A37
:1026300006C028E030E005C020E130E002C020E123
:1026400032E0F801B7FE07C0608171818281938119
:102650000C5F1F4F06C06081718180E090E00E5FCB
:102660001F4FA4010E940614A82EA818FFE7BF223E
:10267000B6FE0BC02B2D2E7FA51450F4B4FE0AC05D
:10268000B2FC08C02B2D2E7E05C07A2C2B2D03C04A
:102690007A2C01C0752C24FF0DC0FE01EA0DF11D3E
:1026A0008081803311F4297E09C022FF06C0739413
:1026B000739404C0822F867809F0739423FD14C0AC
:1026C00020FF0FC05A2C731460F4530C5718732C4E
:1026D00008C0B70180E290E02C870E94DA1373945F
:1026E0002C857314B0F304C0731410F4371801C0B0
:1026F000312C24FF12C0B70180E390E02C870E94A8
:10270000DA132C8522FF1EC021FF03C088E590E06C
:1027100002C088E790E0B7010CC0822F867891F064
:1027200021FD02C080E201C08BE227FD8DE2B701EE
:1027300090E00E94DA1306C0B70180E390E00E94A7
:10274000DA135A94A514C0F3AA94F401EA0DF11D0A
:10275000B701808190E00E94DA13A110F5CF06C086
:10276000B70180E290E00E94DA133A943110F8CF7A
:1027700043CEF7012681378102C02FEF3FEFC90119
:102780002C96E2E10C948014FC010590615070409D
:102790000110D8F7809590958E0F9F1F0895FC012A
:1027A0006150704001900110D8F7809590958E0F80
:1027B0009F1F08950F931F93CF93DF938C01EB011D
:1027C0008B8181FD03C00FEF1FEF1AC082FF0DC088
:1027D0002E813F818C819D812817390764F4E8811F
:1027E000F9810193F983E88306C0E885F985802F94
:1027F0000995892B41F78E819F8101969F838E8356
:10280000C801DF91CF911F910F910895FA01AA2776
:10281000283051F1203181F1E8946F936E7F6E5F23
:102820007F4F8F4F9F4FAF4FB1E03ED0B4E03CD0D1
:10283000670F781F891F9A1FA11D680F791F8A1FB4
:10284000911DA11D6A0F711D811D911DA11D20D01B
:1028500009F468943F912AE0269F11243019305DD5
:102860003193DEF6CF010895462F4770405D4193C6
:10287000B3E00FD0C9F7F6CF462F4F70405D4A3313
:1028800018F0495D31FD4052419302D0A9F7EACFDB
:10289000B4E0A6959795879577956795BA95C9F70A
:1028A00000976105710508959B01AC010A2E0694FD
:1028B0005795479537952795BA95C9F7620F731FB6
:1028C000841F951FA01D08952F923F924F925F92F3
:1028D0006F927F928F929F92AF92BF92CF92DF9230
:1028E000EF92FF920F931F93CF93DF93CDB7DEB795
:1028F000CA1BDB0B0FB6F894DEBF0FBECDBF099429
:102900002A88398848885F846E847D848C849B847F
:10291000AA84B984C884DF80EE80FD800C811B818D
:10292000AA81B981CE0FD11D0FB6F894DEBF0FBEBC
:0A293000CDBFED010895F894FFCF2C
:10293A008002B602F901E0010001069805FF01EBE9
:10294A0001017A0A46050602E50104380ADE040D89
:10295A0002E00100030973041502E50104630BF5A3
:10296A00031C022402046A0B75032802E00100F624
:10297A000BF4023102E00100050C88023702EB0178
:10298A0005FE0D25023F02F201052D0EC201470286
:10299A00E00100EB0E5E014F02E001001E063C0161
:1029AA006C026C020000003B01A90100B70101B0F2
:1029BA000102BF01036D0204760205C30106C901C3
:1029CA0007CD0108DC0109D4010A6C0200BA02A190
:1029DA000101000000C102BD026C6F6767657200E9
:1029EA0072786368617200636F6D6D616E64006115
:1029FA00646300736F756E6400727463006565705A
:102A0A00726F6D0063757272656E740063616C003B
:102A1A006E6F6E650068657831360075696E74315F
:102A2A00360073696E743136002A69646E3F006C31
:102A3A006F676C6576006C6F67726567006C6F67AD
:102A4A007265673F0076736C6F706500766F6666B5
:102A5A00736574006865780076636F756E74733F8A
:102A6A0000766F6C743F0024637572736C70002477
:102A7A006375726F6666006375726F75743F00687E
:102A8A00656C70002573005B525D005B495D005BFD
:102A9A00575D005B455D00282573292000766D652A
:102AAA0061737572650066756E6374696F6E730023
:00000001FF
