:100000000C94BA040C94D7040C94D7040C94D70421
:100010000C94D7040C94D7040C94D7040C94D704F4
:100020000C94D7040C94D7040C94D7040C94D704E4
:100030000C94D7040C94D9040C94D7040C94D704D2
:100040000C94D7040C94D7040C94D7040C94D704C4
:100050000C94D7040C94D7040C94D70452656365B0
:1000600069766564206120636F6D6D616E642074D4
:1000700065726D696E61746F722E0D0A00436F6D4B
:100080006D616E642070726F636573732073706549
:100090006564206572726F72210D0A00506172737F
:1000A000652062756666657220636F6E7461696E45
:1000B0007320272573272E0D0A00256320203C2D51
:1000C0002D20636F7069656420746F2072656365AD
:1000D000697665206275666665722E2020526563BA
:1000E000656976656420636F756E74206973202579
:1000F000642E0D0A00526563656976656420636845
:1001000061726163746572206E756D6265722061E3
:10011000626F7665206C696D69742E0D0A006A6FD6
:10012000686E7065636B2C62783130302C736E3082
:1001300030312C302E302E310D0A000068656C7085
:10014000202D2D205072696E742074686520636FB5
:100150006D6D616E642068656C702E0D0A00206301
:100160007572706572202D2D20536574207468653A
:100170002073616D706C696E6720706572696C6464
:1001800020696E206D732E0D0A2020202041726799
:10019000756D656E743A2031362D62697420756E06
:1001A0007369676E656420696E74656765722E0D8C
:1001B0000A2020202052657475726E3A204E6F6EB0
:1001C000650D0A006375726F75743F202D2D2051E7
:1001D0007565727920746865206F75747075742008
:1001E00063757272656E7420696E2075412E0D0AFA
:1001F00020202020417267756D656E743A204E6F25
:100200006E650D0A2020202052657475726E3A20AA
:10021000696E74656765722063757272656E7420AD
:10022000696E2075410D0A00246375726F66662041
:100230002D2D205365742074686520637572726576
:100240006E74206F66667365742076616C75652EBA
:100250000D0A20202020417267756D656E743A206A
:1002600031362D626974207369676E656420696E2A
:1002700074656765722E0D0A202020205265747502
:10028000726E3A204E6F6E650D0A002463757273AC
:100290006C70202D2D205365742074686520637563
:1002A0007272656E7420736C6F70652076616C7508
:1002B000652E0D0A20202020417267756D656E74D1
:1002C0003A2031362D62697420756E7369676E65E8
:1002D0006420696E74656765720D0A2020202052C3
:1002E000657475726E3A204E6F6E650D0A00766FFA
:1002F0006C743F202D2D20517565727920746865CE
:100300002063616C6962726174656420766F6C74DD
:10031000616765206D6561737572656D656E742EBC
:100320000D0A20202020417267756D656E743A2099
:100330004E6F6E650D0A2020202052657475726E16
:100340003A20566F6C7461676520696E206D696C28
:100350006C69766F6C74730D0A0024616463766156
:100360006C3F202D2D2051756572792074686520B1
:100370007261772041444320636F756E74732E0D54
:100380000A20202020417267756D656E743A204EF8
:100390006F6E650D0A2020202052657475726E3ACA
:1003A0002031362D62697420756E7369676E6564DD
:1003B00020686578206E756D6265720D0A006C6F3D
:1003C000677265673F202D2D205175657279207405
:1003D0006865206C6F6767657220656E61626C6529
:1003E0002072656769737465722E0D0A20202020C3
:1003F000417267756D656E743A204E6F6E650D0AB9
:100400002020202052657475726E3A2031362D629C
:10041000697420756E7369676E65642068657820FD
:100420006E756D6265720D0A006C6F67726567208C
:100430002D2D2053657420746865206C6F67676587
:100440007220656E61626C652072656769737465A0
:10045000722E0D0A20202020417267756D656E7422
:100460003A2031362D62697420756E7369676E6546
:100470006420686578206E756D6265720D0A2020B3
:10048000202052657475726E3A204E6F6E650D0AAB
:10049000006C6F676C6576656C202D2D205365743C
:1004A00020746865206C6F67676572207365766578
:1004B00072697479206C6576656C2E0D0A20202097
:1004C00020417267756D656E743A20302D330D0AC8
:1004D0002020202052657475726E3A204E6F6E6532
:1004E0000D0A002A49444E3F202D2D205072696E7E
:1004F0007420696E737472756D656E7420696465BD
:100500006E7469666965722E0D0A20202020417282
:1005100067756D656E743A204E6F6E650D0A20200A
:10052000202052657475726E3A204964656E746954
:100530006669636174696F6E20737472696E670DAA
:100540000A00417267756D656E742073697A652063
:1005500069732025642E0D0A00546865207061724D
:10056000736520627566666572206973206C6F63BF
:100570006B65642E0D0A0054686520636F6D6D61B4
:100580006E6420636F6E7461696E73206120737096
:100590006163652E0D0A0054686520636F6D6D619F
:1005A0006E64277320617267756D656E7420697360
:1005B00020272573272E0D0A00436F6D6D616E6431
:1005C0002027257327207265636F676E697A6564DB
:1005D0002E0D0A00417267756D656E7420746F2070
:1005E00027257327206973206F7574206F6620722A
:1005F000616E67652E0D0A00417267756D656E74D8
:1006000020746F2027257327206973207769746809
:10061000696E206C696D6974732E0D0A0049676EEE
:100620006F72696E6720617267756D656E742066A2
:100630006F7220636F6D6D616E6420272573272EA6
:100640000D0A00556E7265636F676E697A65642086
:10065000636F6D6D616E643A20272573272E0D0A36
:1006600000457865637574696E6720636F6D6D61B1
:100670006E642077697468206E6F20617267756D93
:10068000656E742E0D0A00457865637574696E6732
:1006900020636F6D6D616E64207769746820686592
:1006A0007820617267756D656E742E0D0A0054684E
:1006B0006520617267756D656E742076616C756515
:1006C0002069732025752E0D0A00457865637574C1
:1006D000696E6720636F6D6D616E64207769746801
:1006E00020756E7369676E656420696E742061722F
:1006F00067756D656E742E0D0A00457865637574B7
:10070000696E6720636F6D6D616E642077697468D0
:10071000207369676E656420696E74206172677505
:100720006D656E742E0D0A004E6F2068616E646CEC
:1007300065722073706563696669656420666F72AF
:1007400020257320617267756D656E742E0D0A0029
:100750004C6F6767696E672073657420746F206CD7
:100760006576656C2025690D0A004C6F67206C6505
:1007700076656C202575206973206E6F7420726514
:10078000636F676E697A65642E0D0A004C6F676748
:10079000657220656E61626C65207265676973744D
:1007A00065722073657420746F2025752E0D0A0004
:1007B00025750D0A004E6F77206C6F6767696E674D
:1007C0002073797374656D2025730D0A00496E6975
:1007D0007469616C697A696E67204144430D0A004F
:1007E0004A5441472064697361626C65640D0A0074
:1007F000537769746368656420746F2041444320B3
:100800006368616E6E656C2025690D0A003078257D
:10081000780D0A00496E697469616C697A696E675E
:10082000207274630D0A00457870656374656420F6
:1008300031306D732C20676F742025696D730D0A3C
:10084000002C01C8000000C8000100C8000000C85A
:1008500000FA002C01000064006E00780082008C19
:10086000009600A000AA00B400BE00C80000004925
:100870006E697469616C697A696E6720736F756EF1
:10088000640D0A00436F6D706172652076616C754E
:10089000652069732025690D0A00506C61796564D3
:1008A00020666F72202569206D730D0A0057726FE4
:1008B000746520256920746F2061646472657373A8
:1008C0002025690D0A005265616420256920667241
:1008D0006F6D20616464726573732025690D0A0071
:1008E00057726974696E672063757272656E7420E1
:1008F000736C6F70652076616C7565206F6620255E
:10090000750D0A0057726974696E6720637572729B
:10091000656E74206F66667365742076616C7565AC
:10092000206F662025690D0A0043757272656E742A
:1009300020736C6F70652076616C7565206973201B
:1009400025752070412F636F756E740D0A00437515
:100950007272656E74206F66667365742076616C62
:1009600075652069732025692070410D0A00256C8A
:10097000690D0A0011241FBECFEFD4E0DEBFCDBF4A
:1009800012E0A0E0B1E0EAE3F8E202C005900D92C7
:10099000AC35B107D9F712E0ACE5B2E001C01D9269
:1009A000A33AB107E1F70E94790E0C941B140C9442
:1009B00000001F920F920FB60F9211242F933F93B6
:1009C0004F935F936F937F938F939F93AF93BF9357
:1009D000CF93DF93EF93FF93E0910001F09101013A
:1009E0000488F589E02D8091C6008083E0910001A4
:1009F000F0910101A489B5898C918D3009F052C024
:100A00008CE590E09F938F931F92CEE9D1E0DF9326
:100A1000CF930E945B09E0910001F09101010F90DA
:100A20000F900F900F900F9084A5882309F477C042
:100A300085A5813049F48DE790E09F938F9383E003
:100A40008F93DF93CF9358C00488F589E02D1082EF
:100A50008091000190910101BC0146960E94E11035
:100A6000E0910001F091010121E025A7CF01469618
:100A70009F938F938CE990E09F938F931F92DF93C6
:100A8000CF930E945B0980910001909101010E9427
:100A900012068DB79EB707960FB6F8949EBF0FBE8D
:100AA0008DBF3DC084A58F5F84A71F928F938C91CB
:100AB0001F928F938AEB90E09F938F931F92CEE9C2
:100AC000D1E0DF93CF930E945B09E0910001F091A8
:100AD00001018DB79EB709960FB6F8949EBF0FBE61
:100AE0008DBF84A58331B0F085EF90E09F938F9305
:100AF00083E08F93DF93CF930E945B098091000185
:100B0000909101010E9412060F900F900F900F908C
:100B10000F9005C0848995890196958B848BFF91F0
:100B2000EF91DF91CF91BF91AF919F918F917F9185
:100B30006F915F914F913F912F910F900FBE0F904A
:100B40001F9018958EE191E09F938F930E94220849
:100B50000F900F900895CF93DF93EC0109C0888523
:100B60008F938F818F930E94220829960F900F9068
:100B70008D819E81892B99F7DF91CF91089584E033
:100B800091E00C94AB05CF93DF93FC0184E1EF017E
:100B9000982F19929A95E9F7E48BF58BDF01569619
:100BA000ED0119928A95E9F7B3A7A2A714A615A695
:100BB000DF91CF9108950F931F93CF93DF938B0114
:100BC000DC019A96EC919A979B96FC91EF01099023
:100BD0000020E9F72197CE1BDF0BCE0199279F93C9
:100BE0008F9382E495E09F938F9381E08F9385EAC2
:100BF00091E09F938F930E945B09EDB7FEB7379604
:100C00000FB6F894FEBF0FBEEDBFD80114968C91BD
:100C10008C1710F080E001C08FEFDF91CF911F9112
:100C20000F910895CF93DF93FC0184E1EF011992B6
:100C30008A95E9F7E48BF58B14A6DF91CF9108959F
:100C4000BF92CF92DF92EF92FF920F931F93CF93B9
:100C5000DF938C016B01EA01DC011296FC90129784
:100C60001396EC906EEC71E08F2D9E2D0E94D810A3
:100C7000009769F481E696E09F938F9381E08F93CC
:100C800085EA91E09F938F930E945B0963C063EDB7
:100C900071E08F2D9E2D0E94D810009741F587E8B6
:100CA00096E09F938F93BB24B394BF9285EAE82E7E
:100CB00081E0F82EFF92EF920E945B09C6010E942C
:100CC0004E0A888399839F938F938EEA96E09F9331
:100CD0008F93BF92FF92EF920E945B09EDB7FEB730
:100CE0003C960FB6F894FEBF0FBEEDBF38C069ED5D
:100CF00071E08F2D9E2D0E94D810009791F48AEC00
:100D000096E09F938F9381E08F9385EA91E09F9384
:100D10008F930E945B09C6010E94810A9983888390
:100D200019C060EE71E08F2D9E2D0E94D8100097A3
:100D300031F58AEF96E09F938F9381E08F9385EA58
:100D400091E09F938F930E945B09C6010E94830AE2
:100D50009B838A830F900F900F900F900F90D80174
:100D60001596ED91FC911697CE01DF91CF911F91D1
:100D70000F91FF90EF90DF90CF90BF900994EF928A
:100D8000FF9288E297E09F938F9383E08F9385EAA9
:100D900091E09F938F930E945B09EDB7FEB7379662
:100DA0000FB6F894FEBF0FBEEDBFDF91CF911F913C
:100DB0000F91FF90EF90DF90CF90BF900895BF927A
:100DC000CF92DF92EF92FF920F931F93CF93DF9317
:100DD000EC018B01BDA481E0B81206C189E595E064
:100DE0009F938F93BF9225EAC22E21E0D22EDF92ED
:100DF000CF920E945B097E0196E1E90EF11C60E250
:100E000070E0C7010E94CD109BA78AA70F900F909A
:100E10000F900F900F90892BA9F187E795E09F9392
:100E20008F93BF92DF92CF920E945B09EAA5FBA548
:100E300010828AA59BA501969BA78AA70F900F9069
:100E40000F900F900F9003C03196FBA7EAA7EAA579
:100E5000FBA580818032C1F3FF93EF9387E995E092
:100E60009F938F9381E08F9385EA91E09F938F9377
:100E70000E945B09EDB7FEB737960FB6F894FEBF38
:100E80000FBEEDBFC7010E948E0A91C0F801D0804D
:100E9000C1806D2D7C2DC7010E94D810009709F0EC
:100EA00084C0CF92DF9289EB95E09F938F93DD24EE
:100EB000D394DF9295EAE92E91E0F92EFF92EF921A
:100EC0000E945B096EEC71E0F801828193810E94BF
:100ED000D8109C018DB79EB707960FB6F8949EBFA9
:100EE0000FBE8DBF232BD9F1B801CE010E94DB05C7
:100EF000F801218190818823A9F02F939F9384ED9D
:100F000095E09F938F9383E08F93FF92EF920E94DF
:100F10005B098DB79EB707960FB6F8949EBF0FBEBC
:100F20008DBF41C02F939F9388EF95E09F938F9340
:100F3000DF92FF92EF920E945B0940910201509173
:100F400003016AA57BA5C8010E942006EDB7FEB784
:100F500037960FB6F894FEBF0FBEEDBF24C08AA52A
:100F60009BA5892BB9F0F80181818F9380818F93A4
:100F70008DE196E09F938F9382E08F93FF92EF92A3
:100F80000E945B098DB79EB707960FB6F8949EBF77
:100F90000FBE8DBF409102015091030160E070E0EF
:100FA000C8010E9420061DA61FC0075F1F4FF80141
:100FB00085819681892B09F069CFFF92EF9283E4B6
:100FC00096E09F938F9383E08F9385EA91E09F93C0
:100FD0008F930E945B091DA68DB79EB707960FB62B
:100FE000F8949EBF0FBE8DBFDF91CF911F910F91DF
:100FF000FF90EF90DF90CF90BF9008958091C00058
:1010000087FFFCCF8091C60008959091C00095FFA6
:10101000FCCF8093C60008950F931F93CF93DF9367
:10102000EC0100E010E08991882339F00F5F1F4F39
:101030000E94050806391105B1F7DF91CF911F9184
:101040000F910895CF93DF93CDB7DEB7C659D1097D
:101050000FB6F894DEBF0FBECDBFFE01E556FF4FC1
:10106000419151919F0166E970E0CE0101960E9485
:101070002011CE0101960E940C0880E0CA56DF4F75
:101080000FB6F894DEBF0FBECDBFDF91CF910895AC
:10109000CF93DF93CDB7DEB7C659D1090FB6F89419
:1010A000DEBF0FBECDBFFE01E556FF4F61917191CE
:1010B000AF01CE0101960E944C11CE0101960E9413
:1010C0000C0880E0CA56DF4F0FB6F894DEBF0FBEA3
:1010D000CDBFDF91CF9108951F93CF93DF93EC01A4
:1010E000FE011491812F0E94050821961111F8CF5D
:1010F000DF91CF911F91089582E08093C0001092FC
:10110000C50087E68093C400E1ECF0E088E18083CD
:10111000808180688083808180838081808386E075
:101120008093C20008951092C5008CE08093C400A3
:101130000895E0918B01F0918C018FEF9FEF9183E7
:10114000808381E082830895E0918B01F0918C018E
:1011500081818F9380818F9380EB97E09F938F9312
:101160000E9422080F900F900F900F900895E09129
:101170008B01F0918C011182108208959F938F93BF
:1011800080E392E09F938F930E9448080F900F9006
:101190000F900F9008957F928F929F92AF92BF927F
:1011A000CF92DF92EF92FF920F931F93CF93DF9333
:1011B000CDB7DEB7E2970FB6F894DEBF0FBECDBF56
:1011C0005C01762E6A01E0908B01F0908C0107E6BD
:1011D00011E088248394912C53C0C5010E94D8103B
:1011E000009709F04BC0C401F801028002C0880FCB
:1011F000991F0A94E2F7F70120813181822393231A
:10120000892BE1F1F1E07F1661F07F1638F082E082
:10121000781651F093E0791212C00BC083E392E08C
:101220000CC087E392E009C00E94E20C8BE392E0DD
:1012300004C00E94E60C8FE392E00E94BE08F80111
:1012400081818F9380818F9383E492E09F938F932A
:101250001F9282E38F938E010F5F1F4F1F930F9397
:101260000E94F010C8010E94BE08C6010E94BE087C
:101270000FB6F894DEBF0FBECDBF09C00D5F1F4F84
:10128000F80160817181FB0180818111A6CFE29616
:101290000FB6F894DEBF0FBECDBFDF91CF911F9187
:1012A0000F91FF90EF90DF90CF90BF90AF909F9005
:1012B0008F907F9008951F93CF93DF93CDB7DEB7C4
:1012C000E2970FB6F894DEBF0FBECDBF1AADE09126
:1012D0008B01F0918C0180819181892BB1F0828109
:1012E000181798F0CE01CD969C014BAD5CAD62E332
:1012F00070E0CE0101960E942011AE014F5F5F4F5A
:10130000612F88AD99AD0E94CB08E2960FB6F89494
:10131000DEBF0FBECDBFDF91CF911F910895EF9239
:10132000FF920F931F93CF93DF937C0107E611E0A9
:1013300033C0BE01C7010E94D810009759F5E09153
:101340008B01F0918C0121E030E0D80112960C90D5
:1013500002C0220F331F0A94E2F780819181822B11
:10136000932B91838083DF93CF9385EB97E09F93BB
:101370008F9381E08F9387E991E09F938F930E94F1
:101380005B098DB79EB707960FB6F8949EBF0FBE48
:101390008DBF08C00D5F1F4FD801CD91DC918881B2
:1013A0008111C7CFDF91CF911F910F91FF90EF90E7
:1013B0000895FC0120818181E0918B01F0918C01E5
:1013C000208381838F932F938CE897E09F938F9353
:1013D00081E08F9387E991E09F938F930E945B094F
:1013E0008DB79EB707960FB6F8949EBF0FBE8DBF00
:1013F0000895E0918B01F0918C0182831F928F936D
:1014000080E597E09F938F9381E08F9387E991E048
:101410009F938F930E945B098DB79EB707960FB677
:10142000F8949EBF0FBE8DBF0895FC01808191810D
:101430008130910551F038F08230910541F08330D0
:10144000910551F406C080E005C081E003C082E050
:1014500001C083E00C94F9099F938F938AE697E08B
:101460009F938F9383E08F9387E991E09F938F936E
:101470000E945B098DB79EB707960FB6F8949EBF82
:101480000FBE8DBF089580538A3038F08750803169
:1014900020F08052803108F080E00895EF92FF92B2
:1014A0000F931F93CF93DF93FC0101900020E9F786
:1014B0003197E81BF90BC82FD92F00E010E0EE2E72
:1014C000E80E14C089910E94430A482F50E02F2D46
:1014D00030E021503109220F331F220F331F02C089
:1014E000440F551F2A95E2F7040F151FFE2CFC1A16
:1014F00049F7C801DF91CF911F910F91FF90EF90B5
:1015000008950C94A7100C94A710282F80E091E068
:1015100002C0990F8F5F9217E0F30895CF93DF9386
:10152000EC0104C090E00E94C5108993888181116C
:10153000F9CFDF91CF91089580E88093610083E037
:10154000809361001092700088E08093B60088EC70
:101550008093B30010926E0081E0809381008093AD
:10156000B0008091B6009091B60081709470892B84
:10157000C1F78AE090E040E355E7FA013197F1F7CF
:101580000197D9F74FEF51E0F89446BB47BB109253
:101590008500109284001092B20087B38823E9F38B
:1015A00010928100789486B3811115C080918400D7
:1015B00090918500392F20E0B901680F711DCB0192
:1015C0008B3678E1970724F080916600815006C041
:1015D000883E97413CF4809166008F5F809366005F
:1015E00080E001C081E050938100882369F2089572
:1015F000E1E6F0E080E88083108208951F93CF93A6
:10160000DF938DEC97E09F938F9311E01F93CDEACA
:10161000D1E0DF93CF930E945B0985B7806885BFD7
:1016200085B7806885BF0F900F900F900F900F9037
:1016300005B607FE0EC080EE97E09F938F931F9331
:10164000DF93CF930E945B090F900F900F900F9044
:101650000F9080E480937C0080917C008F7D80934C
:101660007C0080917C00816080937C0086E8809380
:101670007A0080917A008F7D80937A0080917A0041
:10168000806480937A0080917A0084FFFCCFDF91A0
:10169000CF911F910895ECE7F0E09081907E9083C8
:1016A0009081982B90831F928F9380EF97E09F9368
:1016B0008F9381E08F938DEA91E09F938F930E94A7
:1016C0005B098DB79EB707960FB6F8949EBF0FBE05
:1016D0008DBF089580917A00806880937A00809110
:1016E0007A00806480937A0080917A0084FFFCCF36
:1016F0002091780030917900932F80E0AC01420F67
:10170000511DCA0108950E946A0B9F938F938DE02B
:1017100098E09F938F930E9422080F900F900F9054
:101720000F90089584E198E09F938F9381E08F93C9
:1017300087EB91E09F938F930E945B0988E08093F1
:10174000B6008091B000877B8093B0008091B0009C
:101750008B7F8093B0008091B00083608093B00055
:101760000F900F900F900F900F908091B600909176
:10177000B60081709470892BC1F787E2809389004D
:1017800080E18093880080E00CC00E94440C0E949D
:10179000530C1092B2000E944A0CB19BFECF809174
:1017A000B200982F9950933080F71F928F9387E261
:1017B00098E09F938F9381E08F9387EB91E09F93C5
:1017C0008F930E945B098DB79EB707960FB6F8946A
:1017D0009EBF0FBE8DBF08958091B2000895CF9334
:1017E000DF93A091B20020E030E0EFEFF0E016C010
:1017F000B091B2006B2F70E04A2F50E0BA1728F07A
:10180000641B750B260F371F08C0EF01C41BD50BD7
:10181000AE01460F571F240F351FAB2F281739076E
:1018200038F3C901DF91CF9108958FE698E09F9337
:101830008F9381E08F9381EB91E09F938F930E9430
:101840005B09E1E8F0E080818A7F808380818260AB
:10185000808380818F7E8083808188608083E0E8C0
:10186000F0E080818F7780838081806480838081B5
:101870008C7F808310928900109288000F900F90C7
:101880000F900F900F900895E1E8F0E08081887F3D
:1018900080830895E1E8F0E080818A7F8083808101
:1018A000826080830895109285001092840086B330
:1018B000827086BB0895AF92BF92CF92DF92FF9263
:1018C0000F931F93CF93DF9300D0CDB7DEB78C017A
:1018D0005B010E94440C0E94530C259AC8010A9790
:1018E00087319E44E0F4B801660F771F80E090E0F6
:1018F0000E940D109B01AC0160E074E284E799E462
:101900000E94790F20E030E040E05FE30E94150F75
:101910000E94E10F6B0181E0C81AD10803C0CC24FA
:10192000CA94DC2CDF92CF9284E898E09F938F9347
:10193000FF24F394FF9201EB11E01F930F930E9499
:101940005B09D0928900C09288000E944A0CC501B0
:101950000E94EF0B89839A830E94440C9A819F9383
:1019600089818F938AE998E09F938F93FF921F93C9
:101970000F930E945B090FB6F894DEBF0FBECDBF78
:101980000F900F90DF91CF911F910F91FF90DF90FB
:10199000CF90BF90AF900895CF93DF93EC0105C037
:1019A00064E670E00E945B0C2296FE012591349162
:1019B000C9010097A9F7DF91CF9108958FE498E0CE
:1019C0000C94CC0C87E498E00C94CC0C81E498E067
:1019D0000C94CC0CF894F999FECF92BD81BD60BDFA
:1019E000FA9AF99A78949F938F931F926F938DEA46
:1019F00098E09F938F9381E08F938BEB91E09F937F
:101A00008F930E945B098DB79EB709960FB6F89425
:101A10009EBF0FBE8DBF0895F894F999FECF92BD79
:101A200081BDF89A789420B59F938F931F922F933E
:101A300086EC98E09F938F9381E08F938BEB91E0FE
:101A40009F938F930E945B0980B52DB73EB7275FA8
:101A50003F4F0FB6F8943EBF0FBE2DBF0895249A96
:101A600008952C9A08952C9808952C990C94330D70
:101A70000C94310D08951F93CF93DF931F92CDB730
:101A8000DEB7192F9F938F9320EE38E03F932F936B
:101A900091E09F932AEC31E03F932F9389830E943A
:101AA0005B098981682F84E690E00E94EA0C0FB6FA
:101AB000F894DEBF0FBECDBF612F85E690E00F909A
:101AC000DF91CF911F910C94EA0CFC0180819181F0
:101AD0000C943B0D1F93CF93DF931F92CDB7DEB7CE
:101AE000192F9F938F9324E039E03F932F9391E038
:101AF0009F932AEC31E03F932F9389830E945B09E7
:101B00008981682F86E690E00E94EA0C0FB6F8946F
:101B1000DEBF0FBECDBF612F87E690E00F90DF9153
:101B2000CF911F910C94EA0CFC01828193810C945B
:101B30006A0D1F93CF93DF93EC0184E690E00E943F
:101B40000C0D182F85E690E00E940C0D382F20E038
:101B5000210F311D3983288386E690E00E940C0D09
:101B6000182F87E690E00E940C0D382F20E0210FFF
:101B7000311D3B832A83DF91CF911F9108951F93DD
:101B8000CF93DF9380919501909196010E94990DDA
:101B9000E0919301F091940184E690E09183808339
:101BA0001282138214821582E0919501F0919601C0
:101BB00081818F9380818F9389E299E09F938F93A6
:101BC00011E01F93C2ECD1E0DF93CF930E945B0939
:101BD000E0919501F091960183818F9382818F939B
:101BE0008EE499E09F938F931F93DF93CF930E948E
:101BF0005B098DB79EB70E960FB6F8949EBF0FBEC9
:101C00008DBFDF91CF911F9108950F931F93CF93B5
:101C1000DF938C01862F0E94850A41E050E0082E58
:101C200002C0440F551F0A94E2F790E020E030E034
:101C300009C0EE0FFF1FE00FF11F60817181260FB9
:101C4000371F9F5FE92FF0E0E417F50794F302C018
:101C5000369527958A95E2F7E0919501F0919601E6
:101C6000A081B181C0919301D09194010E949B10F9
:101C7000605472448F40910902811381222717FD1D
:101C80002095322F600F711F821F931F2AE09595B8
:101C90008795779567952A95D1F76A837B838C839F
:101CA0009D83DF91CF911F910F910895E091930152
:101CB000F091940185818F9384818F9383818F9399
:101CC00082818F938EE699E09F938F930E942208E2
:101CD0000F900F900F900F900F900F900895E0913C
:101CE0009301F0919401DC018D919C91918380830B
:101CF000089578940E94F80A0E947C080E94930834
:101D00000E9499080E94B70887E991E00E948F0914
:101D10008EE991E00E948F0985EA91E00E948F0987
:101D20008DEA91E00E948F0981EB91E00E948F097A
:101D300087EB91E00E948F098BEB91E00E948F0965
:101D400082EC91E00E948F098AEC91E00E948F0959
:101D50000E94FE0A84E00E944B0B0E94150C0E9418
:101D6000920B80910001909101010E94C3050E9495
:101D70002F0D0E94BF0D10928A0210928B021092BA
:101D80008C0210928D020E94DE0CD12C0AE812E027
:101D9000C0E0D0E0C12CEE24EA94F12C03C0C0E0F6
:101DA000D0E0CB2C64E071E08091000190910101C2
:101DB0000E94DF060E94EC0BB82E482F50E02C2D1D
:101DC00030E08C1528F0421B530BC40FD51F08C000
:101DD000C701821B930B9C01240F351FC20FD31F19
:101DE000E0919301F091940120813181C217D307D2
:101DF000A8F094E0D91203C0D12C0AE812E00E94A6
:101E00006A0BF801819391938F0164E08AE892E074
:101E10000E94050ED3940E94350DC1CFCB39FFEF40
:101E2000DF0708F0BCCFBDCF5058BB27AA270ED084
:101E300048C139D130F03ED120F031F49F3F11F448
:101E40001EF42EC10EF4E095E7FB24C1E92F4AD120
:101E500080F3BA17620773078407950718F071F4C7
:101E60009EF562C10EF4E0950B2EBA2FA02D0B014A
:101E7000B90190010C01CA01A0011124FF27591BCF
:101E800099F0593F50F4503E68F11A16F040A22FD5
:101E9000232F342F4427585FF3CF46953795279546
:101EA000A795F0405395C9F77EF41F16BA0B620B45
:101EB000730B840BBAF09150A1F0FF0FBB1F661F8C
:101EC000771F881FC2F70EC0BA0F621F731F841FCF
:101ED00048F4879577956795B795F7959E3F08F0F5
:101EE000B3CF9395880F08F09927EE0F97958795B4
:101EF00008950CD0E6C0DED040F0D5D030F021F40B
:101F00005F3F19F0C7C0511110C1CAC0EBD098F3A0
:101F10009923C9F35523B1F3951B550BBB27AA276A
:101F200062177307840738F09F5F5F4F220F331FDC
:101F3000441FAA1FA9F333D00E2E3AF0E0E830D0A8
:101F400091505040E695001CCAF729D0FE2F27D0AB
:101F5000660F771F881FBB1F261737074807AB0779
:101F6000B0E809F0BB0B802DBF01FF2793585F4FEE
:101F70002AF09E3F510568F08DC0D7C05F3FECF35B
:101F8000983EDCF3869577956795B795F7959F5FB3
:101F9000C9F7880F911D9695879597F90895E1E007
:101FA000660F771F881FBB1F621773078407BA0766
:101FB00020F0621B730B840BBA0BEE1F88F7E095C1
:101FC000089598D088F09F5790F0B92F9927B7516E
:101FD000A0F0D1F0660F771F881F991F1AF0BA95ED
:101FE000C9F712C0B13081F09FD0B1E008959CC014
:101FF000672F782F8827B85F39F0B93FCCF38695E3
:1020000077956795B395D9F73EF49095809570953F
:1020100061957F4F8F4F9F4F0895E89409C097FBBC
:102020003EF490958095709561957F4F8F4F9F4FAF
:102030009923A9F0F92F96E9BB279395F6958795F3
:1020400077956795B795F111F8CFFAF4BB0F11F4B6
:1020500060FF1BC06F5F7F4F8F4F9F4F16C088235D
:1020600011F096E911C0772321F09EE8872F762F93
:1020700005C0662371F096E8862F70E060E02AF0D4
:102080009A95660F771F881FDAF7880F96958795C0
:1020900097F9089597F99F6780E870E060E00895E8
:1020A0009FEF80EC089500240A9416161706180670
:1020B0000906089500240A9412161306140605064C
:1020C0000895092E0394000C11F4882352F0BB0FDD
:1020D00040F4BF2B11F460FF04C06F5F7F4F8F4F40
:1020E0009F4F089557FD9058440F551F59F05F3F7B
:1020F00071F04795880F97FB991F61F09F3F79F02A
:1021000087950895121613061406551FF2CF4695AB
:10211000F1DF08C0161617061806991FF1CF86952D
:102120007105610508940895E894BB276627772711
:10213000CB0197F90895A29FB001B39FC001A39F5F
:1021400001D0B29F700D811D1124911D0895FC01D5
:1021500088279927E89421912032E9F3293010F05B
:102160002E30C8F32B3241F02D3239F4689404C07C
:102170000E94E810820F911D219120532A30C0F354
:102180001EF4909581959F4F089591110895815463
:102190008A5108F4805E855A0895FC018191861762
:1021A00021F08823D9F7992708953197CF01089511
:1021B000FB01DC018D91019080190110D9F3990B7D
:1021C0000895FB01DC0101900D920020E1F70895D4
:1021D0007AE0979F902D879F802D910D112408956F
:1021E000AEE0B0E0E6EFF0E10C94F2130D891E8949
:1021F0008F89988D26E02C831A83098397FF02C06C
:1022000080E090E801979E838D83CE014B96AC01D0
:10221000698D7A8DCE0101960E9468114D815E8193
:1022200057FD0AC02F813885421753070CF49A01D5
:10223000F801E20FF31F10822E96E4E00C940E14C6
:10224000AEE0B0E0E6E2F1E10C94F2138C01CA01D9
:102250004EE04C831A83098377FF02C060E070E888
:10226000615071097E836D83A901BC01CE01019685
:102270000E9468114D815E8157FD0AC02F8138850B
:10228000421753070CF49A01F801E20FF31F108272
:102290002E96E4E00C940E14AEE0B0E0E2E5F1E13D
:1022A0000C94F2138C0186E08C831A8309838FEFE0
:1022B0009FE79E838D83CE0101960E946811EF8176
:1022C000F885E00FF11F10822E96E4E00C940E14B6
:1022D000ACE0B0E0EEE6F1E10C94E4137C016B01BC
:1022E0008A01FC0117821682838181FFC6C188247E
:1022F0008394912C8C0E9D1EF7019381F60193FD22
:10230000859193FF81916F01882309F4B2C18532D1
:1023100039F493FD859193FF81916F01853229F402
:10232000B70190E00E945A13E7CF512C312C20E0E6
:102330002032A8F48B3261F028F4803251F08332DD
:1023400071F40BC08D3239F0803349F4216028C01C
:102350002260246025C0286023C0206121C027FDA1
:1023600027C0382F30533A3078F426FF06C0FAE001
:102370005F9E300D1124532E13C08AE0389E300D1D
:102380001124332E20620CC08E3221F426FD71C13F
:10239000206406C08C3611F4206802C0883641F4EF
:1023A000F60193FD859193FF81916F018111C0CF5B
:1023B000982F9554933018F09052933028F40C5F76
:1023C0001F4FFFE3F9830DC0833631F0833771F07F
:1023D000833509F05EC023C0F801808189830E5FD8
:1023E0001F4F44244394512C540115C03801F2E08E
:1023F0006F0E711CF801A080B18026FF03C0652D0F
:1024000070E002C06FEF7FEFC5012C870E944F1371
:102410002C0183012C856FE7262E222218C038015B
:10242000F2E06F0E711CF801A080B18026FF03C09E
:10243000652D70E002C06FEF7FEFC5012C870E9411
:1024400044132C012C8550E8252E222A830123FCDD
:102450001CC006C0B70180E290E00E945A133A9473
:10246000832D90E048165906A8F30FC0F50127FC0C
:10247000859127FE81915F01B70190E00E945A1378
:1024800031103A94F1E04F1A51084114510471F798
:10249000EDC0843611F0893641F5F80127FF07C0F9
:1024A00060817181828193810C5F1F4F08C06081C0
:1024B0007181882777FD8095982F0E5F1F4F4FE61B
:1024C000B42EB22297FF09C09095809570956195C2
:1024D0007F4F8F4F9F4FF0E8BF2A2AE030E0A401E2
:1024E0000E948613A82EA81843C0853731F43FEE0A
:1024F000B32EB2222AE030E024C099EFB92EB222E6
:102500008F36B9F020F4883509F0B3C00DC080379C
:1025100021F0883709F0ADC002C020E1B22AB4FE34
:102520000BC084E0B82A08C024FF09C0E6E0BE2A38
:1025300006C028E030E005C020E130E002C020E124
:1025400032E0F801B7FE07C060817181828193811A
:102550000C5F1F4F06C06081718180E090E00E5FCC
:102560001F4FA4010E948613A82EA818FFE7BF22C0
:10257000B6FE0BC02B2D2E7FA51450F4B4FE0AC05E
:10258000B2FC08C02B2D2E7E05C07A2C2B2D03C04B
:102590007A2C01C0752C24FF0DC0FE01EA0DF11D3F
:1025A0008081803311F4297E09C022FF06C0739414
:1025B000739404C0822F867809F0739423FD14C0AD
:1025C00020FF0FC05A2C731460F4530C5718732C4F
:1025D00008C0B70180E290E02C870E945A137394E0
:1025E0002C857314B0F304C0731410F4371801C0B1
:1025F000312C24FF12C0B70180E390E02C870E94A9
:102600005A132C8522FF1EC021FF03C088E590E0ED
:1026100002C088E790E0B7010CC0822F867891F065
:1026200021FD02C080E201C08BE227FD8DE2B701EF
:1026300090E00E945A1306C0B70180E390E00E9428
:102640005A135A94A514C0F3AA94F401EA0DF11D8B
:10265000B701808190E00E945A13A110F5CF06C007
:10266000B70180E290E00E945A133A943110F8CFFB
:1026700043CEF7012681378102C02FEF3FEFC9011A
:102680002C96E2E10C940014FC010590615070401E
:102690000110D8F7809590958E0F9F1F0895FC012B
:1026A0006150704001900110D8F7809590958E0F81
:1026B0009F1F08950F931F93CF93DF938C01EB011E
:1026C0008B8181FD03C00FEF1FEF1AC082FF0DC089
:1026D0002E813F818C819D812817390764F4E88120
:1026E000F9810193F983E88306C0E885F985802F95
:1026F0000995892B41F78E819F8101969F838E8357
:10270000C801DF91CF911F910F910895FA01AA2777
:10271000283051F1203181F1E8946F936E7F6E5F24
:102720007F4F8F4F9F4FAF4FB1E03ED0B4E03CD0D2
:10273000670F781F891F9A1FA11D680F791F8A1FB5
:10274000911DA11D6A0F711D811D911DA11D20D01C
:1027500009F468943F912AE0269F11243019305DD6
:102760003193DEF6CF010895462F4770405D4193C7
:10277000B3E00FD0C9F7F6CF462F4F70405D4A3314
:1027800018F0495D31FD4052419302D0A9F7EACFDC
:10279000B4E0A6959795879577956795BA95C9F70B
:1027A00000976105710508959B01AC010A2E0694FE
:1027B0005795479537952795BA95C9F7620F731FB7
:1027C000841F951FA01D08952F923F924F925F92F4
:1027D0006F927F928F929F92AF92BF92CF92DF9231
:1027E000EF92FF920F931F93CF93DF93CDB7DEB796
:1027F000CA1BDB0B0FB6F894DEBF0FBECDBF09942A
:102800002A88398848885F846E847D848C849B8480
:10281000AA84B984C884DF80EE80FD800C811B818E
:10282000AA81B981CE0FD11D0FB6F894DEBF0FBEBD
:0A283000CDBFED010895F894FFCF2D
:10283A005C029202E701CE0100A205E304ED01D990
:10284A000101150A9104F401D90104D9092904FBEB
:10285A0001CE0100A408BE030302CE0100830B5A75
:10286A00030C02D90105650D8B021402E0010594DF
:10287A000D28021C02CE0100560EC4012402D90101
:10288A00046F0E5E012B02CE0100BF053C01480217
:10289A0048020000003B01970100A501019E0102C8
:1028AA00AD0103490204520205B10106B70107BB93
:1028BA000108CA0109C2010A48020096028F0101F1
:1028CA000000009D0299026C6F676765720072785A
:1028DA006368617200636F6D6D616E640061646349
:1028EA0000736F756E640072746300656570726F51
:1028FA006D0063757272656E740063616C006E6F51
:10290A006E650068657831360075696E7431360017
:10291A0073696E743136002A69646E3F006C6F67A2
:10292A006C6576006C6F67726567006C6F677265BD
:10293A00673F002461646376616C3F0024637572AB
:10294A00736C7000246375726F6666006375726FCC
:10295A0075743F006375727065720068656C70000B
:10296A002573005B525D005B495D005B575D005B50
:10297A00455D00282573292000766D65617375729F
:0C298A00650066756E6374696F6E730003
:00000001FF
